{
  "_format": "hh-sol-artifact-1",
  "contractName": "FundingModule",
  "sourceName": "src/core/FundingModule.sol",
  "abi": [
    {
      "inputs": [],
      "stateMutability": "nonpayable",
      "type": "constructor"
    },
    {
      "anonymous": false,
      "inputs": [
        {
          "indexed": false,
          "internalType": "address",
          "name": "previousAdmin",
          "type": "address"
        },
        {
          "indexed": false,
          "internalType": "address",
          "name": "newAdmin",
          "type": "address"
        }
      ],
      "name": "AdminChanged",
      "type": "event"
    },
    {
      "anonymous": false,
      "inputs": [
        {
          "indexed": true,
          "internalType": "address",
          "name": "beacon",
          "type": "address"
        }
      ],
      "name": "BeaconUpgraded",
      "type": "event"
    },
    {
      "anonymous": false,
      "inputs": [
        {
          "indexed": false,
          "internalType": "uint8",
          "name": "version",
          "type": "uint8"
        }
      ],
      "name": "Initialized",
      "type": "event"
    },
    {
      "anonymous": false,
      "inputs": [
        {
          "indexed": true,
          "internalType": "bytes32",
          "name": "role",
          "type": "bytes32"
        },
        {
          "indexed": true,
          "internalType": "bytes32",
          "name": "previousAdminRole",
          "type": "bytes32"
        },
        {
          "indexed": true,
          "internalType": "bytes32",
          "name": "newAdminRole",
          "type": "bytes32"
        }
      ],
      "name": "RoleAdminChanged",
      "type": "event"
    },
    {
      "anonymous": false,
      "inputs": [
        {
          "indexed": true,
          "internalType": "bytes32",
          "name": "role",
          "type": "bytes32"
        },
        {
          "indexed": true,
          "internalType": "address",
          "name": "account",
          "type": "address"
        },
        {
          "indexed": true,
          "internalType": "address",
          "name": "sender",
          "type": "address"
        }
      ],
      "name": "RoleGranted",
      "type": "event"
    },
    {
      "anonymous": false,
      "inputs": [
        {
          "indexed": true,
          "internalType": "bytes32",
          "name": "role",
          "type": "bytes32"
        },
        {
          "indexed": true,
          "internalType": "address",
          "name": "account",
          "type": "address"
        },
        {
          "indexed": true,
          "internalType": "address",
          "name": "sender",
          "type": "address"
        }
      ],
      "name": "RoleRevoked",
      "type": "event"
    },
    {
      "anonymous": false,
      "inputs": [
        {
          "indexed": true,
          "internalType": "address",
          "name": "implementation",
          "type": "address"
        }
      ],
      "name": "Upgraded",
      "type": "event"
    },
    {
      "inputs": [],
      "name": "DEFAULT_ADMIN_ROLE",
      "outputs": [
        {
          "internalType": "bytes32",
          "name": "",
          "type": "bytes32"
        }
      ],
      "stateMutability": "view",
      "type": "function"
    },
    {
      "inputs": [
        {
          "internalType": "bytes32",
          "name": "",
          "type": "bytes32"
        }
      ],
      "name": "fundingIndex",
      "outputs": [
        {
          "internalType": "int128",
          "name": "",
          "type": "int128"
        }
      ],
      "stateMutability": "view",
      "type": "function"
    },
    {
      "inputs": [
        {
          "internalType": "bytes32",
          "name": "marketId",
          "type": "bytes32"
        }
      ],
      "name": "getFundingIndex",
      "outputs": [
        {
          "internalType": "int128",
          "name": "",
          "type": "int128"
        }
      ],
      "stateMutability": "view",
      "type": "function"
    },
    {
      "inputs": [
        {
          "internalType": "bytes32",
          "name": "role",
          "type": "bytes32"
        }
      ],
      "name": "getRoleAdmin",
      "outputs": [
        {
          "internalType": "bytes32",
          "name": "",
          "type": "bytes32"
        }
      ],
      "stateMutability": "view",
      "type": "function"
    },
    {
      "inputs": [
        {
          "internalType": "bytes32",
          "name": "role",
          "type": "bytes32"
        },
        {
          "internalType": "address",
          "name": "account",
          "type": "address"
        }
      ],
      "name": "grantRole",
      "outputs": [],
      "stateMutability": "nonpayable",
      "type": "function"
    },
    {
      "inputs": [
        {
          "internalType": "bytes32",
          "name": "role",
          "type": "bytes32"
        },
        {
          "internalType": "address",
          "name": "account",
          "type": "address"
        }
      ],
      "name": "hasRole",
      "outputs": [
        {
          "internalType": "bool",
          "name": "",
          "type": "bool"
        }
      ],
      "stateMutability": "view",
      "type": "function"
    },
    {
      "inputs": [
        {
          "internalType": "address",
          "name": "admin",
          "type": "address"
        }
      ],
      "name": "initialize",
      "outputs": [],
      "stateMutability": "nonpayable",
      "type": "function"
    },
    {
      "inputs": [],
      "name": "proxiableUUID",
      "outputs": [
        {
          "internalType": "bytes32",
          "name": "",
          "type": "bytes32"
        }
      ],
      "stateMutability": "view",
      "type": "function"
    },
    {
      "inputs": [
        {
          "internalType": "bytes32",
          "name": "role",
          "type": "bytes32"
        },
        {
          "internalType": "address",
          "name": "account",
          "type": "address"
        }
      ],
      "name": "renounceRole",
      "outputs": [],
      "stateMutability": "nonpayable",
      "type": "function"
    },
    {
      "inputs": [
        {
          "internalType": "bytes32",
          "name": "role",
          "type": "bytes32"
        },
        {
          "internalType": "address",
          "name": "account",
          "type": "address"
        }
      ],
      "name": "revokeRole",
      "outputs": [],
      "stateMutability": "nonpayable",
      "type": "function"
    },
    {
      "inputs": [
        {
          "internalType": "bytes4",
          "name": "interfaceId",
          "type": "bytes4"
        }
      ],
      "name": "supportsInterface",
      "outputs": [
        {
          "internalType": "bool",
          "name": "",
          "type": "bool"
        }
      ],
      "stateMutability": "view",
      "type": "function"
    },
    {
      "inputs": [
        {
          "internalType": "bytes32",
          "name": "marketId",
          "type": "bytes32"
        },
        {
          "internalType": "int128",
          "name": "indexDelta",
          "type": "int128"
        }
      ],
      "name": "updateFundingIndex",
      "outputs": [],
      "stateMutability": "nonpayable",
      "type": "function"
    },
    {
      "inputs": [
        {
          "internalType": "address",
          "name": "newImplementation",
          "type": "address"
        }
      ],
      "name": "upgradeTo",
      "outputs": [],
      "stateMutability": "nonpayable",
      "type": "function"
    },
    {
      "inputs": [
        {
          "internalType": "address",
          "name": "newImplementation",
          "type": "address"
        },
        {
          "internalType": "bytes",
          "name": "data",
          "type": "bytes"
        }
      ],
      "name": "upgradeToAndCall",
      "outputs": [],
      "stateMutability": "payable",
      "type": "function"
    }
  ],
  "bytecode": "0x60a080604052346100dc57306080526000549060ff8260081c1661008a575060ff8082160361004f575b6040516115d190816100e282396080518181816103d5015281816104fe01526107ab0152f35b60ff90811916176000557f7f26b83ff96e1f2b6a682f133852f6798a09c465da95921460cefb3847402498602060405160ff8152a138610029565b62461bcd60e51b815260206004820152602760248201527f496e697469616c697a61626c653a20636f6e747261637420697320696e697469604482015266616c697a696e6760c81b6064820152608490fd5b600080fdfe608060408181526004908136101561001657600080fd5b600092833560e01c90816301ffc9a714610d6957508063248a9ca314610d3e57806329401c1d14610ab45780632f2ff15d14610a0757806336568abe146109755780633659cfe6146107855780634f1ef2861461048557806352d1902d146103c0578063710640b51461039557806381e409011461039557806391d148541461034e578063a217fddf1461032f578063c4d66de8146100fe5763d547741f146100be57600080fd5b346100fa57806003193601126100fa576100f791356100f260016100e0610dbd565b93838752606560205286200154611104565b61120f565b80f35b8280fd5b5090346100fa576020908160031936011261032b5761011b610dd8565b84549060ff91828160081c16159384809561031f575b8015610309575b156102af575060ff198181166001178855908461029e575b5061016983885460081c1661016481611285565b611285565b868052606585528587206001600160a01b0390921680885291855285872054831615610257575b7f71a9859d7dd21b24504a6f306077ffc2d510b4d4b61128e931fe937441ad18369283885260658652868820838952865286882054161561020e575b5050506101d7578280f35b7f7f26b83ff96e1f2b6a682f133852f6798a09c465da95921460cefb38474024989161ff001984541684555160018152a138808280f35b82875260658552858720828852855260018688209182541617905533917f2f8788117e7eff1d82e926ec794901d17c78024a50270940304540a733656f0d8780a43880806101cc565b8680526065855285872082885285528587206001828254161790553382887f2f8788117e7eff1d82e926ec794901d17c78024a50270940304540a733656f0d8180a4610190565b61ffff191661010117875538610150565b865162461bcd60e51b8152908101869052602e60248201527f496e697469616c697a61626c653a20636f6e747261637420697320616c72656160448201526d191e481a5b9a5d1a585b1a5e995960921b6064820152608490fd5b50303b1580156101385750600184831614610138565b50600184831610610131565b8380fd5b83823461034a578160031936011261034a5751908152602090f35b5080fd5b5090346100fa57816003193601126100fa578160209360ff9261036f610dbd565b90358252606586528282206001600160a01b039091168252855220549151911615158152f35b5090346100fa5760203660031901126100fa57602092829135815260fb84522054600f0b9051908152f35b509134610482578060031936011261048257507f00000000000000000000000000000000000000000000000000000000000000006001600160a01b0316300361041a576020825160008051602061157c8339815191528152f35b6020608492519162461bcd60e51b8352820152603860248201527f555550535570677261646561626c653a206d757374206e6f742062652063616c60448201527f6c6564207468726f7567682064656c656761746563616c6c00000000000000006064820152fd5b80fd5b50806003193601126100fa57610499610dd8565b906024359067ffffffffffffffff8211610781573660238301121561078157818401356104c581610e5e565b6104d183519182610e3c565b818152866020948583019336602482840101116100fa578060248893018637830101526001600160a01b037f000000000000000000000000000000000000000000000000000000000000000081169061052c30831415610e7a565b61054960008051602061157c833981519152928284541614610edb565b610551610f3c565b7f4910fdfa16fed3260ed0e7147f7cc6da11a60208b5b9406d12a635614ffd91435460ff161561058b575050505050506100f79150611334565b869293949596169085516352d1902d60e01b815287818a81865afa8a918161074e575b5061060d57865162461bcd60e51b8152808a01899052602e60248201527f45524331393637557067726164653a206e657720696d706c656d656e7461746960448201526d6f6e206973206e6f74205555505360901b6064820152608490fd5b9791929396959497036106f9575061062482611334565b7fbc7cd75a20ee27fd9adebab32041f755214dbc6bffa90cc0225b39da2e5c2d3b8780a2858451158015906106f1575b610662575b50505050505080f35b806106db9684519661067388610dee565b602788527f416464726573733a206c6f772d6c6576656c2064656c65676174652063616c6c87890152660819985a5b195960ca1b868901525190845af4913d156106e7573d6106cd6106c482610e5e565b92519283610e3c565b81528681943d92013e6114ea565b50388080808085610659565b50606092506114ea565b506001610654565b835162461bcd60e51b8152908101859052602960248201527f45524331393637557067726164653a20756e737570706f727465642070726f786044820152681a58589b195555525160ba1b6064820152608490fd5b9091508881813d831161077a575b6107668183610e3c565b81010312610776575190386105ae565b8a80fd5b503d61075c565b8480fd5b50346100fa5760208060031936011261032b576107a0610dd8565b916001600160a01b037f000000000000000000000000000000000000000000000000000000000000000081166107d830821415610e7a565b6107f560008051602061157c833981519152918383541614610edb565b6107fd610f3c565b8251908482019282841067ffffffffffffffff851117610962578385528883527f4910fdfa16fed3260ed0e7147f7cc6da11a60208b5b9406d12a635614ffd91435460ff1615610857575050505050506100f79150611334565b869293949596169085516352d1902d60e01b815287818a81865afa8a9181610933575b506108d957865162461bcd60e51b8152808a01899052602e60248201527f45524331393637557067726164653a206e657720696d706c656d656e7461746960448201526d6f6e206973206e6f74205555505360901b6064820152608490fd5b9791929396959497036106f957506108f082611334565b7fbc7cd75a20ee27fd9adebab32041f755214dbc6bffa90cc0225b39da2e5c2d3b8780a28584511580159061092c576106625750505050505080f35b5080610654565b9091508881813d831161095b575b61094b8183610e3c565b810103126107765751903861087a565b503d610941565b634e487b7160e01b895260418852602489fd5b5091903461034a578260031936011261034a57610990610dbd565b90336001600160a01b038316036109ac57906100f7913561120f565b608490602085519162461bcd60e51b8352820152602f60248201527f416363657373436f6e74726f6c3a2063616e206f6e6c792072656e6f756e636560448201526e103937b632b9903337b91039b2b63360891b6064820152fd5b5090346100fa57816003193601126100fa573590610a23610dbd565b908284526065602052610a3b60018286200154611104565b828452606560209081528185206001600160a01b039093168086529290528084205460ff1615610a69578380f35b82845260656020528084208285526020528320600160ff1982541617905533917f2f8788117e7eff1d82e926ec794901d17c78024a50270940304540a733656f0d8480a43880808380f35b50346100fa57806003193601126100fa57602491823591600f83600f0b809403610d3a577f71a9859d7dd21b24504a6f306077ffc2d510b4d4b61128e931fe937441ad18369081875260209160658352838820338952835260ff848920541615610b7557505060fb90833587525284209283549283600f0b019160016001607f1b0319831260016001607f1b03841317610b645750506001600160801b0316906001600160801b03191617905580f35b634e487b7160e01b86526011905284fd5b879293955086610b84336113eb565b91875193610b9185610e20565b60428552868501956060368837855115610d28576030875385519160019260011015610d16579190607860218801536041925b828411610cac5750505050610c6b5750610c67938693610c5393610c44604894610c1b9a519a8576020b1b1b2b9b9a1b7b73a3937b61d1030b1b1b7bab73a1604d1b8d9788015282519283916037890191016112e5565b8401917001034b99036b4b9b9b4b733903937b6329607d1b6037840152518093868401906112e5565b01036028810187520185610e3c565b5162461bcd60e51b81529283928301611308565b0390fd5b9250505081606494519362461bcd60e51b85528401528201527f537472696e67733a20686578206c656e67746820696e73756666696369656e746044820152fd5b909192938181166010811015610d04576f181899199a1a9b1b9c1cb0b131b232b360811b901a610cdc868a6113c4565b538a1c938015610cf25760001901929190610bc4565b634e487b7160e01b835260118b528583fd5b634e487b7160e01b845260328c528684fd5b634e487b7160e01b825260328a528482fd5b634e487b7160e01b8152603289528390fd5b8580fd5b5090346100fa5760203660031901126100fa5781602093600192358152606585522001549051908152f35b849084346100fa5760203660031901126100fa573563ffffffff60e01b81168091036100fa5760209250637965db0b60e01b8114908115610dac575b5015158152f35b6301ffc9a760e01b14905083610da5565b602435906001600160a01b0382168203610dd357565b600080fd5b600435906001600160a01b0382168203610dd357565b6060810190811067ffffffffffffffff821117610e0a57604052565b634e487b7160e01b600052604160045260246000fd5b6080810190811067ffffffffffffffff821117610e0a57604052565b90601f8019910116810190811067ffffffffffffffff821117610e0a57604052565b67ffffffffffffffff8111610e0a57601f01601f191660200190565b15610e8157565b60405162461bcd60e51b815260206004820152602c60248201527f46756e6374696f6e206d7573742062652063616c6c6564207468726f7567682060448201526b19195b1959d85d1958d85b1b60a21b6064820152608490fd5b15610ee257565b60405162461bcd60e51b815260206004820152602c60248201527f46756e6374696f6e206d7573742062652063616c6c6564207468726f7567682060448201526b6163746976652070726f787960a01b6064820152608490fd5b3360009081527fffdfc1249c027f9191656349feb0761381bb32c9f557e01f419fd08754bf5a1b602090815260408083205490929060ff1615610f7e57505050565b610f87336113eb565b83519082610f9483610e20565b604283528483019360603686378351156110f05760308553835190600191600110156110f05790607860218601536041915b8183116110825750505061104057610c1b93859361102a9361101b604894610c679951988576020b1b1b2b9b9a1b7b73a3937b61d1030b1b1b7bab73a1604d1b8b9788015282519283916037890191016112e5565b01036028810185520183610e3c565b5162461bcd60e51b815291829160048301611308565b60648486519062461bcd60e51b825280600483015260248201527f537472696e67733a20686578206c656e67746820696e73756666696369656e746044820152fd5b909192600f811660108110156110dc576f181899199a1a9b1b9c1cb0b131b232b360811b901a6110b285886113c4565b5360041c9280156110c857600019019190610fc6565b634e487b7160e01b82526011600452602482fd5b634e487b7160e01b83526032600452602483fd5b634e487b7160e01b81526032600452602490fd5b600081815260209060658252604092838220338352835260ff84832054161561112d5750505050565b611136336113eb565b84519161114283610e20565b604283528483019360603686378351156110f05760308553835190600191600110156110f05790607860218601536041915b8183116111c95750505061104057610c1b93859361102a9361101b604894610c679951988576020b1b1b2b9b9a1b7b73a3937b61d1030b1b1b7bab73a1604d1b8b9788015282519283916037890191016112e5565b909192600f811660108110156110dc576f181899199a1a9b1b9c1cb0b131b232b360811b901a6111f985886113c4565b5360041c9280156110c857600019019190611174565b906000918083526065602052604083209160018060a01b03169182845260205260ff60408420541661124057505050565b8083526065602052604083208284526020526040832060ff1981541690557ff6391f5c32d9c69d2a47ea670b442974b53935d1edc7fd64eb21e047a839171b339380a4565b1561128c57565b60405162461bcd60e51b815260206004820152602b60248201527f496e697469616c697a61626c653a20636f6e7472616374206973206e6f74206960448201526a6e697469616c697a696e6760a81b6064820152608490fd5b60005b8381106112f85750506000910152565b81810151838201526020016112e8565b6040916020825261132881518092816020860152602086860191016112e5565b601f01601f1916010190565b803b156113695760008051602061157c83398151915280546001600160a01b0319166001600160a01b03909216919091179055565b60405162461bcd60e51b815260206004820152602d60248201527f455243313936373a206e657720696d706c656d656e746174696f6e206973206e60448201526c1bdd08184818dbdb9d1c9858dd609a1b6064820152608490fd5b9081518110156113d5570160200190565b634e487b7160e01b600052603260045260246000fd5b604051906113f882610dee565b602a82526020820160403682378251156113d557603090538151600190600110156113d557607860218401536029905b80821161147c5750506114385790565b606460405162461bcd60e51b815260206004820152602060248201527f537472696e67733a20686578206c656e67746820696e73756666696369656e746044820152fd5b9091600f811660108110156114d5576f181899199a1a9b1b9c1cb0b131b232b360811b901a6114ab84866113c4565b5360041c9180156114c0576000190190611428565b60246000634e487b7160e01b81526011600452fd5b60246000634e487b7160e01b81526032600452fd5b9192901561154c57508151156114fe575090565b3b156115075790565b60405162461bcd60e51b815260206004820152601d60248201527f416464726573733a2063616c6c20746f206e6f6e2d636f6e74726163740000006044820152606490fd5b82519091501561155f5750805190602001fd5b60405162461bcd60e51b8152908190610c67906004830161130856fe360894a13ba1a3210667c828492db98dca3e2076cc3735a920a3ca505d382bbca26469706673582212204e3f7a8182cc0347ee4657587a9bc41930db65d32ae4f197eb36d9dad790001e64736f6c63430008180033",
  "linkReferences": {},
  "deployedLinkReferences": {}
}