{
  "_format": "hh-sol-artifact-1",
  "contractName": "RiskConfig",
  "sourceName": "src/core/RiskConfig.sol",
  "abi": [
    {
      "inputs": [],
      "stateMutability": "nonpayable",
      "type": "constructor"
    },
    {
      "anonymous": false,
      "inputs": [
        {
          "indexed": false,
          "internalType": "address",
          "name": "previousAdmin",
          "type": "address"
        },
        {
          "indexed": false,
          "internalType": "address",
          "name": "newAdmin",
          "type": "address"
        }
      ],
      "name": "AdminChanged",
      "type": "event"
    },
    {
      "anonymous": false,
      "inputs": [
        {
          "indexed": true,
          "internalType": "address",
          "name": "beacon",
          "type": "address"
        }
      ],
      "name": "BeaconUpgraded",
      "type": "event"
    },
    {
      "anonymous": false,
      "inputs": [
        {
          "indexed": false,
          "internalType": "uint8",
          "name": "version",
          "type": "uint8"
        }
      ],
      "name": "Initialized",
      "type": "event"
    },
    {
      "anonymous": false,
      "inputs": [
        {
          "indexed": true,
          "internalType": "bytes32",
          "name": "marketId",
          "type": "bytes32"
        },
        {
          "components": [
            {
              "internalType": "uint16",
              "name": "imrBps",
              "type": "uint16"
            },
            {
              "internalType": "uint16",
              "name": "mmrBps",
              "type": "uint16"
            },
            {
              "internalType": "uint16",
              "name": "liqPenaltyBps",
              "type": "uint16"
            },
            {
              "internalType": "uint16",
              "name": "makerFeeBps",
              "type": "uint16"
            },
            {
              "internalType": "uint16",
              "name": "takerFeeBps",
              "type": "uint16"
            },
            {
              "internalType": "uint8",
              "name": "maxLev",
              "type": "uint8"
            }
          ],
          "indexed": false,
          "internalType": "struct RiskConfig.MarketRisk",
          "name": "risk",
          "type": "tuple"
        }
      ],
      "name": "MarketRiskSet",
      "type": "event"
    },
    {
      "anonymous": false,
      "inputs": [
        {
          "indexed": true,
          "internalType": "bytes32",
          "name": "role",
          "type": "bytes32"
        },
        {
          "indexed": true,
          "internalType": "bytes32",
          "name": "previousAdminRole",
          "type": "bytes32"
        },
        {
          "indexed": true,
          "internalType": "bytes32",
          "name": "newAdminRole",
          "type": "bytes32"
        }
      ],
      "name": "RoleAdminChanged",
      "type": "event"
    },
    {
      "anonymous": false,
      "inputs": [
        {
          "indexed": true,
          "internalType": "bytes32",
          "name": "role",
          "type": "bytes32"
        },
        {
          "indexed": true,
          "internalType": "address",
          "name": "account",
          "type": "address"
        },
        {
          "indexed": true,
          "internalType": "address",
          "name": "sender",
          "type": "address"
        }
      ],
      "name": "RoleGranted",
      "type": "event"
    },
    {
      "anonymous": false,
      "inputs": [
        {
          "indexed": true,
          "internalType": "bytes32",
          "name": "role",
          "type": "bytes32"
        },
        {
          "indexed": true,
          "internalType": "address",
          "name": "account",
          "type": "address"
        },
        {
          "indexed": true,
          "internalType": "address",
          "name": "sender",
          "type": "address"
        }
      ],
      "name": "RoleRevoked",
      "type": "event"
    },
    {
      "anonymous": false,
      "inputs": [
        {
          "indexed": true,
          "internalType": "address",
          "name": "implementation",
          "type": "address"
        }
      ],
      "name": "Upgraded",
      "type": "event"
    },
    {
      "inputs": [],
      "name": "DEFAULT_ADMIN_ROLE",
      "outputs": [
        {
          "internalType": "bytes32",
          "name": "",
          "type": "bytes32"
        }
      ],
      "stateMutability": "view",
      "type": "function"
    },
    {
      "inputs": [
        {
          "internalType": "bytes32",
          "name": "marketId",
          "type": "bytes32"
        }
      ],
      "name": "getIMRBps",
      "outputs": [
        {
          "internalType": "uint16",
          "name": "",
          "type": "uint16"
        }
      ],
      "stateMutability": "view",
      "type": "function"
    },
    {
      "inputs": [
        {
          "internalType": "bytes32",
          "name": "marketId",
          "type": "bytes32"
        }
      ],
      "name": "getLiqPenaltyBps",
      "outputs": [
        {
          "internalType": "uint16",
          "name": "",
          "type": "uint16"
        }
      ],
      "stateMutability": "view",
      "type": "function"
    },
    {
      "inputs": [
        {
          "internalType": "bytes32",
          "name": "marketId",
          "type": "bytes32"
        }
      ],
      "name": "getMMRBps",
      "outputs": [
        {
          "internalType": "uint16",
          "name": "",
          "type": "uint16"
        }
      ],
      "stateMutability": "view",
      "type": "function"
    },
    {
      "inputs": [
        {
          "internalType": "bytes32",
          "name": "marketId",
          "type": "bytes32"
        }
      ],
      "name": "getMarketRisk",
      "outputs": [
        {
          "components": [
            {
              "internalType": "uint16",
              "name": "imrBps",
              "type": "uint16"
            },
            {
              "internalType": "uint16",
              "name": "mmrBps",
              "type": "uint16"
            },
            {
              "internalType": "uint16",
              "name": "liqPenaltyBps",
              "type": "uint16"
            },
            {
              "internalType": "uint16",
              "name": "makerFeeBps",
              "type": "uint16"
            },
            {
              "internalType": "uint16",
              "name": "takerFeeBps",
              "type": "uint16"
            },
            {
              "internalType": "uint8",
              "name": "maxLev",
              "type": "uint8"
            }
          ],
          "internalType": "struct RiskConfig.MarketRisk",
          "name": "",
          "type": "tuple"
        }
      ],
      "stateMutability": "view",
      "type": "function"
    },
    {
      "inputs": [
        {
          "internalType": "bytes32",
          "name": "role",
          "type": "bytes32"
        }
      ],
      "name": "getRoleAdmin",
      "outputs": [
        {
          "internalType": "bytes32",
          "name": "",
          "type": "bytes32"
        }
      ],
      "stateMutability": "view",
      "type": "function"
    },
    {
      "inputs": [
        {
          "internalType": "bytes32",
          "name": "role",
          "type": "bytes32"
        },
        {
          "internalType": "address",
          "name": "account",
          "type": "address"
        }
      ],
      "name": "grantRole",
      "outputs": [],
      "stateMutability": "nonpayable",
      "type": "function"
    },
    {
      "inputs": [
        {
          "internalType": "bytes32",
          "name": "role",
          "type": "bytes32"
        },
        {
          "internalType": "address",
          "name": "account",
          "type": "address"
        }
      ],
      "name": "hasRole",
      "outputs": [
        {
          "internalType": "bool",
          "name": "",
          "type": "bool"
        }
      ],
      "stateMutability": "view",
      "type": "function"
    },
    {
      "inputs": [
        {
          "internalType": "address",
          "name": "admin",
          "type": "address"
        }
      ],
      "name": "initialize",
      "outputs": [],
      "stateMutability": "nonpayable",
      "type": "function"
    },
    {
      "inputs": [],
      "name": "proxiableUUID",
      "outputs": [
        {
          "internalType": "bytes32",
          "name": "",
          "type": "bytes32"
        }
      ],
      "stateMutability": "view",
      "type": "function"
    },
    {
      "inputs": [
        {
          "internalType": "bytes32",
          "name": "role",
          "type": "bytes32"
        },
        {
          "internalType": "address",
          "name": "account",
          "type": "address"
        }
      ],
      "name": "renounceRole",
      "outputs": [],
      "stateMutability": "nonpayable",
      "type": "function"
    },
    {
      "inputs": [
        {
          "internalType": "bytes32",
          "name": "marketId",
          "type": "bytes32"
        },
        {
          "internalType": "address",
          "name": "",
          "type": "address"
        },
        {
          "internalType": "uint256",
          "name": "sizeRaw",
          "type": "uint256"
        },
        {
          "internalType": "uint8",
          "name": "assetDecimals",
          "type": "uint8"
        },
        {
          "internalType": "uint256",
          "name": "priceX1e18",
          "type": "uint256"
        }
      ],
      "name": "requiredInitialMarginZ",
      "outputs": [
        {
          "internalType": "uint256",
          "name": "",
          "type": "uint256"
        }
      ],
      "stateMutability": "view",
      "type": "function"
    },
    {
      "inputs": [
        {
          "internalType": "bytes32",
          "name": "role",
          "type": "bytes32"
        },
        {
          "internalType": "address",
          "name": "account",
          "type": "address"
        }
      ],
      "name": "revokeRole",
      "outputs": [],
      "stateMutability": "nonpayable",
      "type": "function"
    },
    {
      "inputs": [
        {
          "internalType": "bytes32",
          "name": "",
          "type": "bytes32"
        }
      ],
      "name": "risks",
      "outputs": [
        {
          "internalType": "uint16",
          "name": "imrBps",
          "type": "uint16"
        },
        {
          "internalType": "uint16",
          "name": "mmrBps",
          "type": "uint16"
        },
        {
          "internalType": "uint16",
          "name": "liqPenaltyBps",
          "type": "uint16"
        },
        {
          "internalType": "uint16",
          "name": "makerFeeBps",
          "type": "uint16"
        },
        {
          "internalType": "uint16",
          "name": "takerFeeBps",
          "type": "uint16"
        },
        {
          "internalType": "uint8",
          "name": "maxLev",
          "type": "uint8"
        }
      ],
      "stateMutability": "view",
      "type": "function"
    },
    {
      "inputs": [
        {
          "internalType": "bytes32",
          "name": "marketId",
          "type": "bytes32"
        },
        {
          "components": [
            {
              "internalType": "uint16",
              "name": "imrBps",
              "type": "uint16"
            },
            {
              "internalType": "uint16",
              "name": "mmrBps",
              "type": "uint16"
            },
            {
              "internalType": "uint16",
              "name": "liqPenaltyBps",
              "type": "uint16"
            },
            {
              "internalType": "uint16",
              "name": "makerFeeBps",
              "type": "uint16"
            },
            {
              "internalType": "uint16",
              "name": "takerFeeBps",
              "type": "uint16"
            },
            {
              "internalType": "uint8",
              "name": "maxLev",
              "type": "uint8"
            }
          ],
          "internalType": "struct RiskConfig.MarketRisk",
          "name": "r",
          "type": "tuple"
        }
      ],
      "name": "setMarketRisk",
      "outputs": [],
      "stateMutability": "nonpayable",
      "type": "function"
    },
    {
      "inputs": [
        {
          "internalType": "bytes4",
          "name": "interfaceId",
          "type": "bytes4"
        }
      ],
      "name": "supportsInterface",
      "outputs": [
        {
          "internalType": "bool",
          "name": "",
          "type": "bool"
        }
      ],
      "stateMutability": "view",
      "type": "function"
    },
    {
      "inputs": [
        {
          "internalType": "address",
          "name": "newImplementation",
          "type": "address"
        }
      ],
      "name": "upgradeTo",
      "outputs": [],
      "stateMutability": "nonpayable",
      "type": "function"
    },
    {
      "inputs": [
        {
          "internalType": "address",
          "name": "newImplementation",
          "type": "address"
        },
        {
          "internalType": "bytes",
          "name": "data",
          "type": "bytes"
        }
      ],
      "name": "upgradeToAndCall",
      "outputs": [],
      "stateMutability": "payable",
      "type": "function"
    }
  ],
  "bytecode": "0x60a080604052346100dc57306080526000549060ff8260081c1661008a575060ff8082160361004f575b60405161192190816100e282396080518181816108a1015281816109ca0152610c770152f35b60ff90811916176000557f7f26b83ff96e1f2b6a682f133852f6798a09c465da95921460cefb3847402498602060405160ff8152a138610029565b62461bcd60e51b815260206004820152602760248201527f496e697469616c697a61626c653a20636f6e747261637420697320696e697469604482015266616c697a696e6760c81b6064820152608490fd5b600080fdfe608060408181526004908136101561001657600080fd5b600092833560e01c90816301ffc9a714611074575080630a50b30b1461104657806317850a8114610fab578063248a9ca314610f805780632f2ff15d14610ed357806336568abe14610e415780633659cfe614610c515780634f1ef2861461095157806352d1902d1461088c57806356e278c21461085d578063613b9642146108315780638993021b146107cf57806391d1485414610788578063940ceef414610447578063a217fddf14610428578063bd5ea6f61461035b578063c4d66de81461012a5763d547741f146100ea57600080fd5b34610126578060031936011261012657610123913561011e600161010c6110c8565b93838752606560205286200154611454565b61155f565b80f35b8280fd5b5090346101265760209081600319360112610357576101476110e3565b84549060ff91828160081c16159384809561034b575b8015610335575b156102db575060ff19818116600117885590846102ca575b5061019583885460081c16610190816115d5565b6115d5565b868052606585528587206001600160a01b0390921680885291855285872054831615610283575b7f8aa855a911518ecfbe5bc3088c8f3dda7badf130faaf8ace33fdc33828e181679283885260658652868820838952865286882054161561023a575b505050610203578280f35b7f7f26b83ff96e1f2b6a682f133852f6798a09c465da95921460cefb38474024989161ff001984541684555160018152a138808280f35b82875260658552858720828852855260018688209182541617905533917f2f8788117e7eff1d82e926ec794901d17c78024a50270940304540a733656f0d8780a43880806101f8565b8680526065855285872082885285528587206001828254161790553382887f2f8788117e7eff1d82e926ec794901d17c78024a50270940304540a733656f0d8180a46101bc565b61ffff19166101011787553861017c565b865162461bcd60e51b8152908101869052602e60248201527f496e697469616c697a61626c653a20636f6e747261637420697320616c72656160448201526d191e481a5b9a5d1a585b1a5e995960921b6064820152608490fd5b50303b1580156101645750600184831614610164565b5060018483161061015d565b8380fd5b503461012657602091826003193601126103575790808460ff9360c09660a08451610385816110f9565b82815282898201528286820152826060820152826080820152015235815260fb8552208151906103b4826110f9565b54809261ffff928391828085169889845280840190828760101c16825282848601928189841c1684528b60a06060890198848c60301c168a5284608082019c8a1c168c52019b60501c168b5285519c8d525116908b01525116908801525116606086015251166080840152511660a0820152f35b83823461044357816003193601126104435751908152602090f35b5080fd5b5090346101265760e03660031901126101265780359160c0366023190112610357577f8aa855a911518ecfbe5bc3088c8f3dda7badf130faaf8ace33fdc33828e181679182855260209260658452828620338752845260ff8387205416156105c657505082845260fb82528084206024359061ffff8083168093036105c257815460443595828716958688036105be5760643596848816928389036105ba5760843596868816958689036105b65760a435978816978881036105b25760c43560ff81169a8b82036105ad5767ffff0000000000007f868f2405561f0fbe3eb2da8f66c73e4f1081e27a5a6f0519df066618631c86e29f9e60c09f8f9063ffff000065ffff000000009269ffff00000000000000009760ff60501b9060501b16996affffffffffffffffffffff1916179160101b161791891b16179160301b161791871b161717905582519788528701528501526060840152608083015260a0820152a280f35b508f80fd5b8e80fd5b8d80fd5b8b80fd5b8980fd5b8680fd5b8584916105d23361173b565b8551916105de83611147565b604283528483019360603686378351156107755760308553835190600191600110156107625790607860218601536041915b8183116106f7575050506106b5576106b193869361069d9361068e6048946106659a519a8576020b1b1b2b9b9a1b7b73a3937b61d1030b1b1b7bab73a1604d1b8d978801528251928391603789019101611635565b8401917001034b99036b4b9b9b4b733903937b6329607d1b603784015251809386840190611635565b01036028810187520185611163565b5162461bcd60e51b81529283928301611658565b0390fd5b50505080606493519262461bcd60e51b845283015260248201527f537472696e67733a20686578206c656e67746820696e73756666696369656e746044820152fd5b909192600f8116601081101561074f576f181899199a1a9b1b9c1cb0b131b232b360811b901a6107278588611714565b53881c92801561073c57600019019190610610565b634e487b7160e01b825260118952602482fd5b634e487b7160e01b835260328a52602483fd5b634e487b7160e01b815260328852602490fd5b634e487b7160e01b815260328752602490fd5b5090346101265781600319360112610126578160209360ff926107a96110c8565b90358252606586528282206001600160a01b039091168252855220549151911615158152f35b509034610126576020366003190112610126578160c09360ff9235815260fb602052205461ffff818451948282168652828260101c166020870152828260201c1681870152828260301c1660608701521c16608084015260501c1660a0820152f35b509034610126576020366003190112610126578160209361ffff9235815260fb85522054169051908152f35b509034610126576020366003190112610126578160209361ffff9235815260fb8552205460101c169051908152f35b50913461094e578060031936011261094e57507f00000000000000000000000000000000000000000000000000000000000000006001600160a01b031630036108e657602082516000805160206118cc8339815191528152f35b6020608492519162461bcd60e51b8352820152603860248201527f555550535570677261646561626c653a206d757374206e6f742062652063616c60448201527f6c6564207468726f7567682064656c656761746563616c6c00000000000000006064820152fd5b80fd5b5080600319360112610126576109656110e3565b906024359067ffffffffffffffff8211610c4d5736602383011215610c4d578184013561099181611185565b61099d83519182611163565b81815286602094858301933660248284010111610126578060248893018637830101526001600160a01b037f00000000000000000000000000000000000000000000000000000000000000008116906109f8308314156111ca565b610a156000805160206118cc83398151915292828454161461122b565b610a1d61128c565b7f4910fdfa16fed3260ed0e7147f7cc6da11a60208b5b9406d12a635614ffd91435460ff1615610a57575050505050506101239150611684565b869293949596169085516352d1902d60e01b815287818a81865afa8a9181610c1a575b50610ad957865162461bcd60e51b8152808a01899052602e60248201527f45524331393637557067726164653a206e657720696d706c656d656e7461746960448201526d6f6e206973206e6f74205555505360901b6064820152608490fd5b979192939695949703610bc55750610af082611684565b7fbc7cd75a20ee27fd9adebab32041f755214dbc6bffa90cc0225b39da2e5c2d3b8780a285845115801590610bbd575b610b2e575b50505050505080f35b80610ba796845196610b3f8861112b565b602788527f416464726573733a206c6f772d6c6576656c2064656c65676174652063616c6c87890152660819985a5b195960ca1b868901525190845af4913d15610bb3573d610b99610b9082611185565b92519283611163565b81528681943d92013e61183a565b50388080808085610b25565b506060925061183a565b506001610b20565b835162461bcd60e51b8152908101859052602960248201527f45524331393637557067726164653a20756e737570706f727465642070726f786044820152681a58589b195555525160ba1b6064820152608490fd5b9091508881813d8311610c46575b610c328183611163565b81010312610c4257519038610a7a565b8a80fd5b503d610c28565b8480fd5b50346101265760208060031936011261035757610c6c6110e3565b916001600160a01b037f00000000000000000000000000000000000000000000000000000000000000008116610ca4308214156111ca565b610cc16000805160206118cc83398151915291838354161461122b565b610cc961128c565b8251908482019282841067ffffffffffffffff851117610e2e578385528883527f4910fdfa16fed3260ed0e7147f7cc6da11a60208b5b9406d12a635614ffd91435460ff1615610d23575050505050506101239150611684565b869293949596169085516352d1902d60e01b815287818a81865afa8a9181610dff575b50610da557865162461bcd60e51b8152808a01899052602e60248201527f45524331393637557067726164653a206e657720696d706c656d656e7461746960448201526d6f6e206973206e6f74205555505360901b6064820152608490fd5b979192939695949703610bc55750610dbc82611684565b7fbc7cd75a20ee27fd9adebab32041f755214dbc6bffa90cc0225b39da2e5c2d3b8780a285845115801590610df857610b2e5750505050505080f35b5080610b20565b9091508881813d8311610e27575b610e178183611163565b81010312610c4257519038610d46565b503d610e0d565b634e487b7160e01b895260418852602489fd5b50919034610443578260031936011261044357610e5c6110c8565b90336001600160a01b03831603610e785790610123913561155f565b608490602085519162461bcd60e51b8352820152602f60248201527f416363657373436f6e74726f6c3a2063616e206f6e6c792072656e6f756e636560448201526e103937b632b9903337b91039b2b63360891b6064820152fd5b5090346101265781600319360112610126573590610eef6110c8565b908284526065602052610f0760018286200154611454565b828452606560209081528185206001600160a01b039093168086529290528084205460ff1615610f35578380f35b82845260656020528084208285526020528320600160ff1982541617905533917f2f8788117e7eff1d82e926ec794901d17c78024a50270940304540a733656f0d8480a43880808380f35b5090346101265760203660031901126101265781602093600192358152606585522001549051908152f35b50823461094e5760a036600319011261094e57610fc66110c8565b506064359060ff821680920361094e57610fe46084356044356111a1565b91604d811161103357600a0a90811561102057916110189161ffff856127109560209835815260fb895220541691046111a1565b049051908152f35b634e487b7160e01b815260128552602490fd5b634e487b7160e01b825260118552602482fd5b509034610126576020366003190112610126578160209361ffff9235815260fb85522054831c169051908152f35b84908434610126576020366003190112610126573563ffffffff60e01b81168091036101265760209250637965db0b60e01b81149081156110b7575b5015158152f35b6301ffc9a760e01b149050836110b0565b602435906001600160a01b03821682036110de57565b600080fd5b600435906001600160a01b03821682036110de57565b60c0810190811067ffffffffffffffff82111761111557604052565b634e487b7160e01b600052604160045260246000fd5b6060810190811067ffffffffffffffff82111761111557604052565b6080810190811067ffffffffffffffff82111761111557604052565b90601f8019910116810190811067ffffffffffffffff82111761111557604052565b67ffffffffffffffff811161111557601f01601f191660200190565b818102929181159184041417156111b457565b634e487b7160e01b600052601160045260246000fd5b156111d157565b60405162461bcd60e51b815260206004820152602c60248201527f46756e6374696f6e206d7573742062652063616c6c6564207468726f7567682060448201526b19195b1959d85d1958d85b1b60a21b6064820152608490fd5b1561123257565b60405162461bcd60e51b815260206004820152602c60248201527f46756e6374696f6e206d7573742062652063616c6c6564207468726f7567682060448201526b6163746976652070726f787960a01b6064820152608490fd5b3360009081527fffdfc1249c027f9191656349feb0761381bb32c9f557e01f419fd08754bf5a1b602090815260408083205490929060ff16156112ce57505050565b6112d73361173b565b835190826112e483611147565b604283528483019360603686378351156114405760308553835190600191600110156114405790607860218601536041915b8183116113d2575050506113905761066593859361137a9361136b6048946106b19951988576020b1b1b2b9b9a1b7b73a3937b61d1030b1b1b7bab73a1604d1b8b978801528251928391603789019101611635565b01036028810185520183611163565b5162461bcd60e51b815291829160048301611658565b60648486519062461bcd60e51b825280600483015260248201527f537472696e67733a20686578206c656e67746820696e73756666696369656e746044820152fd5b909192600f8116601081101561142c576f181899199a1a9b1b9c1cb0b131b232b360811b901a6114028588611714565b5360041c92801561141857600019019190611316565b634e487b7160e01b82526011600452602482fd5b634e487b7160e01b83526032600452602483fd5b634e487b7160e01b81526032600452602490fd5b600081815260209060658252604092838220338352835260ff84832054161561147d5750505050565b6114863361173b565b84519161149283611147565b604283528483019360603686378351156114405760308553835190600191600110156114405790607860218601536041915b818311611519575050506113905761066593859361137a9361136b6048946106b19951988576020b1b1b2b9b9a1b7b73a3937b61d1030b1b1b7bab73a1604d1b8b978801528251928391603789019101611635565b909192600f8116601081101561142c576f181899199a1a9b1b9c1cb0b131b232b360811b901a6115498588611714565b5360041c928015611418576000190191906114c4565b906000918083526065602052604083209160018060a01b03169182845260205260ff60408420541661159057505050565b8083526065602052604083208284526020526040832060ff1981541690557ff6391f5c32d9c69d2a47ea670b442974b53935d1edc7fd64eb21e047a839171b339380a4565b156115dc57565b60405162461bcd60e51b815260206004820152602b60248201527f496e697469616c697a61626c653a20636f6e7472616374206973206e6f74206960448201526a6e697469616c697a696e6760a81b6064820152608490fd5b60005b8381106116485750506000910152565b8181015183820152602001611638565b604091602082526116788151809281602086015260208686019101611635565b601f01601f1916010190565b803b156116b9576000805160206118cc83398151915280546001600160a01b0319166001600160a01b03909216919091179055565b60405162461bcd60e51b815260206004820152602d60248201527f455243313936373a206e657720696d706c656d656e746174696f6e206973206e60448201526c1bdd08184818dbdb9d1c9858dd609a1b6064820152608490fd5b908151811015611725570160200190565b634e487b7160e01b600052603260045260246000fd5b604051906117488261112b565b602a8252602082016040368237825115611725576030905381516001906001101561172557607860218401536029905b8082116117cc5750506117885790565b606460405162461bcd60e51b815260206004820152602060248201527f537472696e67733a20686578206c656e67746820696e73756666696369656e746044820152fd5b9091600f81166010811015611825576f181899199a1a9b1b9c1cb0b131b232b360811b901a6117fb8486611714565b5360041c918015611810576000190190611778565b60246000634e487b7160e01b81526011600452fd5b60246000634e487b7160e01b81526032600452fd5b9192901561189c575081511561184e575090565b3b156118575790565b60405162461bcd60e51b815260206004820152601d60248201527f416464726573733a2063616c6c20746f206e6f6e2d636f6e74726163740000006044820152606490fd5b8251909150156118af5750805190602001fd5b60405162461bcd60e51b81529081906106b1906004830161165856fe360894a13ba1a3210667c828492db98dca3e2076cc3735a920a3ca505d382bbca2646970667358221220dfa499a62d6c76543c59d6085426d48600e4a13d0619295536b6236753eb61a964736f6c63430008180033",
  "linkReferences": {},
  "deployedLinkReferences": {}
}