{
  "_format": "hh-sol-artifact-1",
  "contractName": "CollateralManager",
  "sourceName": "src/core/CollateralManager.sol",
  "abi": [
    {
      "inputs": [],
      "stateMutability": "nonpayable",
      "type": "constructor"
    },
    {
      "anonymous": false,
      "inputs": [
        {
          "indexed": false,
          "internalType": "address",
          "name": "previousAdmin",
          "type": "address"
        },
        {
          "indexed": false,
          "internalType": "address",
          "name": "newAdmin",
          "type": "address"
        }
      ],
      "name": "AdminChanged",
      "type": "event"
    },
    {
      "anonymous": false,
      "inputs": [
        {
          "indexed": true,
          "internalType": "address",
          "name": "asset",
          "type": "address"
        },
        {
          "indexed": false,
          "internalType": "bool",
          "name": "enabled",
          "type": "bool"
        },
        {
          "indexed": false,
          "internalType": "uint16",
          "name": "ltvBps",
          "type": "uint16"
        },
        {
          "indexed": false,
          "internalType": "address",
          "name": "oracle",
          "type": "address"
        },
        {
          "indexed": false,
          "internalType": "uint8",
          "name": "decimals",
          "type": "uint8"
        }
      ],
      "name": "AssetConfigSet",
      "type": "event"
    },
    {
      "anonymous": false,
      "inputs": [
        {
          "indexed": true,
          "internalType": "address",
          "name": "beacon",
          "type": "address"
        }
      ],
      "name": "BeaconUpgraded",
      "type": "event"
    },
    {
      "anonymous": false,
      "inputs": [
        {
          "indexed": false,
          "internalType": "uint8",
          "name": "version",
          "type": "uint8"
        }
      ],
      "name": "Initialized",
      "type": "event"
    },
    {
      "anonymous": false,
      "inputs": [
        {
          "indexed": true,
          "internalType": "bytes32",
          "name": "role",
          "type": "bytes32"
        },
        {
          "indexed": true,
          "internalType": "bytes32",
          "name": "previousAdminRole",
          "type": "bytes32"
        },
        {
          "indexed": true,
          "internalType": "bytes32",
          "name": "newAdminRole",
          "type": "bytes32"
        }
      ],
      "name": "RoleAdminChanged",
      "type": "event"
    },
    {
      "anonymous": false,
      "inputs": [
        {
          "indexed": true,
          "internalType": "bytes32",
          "name": "role",
          "type": "bytes32"
        },
        {
          "indexed": true,
          "internalType": "address",
          "name": "account",
          "type": "address"
        },
        {
          "indexed": true,
          "internalType": "address",
          "name": "sender",
          "type": "address"
        }
      ],
      "name": "RoleGranted",
      "type": "event"
    },
    {
      "anonymous": false,
      "inputs": [
        {
          "indexed": true,
          "internalType": "bytes32",
          "name": "role",
          "type": "bytes32"
        },
        {
          "indexed": true,
          "internalType": "address",
          "name": "account",
          "type": "address"
        },
        {
          "indexed": true,
          "internalType": "address",
          "name": "sender",
          "type": "address"
        }
      ],
      "name": "RoleRevoked",
      "type": "event"
    },
    {
      "anonymous": false,
      "inputs": [
        {
          "indexed": true,
          "internalType": "address",
          "name": "implementation",
          "type": "address"
        }
      ],
      "name": "Upgraded",
      "type": "event"
    },
    {
      "inputs": [],
      "name": "DEFAULT_ADMIN_ROLE",
      "outputs": [
        {
          "internalType": "bytes32",
          "name": "",
          "type": "bytes32"
        }
      ],
      "stateMutability": "view",
      "type": "function"
    },
    {
      "inputs": [
        {
          "internalType": "address",
          "name": "asset",
          "type": "address"
        },
        {
          "internalType": "uint256",
          "name": "amount",
          "type": "uint256"
        }
      ],
      "name": "assetValueInZUSD",
      "outputs": [
        {
          "internalType": "uint256",
          "name": "valueZ18",
          "type": "uint256"
        }
      ],
      "stateMutability": "view",
      "type": "function"
    },
    {
      "inputs": [
        {
          "internalType": "address",
          "name": "asset",
          "type": "address"
        },
        {
          "internalType": "uint256",
          "name": "amount",
          "type": "uint256"
        }
      ],
      "name": "collateralValueInZUSD",
      "outputs": [
        {
          "internalType": "uint256",
          "name": "collatZ18",
          "type": "uint256"
        }
      ],
      "stateMutability": "view",
      "type": "function"
    },
    {
      "inputs": [
        {
          "internalType": "address",
          "name": "",
          "type": "address"
        }
      ],
      "name": "config",
      "outputs": [
        {
          "internalType": "bool",
          "name": "enabled",
          "type": "bool"
        },
        {
          "internalType": "uint16",
          "name": "ltvBps",
          "type": "uint16"
        },
        {
          "internalType": "address",
          "name": "oracle",
          "type": "address"
        },
        {
          "internalType": "uint8",
          "name": "decimals",
          "type": "uint8"
        }
      ],
      "stateMutability": "view",
      "type": "function"
    },
    {
      "inputs": [],
      "name": "getAssets",
      "outputs": [
        {
          "internalType": "address[]",
          "name": "",
          "type": "address[]"
        }
      ],
      "stateMutability": "view",
      "type": "function"
    },
    {
      "inputs": [
        {
          "internalType": "bytes32",
          "name": "role",
          "type": "bytes32"
        }
      ],
      "name": "getRoleAdmin",
      "outputs": [
        {
          "internalType": "bytes32",
          "name": "",
          "type": "bytes32"
        }
      ],
      "stateMutability": "view",
      "type": "function"
    },
    {
      "inputs": [
        {
          "internalType": "bytes32",
          "name": "role",
          "type": "bytes32"
        },
        {
          "internalType": "address",
          "name": "account",
          "type": "address"
        }
      ],
      "name": "grantRole",
      "outputs": [],
      "stateMutability": "nonpayable",
      "type": "function"
    },
    {
      "inputs": [
        {
          "internalType": "bytes32",
          "name": "role",
          "type": "bytes32"
        },
        {
          "internalType": "address",
          "name": "account",
          "type": "address"
        }
      ],
      "name": "hasRole",
      "outputs": [
        {
          "internalType": "bool",
          "name": "",
          "type": "bool"
        }
      ],
      "stateMutability": "view",
      "type": "function"
    },
    {
      "inputs": [
        {
          "internalType": "address",
          "name": "admin",
          "type": "address"
        },
        {
          "internalType": "address",
          "name": "_oracleRouter",
          "type": "address"
        }
      ],
      "name": "initialize",
      "outputs": [],
      "stateMutability": "nonpayable",
      "type": "function"
    },
    {
      "inputs": [],
      "name": "oracleRouter",
      "outputs": [
        {
          "internalType": "contract IOracleRouter",
          "name": "",
          "type": "address"
        }
      ],
      "stateMutability": "view",
      "type": "function"
    },
    {
      "inputs": [],
      "name": "proxiableUUID",
      "outputs": [
        {
          "internalType": "bytes32",
          "name": "",
          "type": "bytes32"
        }
      ],
      "stateMutability": "view",
      "type": "function"
    },
    {
      "inputs": [
        {
          "internalType": "bytes32",
          "name": "role",
          "type": "bytes32"
        },
        {
          "internalType": "address",
          "name": "account",
          "type": "address"
        }
      ],
      "name": "renounceRole",
      "outputs": [],
      "stateMutability": "nonpayable",
      "type": "function"
    },
    {
      "inputs": [
        {
          "internalType": "bytes32",
          "name": "role",
          "type": "bytes32"
        },
        {
          "internalType": "address",
          "name": "account",
          "type": "address"
        }
      ],
      "name": "revokeRole",
      "outputs": [],
      "stateMutability": "nonpayable",
      "type": "function"
    },
    {
      "inputs": [
        {
          "internalType": "address",
          "name": "asset",
          "type": "address"
        },
        {
          "internalType": "bool",
          "name": "enabled",
          "type": "bool"
        },
        {
          "internalType": "uint16",
          "name": "ltvBps",
          "type": "uint16"
        },
        {
          "internalType": "address",
          "name": "oracle",
          "type": "address"
        },
        {
          "internalType": "uint8",
          "name": "decimals_",
          "type": "uint8"
        }
      ],
      "name": "setAssetConfig",
      "outputs": [],
      "stateMutability": "nonpayable",
      "type": "function"
    },
    {
      "inputs": [
        {
          "internalType": "bytes4",
          "name": "interfaceId",
          "type": "bytes4"
        }
      ],
      "name": "supportsInterface",
      "outputs": [
        {
          "internalType": "bool",
          "name": "",
          "type": "bool"
        }
      ],
      "stateMutability": "view",
      "type": "function"
    },
    {
      "inputs": [
        {
          "internalType": "address",
          "name": "newImplementation",
          "type": "address"
        }
      ],
      "name": "upgradeTo",
      "outputs": [],
      "stateMutability": "nonpayable",
      "type": "function"
    },
    {
      "inputs": [
        {
          "internalType": "address",
          "name": "newImplementation",
          "type": "address"
        },
        {
          "internalType": "bytes",
          "name": "data",
          "type": "bytes"
        }
      ],
      "name": "upgradeToAndCall",
      "outputs": [],
      "stateMutability": "payable",
      "type": "function"
    }
  ],
  "bytecode": "0x60a080604052346100dc57306080526000549060ff8260081c1661008a575060ff8082160361004f575b604051611b9590816100e282396080518181816106e40152818161080b0152610d210152f35b60ff90811916176000557f7f26b83ff96e1f2b6a682f133852f6798a09c465da95921460cefb3847402498602060405160ff8152a138610029565b62461bcd60e51b815260206004820152602760248201527f496e697469616c697a61626c653a20636f6e747261637420697320696e697469604482015266616c697a696e6760c81b6064820152608490fd5b600080fdfe608060409080825260048036101561001657600080fd5b600091823560e01c90816301ffc9a714611173575080630e68ec95146110ea578063228245fd14611059578063248a9ca31461102d5780632f2ff15d14610f7f57806336568abe14610eef5780633659cfe614610cfa578063485cc95514610a8e5780634f1ef2861461079157806352d1902d146106cf57806355a29e91146106a557806367e4ac2c146105dc578063687fc30e146105ac57806391d1485414610564578063a217fddf14610549578063d547741f146105075763e53e169b146100df57600080fd5b346105035760a0366003190112610503576100f86111c7565b92602491823590811515928383036104ff576044359361ffff85168086036104fb57606435986001600160a01b0394858b1690818c036104f7576084359660ff8816938489036104f357908c92917f8aa855a911518ecfbe5bc3088c8f3dda7badf130faaf8ace33fdc33828e1816780855260ff8a6020966065885281812033825288522054161561032e5750169a8b8d5261012f8352878d20805460ff81161561027b575b505050509185939161012d8c9d96948c7f98d2742e4f0bbbe831f65a5f8550e92906e8417307aa96208eaa057b55d681029d9e6102759b9a51976101e1896111f8565b8852828801968752888801948552606088019586525252848d20935115159260ff62ffff008654925160081b16926301000000600160b81b03905160181b16938160b81b905160b81b1694169067ffffffffffffffff60c01b161717171790555194859485929360ff91959461ffff60609460808701981515875216602086015260018060a01b0316604085015216910152565b0390a280f35b60019060ff191617905561012e908154926801000000000000000084101561031d576001840180845584101561030c5750508c527fbdaadd9f750d0166045bf387a364eadd28ba243e04512a47282aa5147a68e37f0180546001600160a01b0319168b1790558161012d827f98d2742e4f0bbbe831f65a5f8550e92906e8417307aa96208eaa057b55d6810261019e565b634e487b7160e01b8f52603290528dfd5b634e487b7160e01b8f52604190528dfd5b899150848f8f869361033f336119af565b909186519261034d846111f8565b604284528584019460603687378451156104e15760308653845190600191600110156104cf5790607860218701536041915b81831161046657505050610425575061042193869361040d936103fe6048946103d59a519a8576020b1b1b2b9b9a1b7b73a3937b61d1030b1b1b7bab73a1604d1b8d9788015282519283916037890191016118a9565b8401917001034b99036b4b9b9b4b733903937b6329607d1b6037840152518093868401906118a9565b01036028810187520185611246565b5162461bcd60e51b815292839283016118cc565b0390fd5b9250505081606494519362461bcd60e51b85528401528201527f537472696e67733a20686578206c656e67746820696e73756666696369656e746044820152fd5b909192600f811660108110156104bd576f181899199a1a9b1b9c1cb0b131b232b360811b901a6104968589611988565b53891c9280156104ab5760001901919061037f565b634e487b7160e01b825260118a528482fd5b634e487b7160e01b835260328b528583fd5b634e487b7160e01b8152603289528390fd5b634e487b7160e01b8152603288529050fd5b8c80fd5b8a80fd5b8780fd5b8580fd5b5080fd5b508234610545578060031936011261054557610542913561053d600161052b6111e2565b938387526065602052862001546116c8565b6117d3565b80f35b8280fd5b82843461050357816003193601126105035751908152602090f35b508290346105455781600319360112610545578160209360ff926105866111e2565b90358252606586528282206001600160a01b039091168252855220549151911615158152f35b8284346105035780600319360112610503576020906105d56105cc6111c7565b6024359061136f565b9051908152f35b5050346106a257806003193601126106a25790805191829061012e918254808652602080960190819484527fbdaadd9f750d0166045bf387a364eadd28ba243e04512a47282aa5147a68e37f90845b8181106106855750505081610641910382611246565b83519485948186019282875251809352850193925b82811061066557505050500390f35b83516001600160a01b031685528695509381019392810192600101610656565b82546001600160a01b03168452928801926001928301920161062b565b80fd5b8284346105035781600319360112610503576101305490516001600160a01b039091168152602090f35b5090346106a257806003193601126106a257507f00000000000000000000000000000000000000000000000000000000000000006001600160a01b031630036107295760208251600080516020611b408339815191528152f35b6020608492519162461bcd60e51b8352820152603860248201527f555550535570677261646561626c653a206d757374206e6f742062652063616c60448201527f6c6564207468726f7567682064656c656761746563616c6c00000000000000006064820152fd5b508280600319360112610545576107a66111c7565b906024359067ffffffffffffffff8211610a8a5736602383011215610a8a57818401356107d281611268565b6107de83519182611246565b81815286602094858301933660248284010111610545578060248893018637830101526001600160a01b037f0000000000000000000000000000000000000000000000000000000000000000811690610839308314156112ad565b610856600080516020611b4083398151915292828454161461130e565b61085e611500565b7f4910fdfa16fed3260ed0e7147f7cc6da11a60208b5b9406d12a635614ffd91435460ff16156108985750505050505061054291506118f8565b869293949596169085516352d1902d60e01b815287818a81865afa8a9181610a5b575b5061091a57865162461bcd60e51b8152808a01899052602e60248201527f45524331393637557067726164653a206e657720696d706c656d656e7461746960448201526d6f6e206973206e6f74205555505360901b6064820152608490fd5b979192939695949703610a065750610931826118f8565b7fbc7cd75a20ee27fd9adebab32041f755214dbc6bffa90cc0225b39da2e5c2d3b8780a2858451158015906109fe575b61096f575b50505050505080f35b806109e8968451966109808861122a565b602788527f416464726573733a206c6f772d6c6576656c2064656c65676174652063616c6c87890152660819985a5b195960ca1b868901525190845af4913d156109f4573d6109da6109d182611268565b92519283611246565b81528681943d92013e611aae565b50818080808085610966565b5060609250611aae565b506001610961565b835162461bcd60e51b8152908101859052602960248201527f45524331393637557067726164653a20756e737570706f727465642070726f786044820152681a58589b195555525160ba1b6064820152608490fd5b9091508881813d8311610a83575b610a738183611246565b810103126104f75751908b6108bb565b503d610a69565b8480fd5b50829034610545578160031936011261054557610aa96111c7565b90610ab26111e2565b84549260ff808560081c161593848095610cee575b8015610cd8575b15610c7e575060ff1985811660011788559484610c6d575b50610b1181885460081c16610afa81611849565b610b0381611849565b610b0c81611849565b611849565b600160fb55868052606560209081528688206001600160a01b03938416808a529082528789205491969091831615610c26575b7f8aa855a911518ecfbe5bc3088c8f3dda7badf130faaf8ace33fdc33828e1816792838a5260658852888a20838b528852888a20541615610bdd575b50505061013091166bffffffffffffffffffffffff60a01b825416179055610ba6578280f35b7f7f26b83ff96e1f2b6a682f133852f6798a09c465da95921460cefb38474024989161ff001984541684555160018152a181808280f35b82895260658752878920828a5287526001888a209182541617905533917f2f8788117e7eff1d82e926ec794901d17c78024a50270940304540a733656f0d8980a4868080610b80565b88805260658752878920828a52875287892060018282541617905533828a7f2f8788117e7eff1d82e926ec794901d17c78024a50270940304540a733656f0d8180a4610b44565b61ffff191661010117875587610ae6565b608490602088519162461bcd60e51b8352820152602e60248201527f496e697469616c697a61626c653a20636f6e747261637420697320616c72656160448201526d191e481a5b9a5d1a585b1a5e995960921b6064820152fd5b50303b158015610ace5750600182871614610ace565b50600182871610610ac7565b50823461054557602080600319360112610eeb57610d166111c7565b916001600160a01b037f00000000000000000000000000000000000000000000000000000000000000008116610d4e308214156112ad565b610d6b600080516020611b4083398151915291838354161461130e565b610d73611500565b8251908482019282841067ffffffffffffffff851117610ed8578385528883527f4910fdfa16fed3260ed0e7147f7cc6da11a60208b5b9406d12a635614ffd91435460ff1615610dcd5750505050505061054291506118f8565b869293949596169085516352d1902d60e01b815287818a81865afa8a9181610ea9575b50610e4f57865162461bcd60e51b8152808a01899052602e60248201527f45524331393637557067726164653a206e657720696d706c656d656e7461746960448201526d6f6e206973206e6f74205555505360901b6064820152608490fd5b979192939695949703610a065750610e66826118f8565b7fbc7cd75a20ee27fd9adebab32041f755214dbc6bffa90cc0225b39da2e5c2d3b8780a285845115801590610ea25761096f5750505050505080f35b5080610961565b9091508881813d8311610ed1575b610ec18183611246565b810103126104f75751908b610df0565b503d610eb7565b634e487b7160e01b895260418852602489fd5b8380fd5b5034610503578260031936011261050357610f086111e2565b90336001600160a01b03831603610f24579061054291356117d3565b608490602085519162461bcd60e51b8352820152602f60248201527f416363657373436f6e74726f6c3a2063616e206f6e6c792072656e6f756e636560448201526e103937b632b9903337b91039b2b63360891b6064820152fd5b508290346105455781600319360112610545573590610f9c6111e2565b908284526065602052610fb4600182862001546116c8565b828452606560209081528185206001600160a01b039093168086529290528084205460ff1615610fe2578380f35b82845260656020528084208285526020528320600160ff1982541617905533917f2f8788117e7eff1d82e926ec794901d17c78024a50270940304540a733656f0d8480a48180808380f35b508290346105455760203660031901126105455781602093600192358152606585522001549051908152f35b8284346105035780600319360112610503576127106110e260209361107c6111c7565b6001600160a01b03818116835261012d8752918590208551916110d9916110a2846111f8565b549260ff841615158152606060ff61ffff958b840197878260081c1689528160181c168b85015260b81c169101526024359061136f565b91511690611284565b049051908152f35b828434610503576020366003190112610503576001600160a01b039161116f908290846111156111c7565b16815261012d60205220549151928260ff859460b81c16918160181c169060ff61ffff8260081c16911685929360ff91959461ffff60609460808701981515875216602086015260018060a01b0316604085015216910152565b0390f35b91905034610545576020366003190112610545573563ffffffff60e01b81168091036105455760209250637965db0b60e01b81149081156111b6575b5015158152f35b6301ffc9a760e01b149050836111af565b600435906001600160a01b03821682036111dd57565b600080fd5b602435906001600160a01b03821682036111dd57565b6080810190811067ffffffffffffffff82111761121457604052565b634e487b7160e01b600052604160045260246000fd5b6060810190811067ffffffffffffffff82111761121457604052565b90601f8019910116810190811067ffffffffffffffff82111761121457604052565b67ffffffffffffffff811161121457601f01601f191660200190565b8181029291811591840414171561129757565b634e487b7160e01b600052601160045260246000fd5b156112b457565b60405162461bcd60e51b815260206004820152602c60248201527f46756e6374696f6e206d7573742062652063616c6c6564207468726f7567682060448201526b19195b1959d85d1958d85b1b60a21b6064820152608490fd5b1561131557565b60405162461bcd60e51b815260206004820152602c60248201527f46756e6374696f6e206d7573742062652063616c6c6564207468726f7567682060448201526b6163746976652070726f787960a01b6064820152608490fd5b6001600160a01b03908116600081815261012d60205260408082208151929592949061139a866111f8565b549460ff8616158015825261ffff8760081c16602083015260ff606085840193858a60181c168552019760b81c1687526114cb579082915116936024825180968193632021fa9960e11b835260048301525afa80156114c15785938691611481575b50611450575060ff9161140e91611284565b915116604d811161143c57600a0a91821561142857500490565b634e487b7160e01b81526012600452602490fd5b634e487b7160e01b83526011600452602483fd5b5162461bcd60e51b815260206004820152600b60248201526a7374616c6520707269636560a81b6044820152606490fd5b809450828092503d83116114ba575b61149a8183611246565b81010312610a8a57602083519301519283151584036104ff5792386113fc565b503d611490565b81513d87823e3d90fd5b825162461bcd60e51b815260206004820152600e60248201526d185cdcd95d08191a5cd8589b195960921b6044820152606490fd5b3360009081527fffdfc1249c027f9191656349feb0761381bb32c9f557e01f419fd08754bf5a1b602090815260408083205490929060ff161561154257505050565b61154b336119af565b83519082611558836111f8565b604283528483019360603686378351156116b45760308553835190600191600110156116b45790607860218601536041915b81831161164657505050611604576103d59385936115ee936115df6048946104219951988576020b1b1b2b9b9a1b7b73a3937b61d1030b1b1b7bab73a1604d1b8b9788015282519283916037890191016118a9565b01036028810185520183611246565b5162461bcd60e51b8152918291600483016118cc565b60648486519062461bcd60e51b825280600483015260248201527f537472696e67733a20686578206c656e67746820696e73756666696369656e746044820152fd5b909192600f811660108110156116a0576f181899199a1a9b1b9c1cb0b131b232b360811b901a6116768588611988565b5360041c92801561168c5760001901919061158a565b634e487b7160e01b82526011600452602482fd5b634e487b7160e01b83526032600452602483fd5b634e487b7160e01b81526032600452602490fd5b600081815260209060658252604092838220338352835260ff8483205416156116f15750505050565b6116fa336119af565b845191611706836111f8565b604283528483019360603686378351156116b45760308553835190600191600110156116b45790607860218601536041915b81831161178d57505050611604576103d59385936115ee936115df6048946104219951988576020b1b1b2b9b9a1b7b73a3937b61d1030b1b1b7bab73a1604d1b8b9788015282519283916037890191016118a9565b909192600f811660108110156116a0576f181899199a1a9b1b9c1cb0b131b232b360811b901a6117bd8588611988565b5360041c92801561168c57600019019190611738565b906000918083526065602052604083209160018060a01b03169182845260205260ff60408420541661180457505050565b8083526065602052604083208284526020526040832060ff1981541690557ff6391f5c32d9c69d2a47ea670b442974b53935d1edc7fd64eb21e047a839171b339380a4565b1561185057565b60405162461bcd60e51b815260206004820152602b60248201527f496e697469616c697a61626c653a20636f6e7472616374206973206e6f74206960448201526a6e697469616c697a696e6760a81b6064820152608490fd5b60005b8381106118bc5750506000910152565b81810151838201526020016118ac565b604091602082526118ec81518092816020860152602086860191016118a9565b601f01601f1916010190565b803b1561192d57600080516020611b4083398151915280546001600160a01b0319166001600160a01b03909216919091179055565b60405162461bcd60e51b815260206004820152602d60248201527f455243313936373a206e657720696d706c656d656e746174696f6e206973206e60448201526c1bdd08184818dbdb9d1c9858dd609a1b6064820152608490fd5b908151811015611999570160200190565b634e487b7160e01b600052603260045260246000fd5b604051906119bc8261122a565b602a8252602082016040368237825115611999576030905381516001906001101561199957607860218401536029905b808211611a405750506119fc5790565b606460405162461bcd60e51b815260206004820152602060248201527f537472696e67733a20686578206c656e67746820696e73756666696369656e746044820152fd5b9091600f81166010811015611a99576f181899199a1a9b1b9c1cb0b131b232b360811b901a611a6f8486611988565b5360041c918015611a845760001901906119ec565b60246000634e487b7160e01b81526011600452fd5b60246000634e487b7160e01b81526032600452fd5b91929015611b105750815115611ac2575090565b3b15611acb5790565b60405162461bcd60e51b815260206004820152601d60248201527f416464726573733a2063616c6c20746f206e6f6e2d636f6e74726163740000006044820152606490fd5b825190915015611b235750805190602001fd5b60405162461bcd60e51b815290819061042190600483016118cc56fe360894a13ba1a3210667c828492db98dca3e2076cc3735a920a3ca505d382bbca26469706673582212206578407af38697e2404b0b1edb5aa3879757d5ef5774b5ddadd4bf28ee3e36d064736f6c63430008180033",
  "linkReferences": {},
  "deployedLinkReferences": {}
}