{
  "_format": "hh-sol-artifact-1",
  "contractName": "FeeSplitterSpoke",
  "sourceName": "src/core/FeeSplitterSpoke.sol",
  "abi": [
    {
      "inputs": [],
      "stateMutability": "nonpayable",
      "type": "constructor"
    },
    {
      "anonymous": false,
      "inputs": [
        {
          "indexed": false,
          "internalType": "address",
          "name": "previousAdmin",
          "type": "address"
        },
        {
          "indexed": false,
          "internalType": "address",
          "name": "newAdmin",
          "type": "address"
        }
      ],
      "name": "AdminChanged",
      "type": "event"
    },
    {
      "anonymous": false,
      "inputs": [
        {
          "indexed": true,
          "internalType": "address",
          "name": "beacon",
          "type": "address"
        }
      ],
      "name": "BeaconUpgraded",
      "type": "event"
    },
    {
      "anonymous": false,
      "inputs": [
        {
          "indexed": false,
          "internalType": "uint256",
          "name": "feeZ",
          "type": "uint256"
        },
        {
          "indexed": false,
          "internalType": "uint256",
          "name": "toTreasury",
          "type": "uint256"
        },
        {
          "indexed": false,
          "internalType": "uint256",
          "name": "toInsurance",
          "type": "uint256"
        },
        {
          "indexed": false,
          "internalType": "uint256",
          "name": "toReferral",
          "type": "uint256"
        }
      ],
      "name": "FeeSplit",
      "type": "event"
    },
    {
      "anonymous": false,
      "inputs": [
        {
          "indexed": false,
          "internalType": "uint8",
          "name": "version",
          "type": "uint8"
        }
      ],
      "name": "Initialized",
      "type": "event"
    },
    {
      "anonymous": false,
      "inputs": [
        {
          "indexed": true,
          "internalType": "bytes32",
          "name": "role",
          "type": "bytes32"
        },
        {
          "indexed": true,
          "internalType": "bytes32",
          "name": "previousAdminRole",
          "type": "bytes32"
        },
        {
          "indexed": true,
          "internalType": "bytes32",
          "name": "newAdminRole",
          "type": "bytes32"
        }
      ],
      "name": "RoleAdminChanged",
      "type": "event"
    },
    {
      "anonymous": false,
      "inputs": [
        {
          "indexed": true,
          "internalType": "bytes32",
          "name": "role",
          "type": "bytes32"
        },
        {
          "indexed": true,
          "internalType": "address",
          "name": "account",
          "type": "address"
        },
        {
          "indexed": true,
          "internalType": "address",
          "name": "sender",
          "type": "address"
        }
      ],
      "name": "RoleGranted",
      "type": "event"
    },
    {
      "anonymous": false,
      "inputs": [
        {
          "indexed": true,
          "internalType": "bytes32",
          "name": "role",
          "type": "bytes32"
        },
        {
          "indexed": true,
          "internalType": "address",
          "name": "account",
          "type": "address"
        },
        {
          "indexed": true,
          "internalType": "address",
          "name": "sender",
          "type": "address"
        }
      ],
      "name": "RoleRevoked",
      "type": "event"
    },
    {
      "anonymous": false,
      "inputs": [
        {
          "indexed": true,
          "internalType": "address",
          "name": "implementation",
          "type": "address"
        }
      ],
      "name": "Upgraded",
      "type": "event"
    },
    {
      "inputs": [],
      "name": "DEFAULT_ADMIN_ROLE",
      "outputs": [
        {
          "internalType": "bytes32",
          "name": "",
          "type": "bytes32"
        }
      ],
      "stateMutability": "view",
      "type": "function"
    },
    {
      "inputs": [
        {
          "internalType": "bytes32",
          "name": "role",
          "type": "bytes32"
        }
      ],
      "name": "getRoleAdmin",
      "outputs": [
        {
          "internalType": "bytes32",
          "name": "",
          "type": "bytes32"
        }
      ],
      "stateMutability": "view",
      "type": "function"
    },
    {
      "inputs": [
        {
          "internalType": "bytes32",
          "name": "role",
          "type": "bytes32"
        },
        {
          "internalType": "address",
          "name": "account",
          "type": "address"
        }
      ],
      "name": "grantRole",
      "outputs": [],
      "stateMutability": "nonpayable",
      "type": "function"
    },
    {
      "inputs": [
        {
          "internalType": "bytes32",
          "name": "role",
          "type": "bytes32"
        },
        {
          "internalType": "address",
          "name": "account",
          "type": "address"
        }
      ],
      "name": "hasRole",
      "outputs": [
        {
          "internalType": "bool",
          "name": "",
          "type": "bool"
        }
      ],
      "stateMutability": "view",
      "type": "function"
    },
    {
      "inputs": [
        {
          "internalType": "address",
          "name": "admin",
          "type": "address"
        }
      ],
      "name": "initialize",
      "outputs": [],
      "stateMutability": "nonpayable",
      "type": "function"
    },
    {
      "inputs": [],
      "name": "proxiableUUID",
      "outputs": [
        {
          "internalType": "bytes32",
          "name": "",
          "type": "bytes32"
        }
      ],
      "stateMutability": "view",
      "type": "function"
    },
    {
      "inputs": [
        {
          "internalType": "bytes32",
          "name": "role",
          "type": "bytes32"
        },
        {
          "internalType": "address",
          "name": "account",
          "type": "address"
        }
      ],
      "name": "renounceRole",
      "outputs": [],
      "stateMutability": "nonpayable",
      "type": "function"
    },
    {
      "inputs": [
        {
          "internalType": "bytes32",
          "name": "role",
          "type": "bytes32"
        },
        {
          "internalType": "address",
          "name": "account",
          "type": "address"
        }
      ],
      "name": "revokeRole",
      "outputs": [],
      "stateMutability": "nonpayable",
      "type": "function"
    },
    {
      "inputs": [
        {
          "internalType": "uint256",
          "name": "feeZ",
          "type": "uint256"
        }
      ],
      "name": "splitFees",
      "outputs": [
        {
          "internalType": "uint256",
          "name": "toTreasury",
          "type": "uint256"
        },
        {
          "internalType": "uint256",
          "name": "toInsurance",
          "type": "uint256"
        },
        {
          "internalType": "uint256",
          "name": "toReferral",
          "type": "uint256"
        }
      ],
      "stateMutability": "nonpayable",
      "type": "function"
    },
    {
      "inputs": [
        {
          "internalType": "bytes4",
          "name": "interfaceId",
          "type": "bytes4"
        }
      ],
      "name": "supportsInterface",
      "outputs": [
        {
          "internalType": "bool",
          "name": "",
          "type": "bool"
        }
      ],
      "stateMutability": "view",
      "type": "function"
    },
    {
      "inputs": [
        {
          "internalType": "address",
          "name": "newImplementation",
          "type": "address"
        }
      ],
      "name": "upgradeTo",
      "outputs": [],
      "stateMutability": "nonpayable",
      "type": "function"
    },
    {
      "inputs": [
        {
          "internalType": "address",
          "name": "newImplementation",
          "type": "address"
        },
        {
          "internalType": "bytes",
          "name": "data",
          "type": "bytes"
        }
      ],
      "name": "upgradeToAndCall",
      "outputs": [],
      "stateMutability": "payable",
      "type": "function"
    }
  ],
  "bytecode": "0x60a080604052346100dc57306080526000549060ff8260081c1661008a575060ff8082160361004f575b60405161135b90816100e282396080518181816103bf015281816104e501526107920152f35b60ff90811916176000557f7f26b83ff96e1f2b6a682f133852f6798a09c465da95921460cefb3847402498602060405160ff8152a138610029565b62461bcd60e51b815260206004820152602760248201527f496e697469616c697a61626c653a20636f6e747261637420697320696e697469604482015266616c697a696e6760c81b6064820152608490fd5b600080fdfe608060408181526004908136101561001657600080fd5b600092833560e01c90816301ffc9a714610ac657508063248a9ca314610a9b5780632f2ff15d146109ee57806336568abe1461095c5780633659cfe61461076c5780634f1ef2861461046c57806352d1902d146103aa57806391d148541461036357806397046d99146102b5578063a217fddf14610296578063c4d66de8146100e85763d547741f146100a857600080fd5b346100e457806003193601126100e4576100e191356100dc60016100ca610b1a565b93838752606560205286200154610e8e565b610f99565b80f35b8280fd5b5090346100e4576020908160031936011261029257610105610b35565b845460ff8160081c161592838094610285575b801561026e575b15610214575060ff1981811660011787559083610203575b5061015160ff875460081c1661014c8161100f565b61100f565b858052606584528486206001600160a01b039092168087529184528486205460ff16156101ba575b5050610183578280f35b7f7f26b83ff96e1f2b6a682f133852f6798a09c465da95921460cefb38474024989161ff001984541684555160018152a138808280f35b8580526065845284862082875284526001858720918254161790553390857f2f8788117e7eff1d82e926ec794901d17c78024a50270940304540a733656f0d8180a43880610179565b61ffff191661010117865538610137565b855162461bcd60e51b8152908101859052602e60248201527f496e697469616c697a61626c653a20636f6e747261637420697320616c72656160448201526d191e481a5b9a5d1a585b1a5e995960921b6064820152608490fd5b50303b15801561011f5750600160ff83161461011f565b50600160ff831610610118565b8380fd5b8382346102b157816003193601126102b15751908152602090f35b5080fd5b50823461036057602036600319011261036057823591605083028381046050148415171561034d5760649004928381039080821161033a576060955060807f6de73609726ef2eed5f1c7d2933cf6ad038c7788f9d9fba204687c08e09d514591845190815286602082015283858201528588820152a181519384526020840152820152f35b634e487b7160e01b845260118652602484fd5b634e487b7160e01b835260118552602483fd5b80fd5b5090346100e457816003193601126100e4578160209360ff92610384610b1a565b90358252606586528282206001600160a01b039091168252855220549151911615158152f35b509134610360578060031936011261036057507f00000000000000000000000000000000000000000000000000000000000000006001600160a01b0316300361040457602082516000805160206113068339815191528152f35b6020608492519162461bcd60e51b8352820152603860248201527f555550535570677261646561626c653a206d757374206e6f742062652063616c60448201527f6c6564207468726f7567682064656c656761746563616c6c00000000000000006064820152fd5b50806003193601126100e457610480610b35565b906024359067ffffffffffffffff8211610768573660238301121561076857818401356104ac81610bbb565b6104b883519182610b99565b818152866020948583019336602482840101116100e4578060248893018637830101526001600160a01b037f000000000000000000000000000000000000000000000000000000000000000081169061051330831415610bd7565b610530600080516020611306833981519152928284541614610c38565b610538610c99565b7f4910fdfa16fed3260ed0e7147f7cc6da11a60208b5b9406d12a635614ffd91435460ff1615610572575050505050506100e191506110be565b869293949596169085516352d1902d60e01b815287818a81865afa8a9181610735575b506105f457865162461bcd60e51b8152808a01899052602e60248201527f45524331393637557067726164653a206e657720696d706c656d656e7461746960448201526d6f6e206973206e6f74205555505360901b6064820152608490fd5b9791929396959497036106e0575061060b826110be565b7fbc7cd75a20ee27fd9adebab32041f755214dbc6bffa90cc0225b39da2e5c2d3b8780a2858451158015906106d8575b610649575b50505050505080f35b806106c29684519661065a88610b4b565b602788527f416464726573733a206c6f772d6c6576656c2064656c65676174652063616c6c87890152660819985a5b195960ca1b868901525190845af4913d156106ce573d6106b46106ab82610bbb565b92519283610b99565b81528681943d92013e611274565b50388080808085610640565b5060609250611274565b50600161063b565b835162461bcd60e51b8152908101859052602960248201527f45524331393637557067726164653a20756e737570706f727465642070726f786044820152681a58589b195555525160ba1b6064820152608490fd5b9091508881813d8311610761575b61074d8183610b99565b8101031261075d57519038610595565b8a80fd5b503d610743565b8480fd5b50346100e45760208060031936011261029257610787610b35565b916001600160a01b037f000000000000000000000000000000000000000000000000000000000000000081166107bf30821415610bd7565b6107dc600080516020611306833981519152918383541614610c38565b6107e4610c99565b8251908482019282841067ffffffffffffffff851117610949578385528883527f4910fdfa16fed3260ed0e7147f7cc6da11a60208b5b9406d12a635614ffd91435460ff161561083e575050505050506100e191506110be565b869293949596169085516352d1902d60e01b815287818a81865afa8a918161091a575b506108c057865162461bcd60e51b8152808a01899052602e60248201527f45524331393637557067726164653a206e657720696d706c656d656e7461746960448201526d6f6e206973206e6f74205555505360901b6064820152608490fd5b9791929396959497036106e057506108d7826110be565b7fbc7cd75a20ee27fd9adebab32041f755214dbc6bffa90cc0225b39da2e5c2d3b8780a285845115801590610913576106495750505050505080f35b508061063b565b9091508881813d8311610942575b6109328183610b99565b8101031261075d57519038610861565b503d610928565b634e487b7160e01b895260418852602489fd5b509190346102b157826003193601126102b157610977610b1a565b90336001600160a01b0383160361099357906100e19135610f99565b608490602085519162461bcd60e51b8352820152602f60248201527f416363657373436f6e74726f6c3a2063616e206f6e6c792072656e6f756e636560448201526e103937b632b9903337b91039b2b63360891b6064820152fd5b5090346100e457816003193601126100e4573590610a0a610b1a565b908284526065602052610a2260018286200154610e8e565b828452606560209081528185206001600160a01b039093168086529290528084205460ff1615610a50578380f35b82845260656020528084208285526020528320600160ff1982541617905533917f2f8788117e7eff1d82e926ec794901d17c78024a50270940304540a733656f0d8480a43880808380f35b5090346100e45760203660031901126100e45781602093600192358152606585522001549051908152f35b849084346100e45760203660031901126100e4573563ffffffff60e01b81168091036100e45760209250637965db0b60e01b8114908115610b09575b5015158152f35b6301ffc9a760e01b14905083610b02565b602435906001600160a01b0382168203610b3057565b600080fd5b600435906001600160a01b0382168203610b3057565b6060810190811067ffffffffffffffff821117610b6757604052565b634e487b7160e01b600052604160045260246000fd5b6080810190811067ffffffffffffffff821117610b6757604052565b90601f8019910116810190811067ffffffffffffffff821117610b6757604052565b67ffffffffffffffff8111610b6757601f01601f191660200190565b15610bde57565b60405162461bcd60e51b815260206004820152602c60248201527f46756e6374696f6e206d7573742062652063616c6c6564207468726f7567682060448201526b19195b1959d85d1958d85b1b60a21b6064820152608490fd5b15610c3f57565b60405162461bcd60e51b815260206004820152602c60248201527f46756e6374696f6e206d7573742062652063616c6c6564207468726f7567682060448201526b6163746976652070726f787960a01b6064820152608490fd5b3360009081527fffdfc1249c027f9191656349feb0761381bb32c9f557e01f419fd08754bf5a1b602090815260408083205490929060ff1615610cdb57505050565b610ce433611175565b83519082610cf183610b7d565b60428352848301936060368637835115610e7a576030855383519060019160011015610e7a5790607860218601536041915b818311610e0c57505050610dca57610d78938593610db093610da1604894610dc69951988576020b1b1b2b9b9a1b7b73a3937b61d1030b1b1b7bab73a1604d1b8b97880152825192839160378901910161106f565b8401917001034b99036b4b9b9b4b733903937b6329607d1b60378401525180938684019061106f565b01036028810185520183610b99565b5162461bcd60e51b815291829160048301611092565b0390fd5b60648486519062461bcd60e51b825280600483015260248201527f537472696e67733a20686578206c656e67746820696e73756666696369656e746044820152fd5b909192600f81166010811015610e66576f181899199a1a9b1b9c1cb0b131b232b360811b901a610e3c858861114e565b5360041c928015610e5257600019019190610d23565b634e487b7160e01b82526011600452602482fd5b634e487b7160e01b83526032600452602483fd5b634e487b7160e01b81526032600452602490fd5b600081815260209060658252604092838220338352835260ff848320541615610eb75750505050565b610ec033611175565b845191610ecc83610b7d565b60428352848301936060368637835115610e7a576030855383519060019160011015610e7a5790607860218601536041915b818311610f5357505050610dca57610d78938593610db093610da1604894610dc69951988576020b1b1b2b9b9a1b7b73a3937b61d1030b1b1b7bab73a1604d1b8b97880152825192839160378901910161106f565b909192600f81166010811015610e66576f181899199a1a9b1b9c1cb0b131b232b360811b901a610f83858861114e565b5360041c928015610e5257600019019190610efe565b906000918083526065602052604083209160018060a01b03169182845260205260ff604084205416610fca57505050565b8083526065602052604083208284526020526040832060ff1981541690557ff6391f5c32d9c69d2a47ea670b442974b53935d1edc7fd64eb21e047a839171b339380a4565b1561101657565b60405162461bcd60e51b815260206004820152602b60248201527f496e697469616c697a61626c653a20636f6e7472616374206973206e6f74206960448201526a6e697469616c697a696e6760a81b6064820152608490fd5b60005b8381106110825750506000910152565b8181015183820152602001611072565b604091602082526110b2815180928160208601526020868601910161106f565b601f01601f1916010190565b803b156110f35760008051602061130683398151915280546001600160a01b0319166001600160a01b03909216919091179055565b60405162461bcd60e51b815260206004820152602d60248201527f455243313936373a206e657720696d706c656d656e746174696f6e206973206e60448201526c1bdd08184818dbdb9d1c9858dd609a1b6064820152608490fd5b90815181101561115f570160200190565b634e487b7160e01b600052603260045260246000fd5b6040519061118282610b4b565b602a825260208201604036823782511561115f576030905381516001906001101561115f57607860218401536029905b8082116112065750506111c25790565b606460405162461bcd60e51b815260206004820152602060248201527f537472696e67733a20686578206c656e67746820696e73756666696369656e746044820152fd5b9091600f8116601081101561125f576f181899199a1a9b1b9c1cb0b131b232b360811b901a611235848661114e565b5360041c91801561124a5760001901906111b2565b60246000634e487b7160e01b81526011600452fd5b60246000634e487b7160e01b81526032600452fd5b919290156112d65750815115611288575090565b3b156112915790565b60405162461bcd60e51b815260206004820152601d60248201527f416464726573733a2063616c6c20746f206e6f6e2d636f6e74726163740000006044820152606490fd5b8251909150156112e95750805190602001fd5b60405162461bcd60e51b8152908190610dc6906004830161109256fe360894a13ba1a3210667c828492db98dca3e2076cc3735a920a3ca505d382bbca2646970667358221220239092c9300e3ac3cdab0fd7c00580bce27b5121923e217090814277137cc25164736f6c63430008180033",
  "linkReferences": {},
  "deployedLinkReferences": {}
}