{
  "_format": "hh-sol-artifact-1",
  "contractName": "TreasurySpoke",
  "sourceName": "src/core/TreasurySpoke.sol",
  "abi": [
    {
      "inputs": [],
      "stateMutability": "nonpayable",
      "type": "constructor"
    },
    {
      "anonymous": false,
      "inputs": [
        {
          "indexed": false,
          "internalType": "address",
          "name": "previousAdmin",
          "type": "address"
        },
        {
          "indexed": false,
          "internalType": "address",
          "name": "newAdmin",
          "type": "address"
        }
      ],
      "name": "AdminChanged",
      "type": "event"
    },
    {
      "anonymous": false,
      "inputs": [
        {
          "indexed": true,
          "internalType": "address",
          "name": "beacon",
          "type": "address"
        }
      ],
      "name": "BeaconUpgraded",
      "type": "event"
    },
    {
      "anonymous": false,
      "inputs": [
        {
          "indexed": false,
          "internalType": "uint8",
          "name": "version",
          "type": "uint8"
        }
      ],
      "name": "Initialized",
      "type": "event"
    },
    {
      "anonymous": false,
      "inputs": [
        {
          "indexed": true,
          "internalType": "bytes32",
          "name": "role",
          "type": "bytes32"
        },
        {
          "indexed": true,
          "internalType": "bytes32",
          "name": "previousAdminRole",
          "type": "bytes32"
        },
        {
          "indexed": true,
          "internalType": "bytes32",
          "name": "newAdminRole",
          "type": "bytes32"
        }
      ],
      "name": "RoleAdminChanged",
      "type": "event"
    },
    {
      "anonymous": false,
      "inputs": [
        {
          "indexed": true,
          "internalType": "bytes32",
          "name": "role",
          "type": "bytes32"
        },
        {
          "indexed": true,
          "internalType": "address",
          "name": "account",
          "type": "address"
        },
        {
          "indexed": true,
          "internalType": "address",
          "name": "sender",
          "type": "address"
        }
      ],
      "name": "RoleGranted",
      "type": "event"
    },
    {
      "anonymous": false,
      "inputs": [
        {
          "indexed": true,
          "internalType": "bytes32",
          "name": "role",
          "type": "bytes32"
        },
        {
          "indexed": true,
          "internalType": "address",
          "name": "account",
          "type": "address"
        },
        {
          "indexed": true,
          "internalType": "address",
          "name": "sender",
          "type": "address"
        }
      ],
      "name": "RoleRevoked",
      "type": "event"
    },
    {
      "anonymous": false,
      "inputs": [
        {
          "indexed": true,
          "internalType": "address",
          "name": "implementation",
          "type": "address"
        }
      ],
      "name": "Upgraded",
      "type": "event"
    },
    {
      "inputs": [],
      "name": "DEFAULT_ADMIN_ROLE",
      "outputs": [
        {
          "internalType": "bytes32",
          "name": "",
          "type": "bytes32"
        }
      ],
      "stateMutability": "view",
      "type": "function"
    },
    {
      "inputs": [
        {
          "internalType": "address",
          "name": "token",
          "type": "address"
        }
      ],
      "name": "balanceOf",
      "outputs": [
        {
          "internalType": "uint256",
          "name": "",
          "type": "uint256"
        }
      ],
      "stateMutability": "view",
      "type": "function"
    },
    {
      "inputs": [
        {
          "internalType": "address",
          "name": "",
          "type": "address"
        },
        {
          "internalType": "uint256",
          "name": "",
          "type": "uint256"
        }
      ],
      "name": "depositFromBot",
      "outputs": [],
      "stateMutability": "nonpayable",
      "type": "function"
    },
    {
      "inputs": [
        {
          "internalType": "bytes32",
          "name": "role",
          "type": "bytes32"
        }
      ],
      "name": "getRoleAdmin",
      "outputs": [
        {
          "internalType": "bytes32",
          "name": "",
          "type": "bytes32"
        }
      ],
      "stateMutability": "view",
      "type": "function"
    },
    {
      "inputs": [
        {
          "internalType": "bytes32",
          "name": "role",
          "type": "bytes32"
        },
        {
          "internalType": "address",
          "name": "account",
          "type": "address"
        }
      ],
      "name": "grantRole",
      "outputs": [],
      "stateMutability": "nonpayable",
      "type": "function"
    },
    {
      "inputs": [
        {
          "internalType": "bytes32",
          "name": "role",
          "type": "bytes32"
        },
        {
          "internalType": "address",
          "name": "account",
          "type": "address"
        }
      ],
      "name": "hasRole",
      "outputs": [
        {
          "internalType": "bool",
          "name": "",
          "type": "bool"
        }
      ],
      "stateMutability": "view",
      "type": "function"
    },
    {
      "inputs": [
        {
          "internalType": "address",
          "name": "admin",
          "type": "address"
        }
      ],
      "name": "initialize",
      "outputs": [],
      "stateMutability": "nonpayable",
      "type": "function"
    },
    {
      "inputs": [],
      "name": "proxiableUUID",
      "outputs": [
        {
          "internalType": "bytes32",
          "name": "",
          "type": "bytes32"
        }
      ],
      "stateMutability": "view",
      "type": "function"
    },
    {
      "inputs": [
        {
          "internalType": "address",
          "name": "token",
          "type": "address"
        },
        {
          "internalType": "uint256",
          "name": "amount",
          "type": "uint256"
        }
      ],
      "name": "receivePenalty",
      "outputs": [],
      "stateMutability": "nonpayable",
      "type": "function"
    },
    {
      "inputs": [
        {
          "internalType": "bytes32",
          "name": "role",
          "type": "bytes32"
        },
        {
          "internalType": "address",
          "name": "account",
          "type": "address"
        }
      ],
      "name": "renounceRole",
      "outputs": [],
      "stateMutability": "nonpayable",
      "type": "function"
    },
    {
      "inputs": [
        {
          "internalType": "bytes32",
          "name": "role",
          "type": "bytes32"
        },
        {
          "internalType": "address",
          "name": "account",
          "type": "address"
        }
      ],
      "name": "revokeRole",
      "outputs": [],
      "stateMutability": "nonpayable",
      "type": "function"
    },
    {
      "inputs": [
        {
          "internalType": "bytes4",
          "name": "interfaceId",
          "type": "bytes4"
        }
      ],
      "name": "supportsInterface",
      "outputs": [
        {
          "internalType": "bool",
          "name": "",
          "type": "bool"
        }
      ],
      "stateMutability": "view",
      "type": "function"
    },
    {
      "inputs": [
        {
          "internalType": "address",
          "name": "token",
          "type": "address"
        },
        {
          "internalType": "uint256",
          "name": "amount",
          "type": "uint256"
        },
        {
          "internalType": "address",
          "name": "to",
          "type": "address"
        }
      ],
      "name": "sweepToHub",
      "outputs": [],
      "stateMutability": "nonpayable",
      "type": "function"
    },
    {
      "inputs": [
        {
          "internalType": "address",
          "name": "newImplementation",
          "type": "address"
        }
      ],
      "name": "upgradeTo",
      "outputs": [],
      "stateMutability": "nonpayable",
      "type": "function"
    },
    {
      "inputs": [
        {
          "internalType": "address",
          "name": "newImplementation",
          "type": "address"
        },
        {
          "internalType": "bytes",
          "name": "data",
          "type": "bytes"
        }
      ],
      "name": "upgradeToAndCall",
      "outputs": [],
      "stateMutability": "payable",
      "type": "function"
    }
  ],
  "bytecode": "0x60a080604052346100dc57306080526000549060ff8260081c1661008a575060ff8082160361004f575b60405161174890816100e28239608051818181610450015281816105760152610b620152f35b60ff90811916176000557f7f26b83ff96e1f2b6a682f133852f6798a09c465da95921460cefb3847402498602060405160ff8152a138610029565b62461bcd60e51b815260206004820152602760248201527f496e697469616c697a61626c653a20636f6e747261637420697320696e697469604482015266616c697a696e6760c81b6064820152608490fd5b600080fdfe6080604081815260048036101561001557600080fd5b600091823560e01c93846301ffc9a714610e9557508363248a9ca314610e6b5783632f2ff15d14610dbf57836336568abe14610d2e5783633659cfe614610b3d57836344a5df82146107d65783634f1ef286146104fd57836352d1902d1461043c57836370a08231146103a557836391d148541461035f578363a217fddf14610340578363c1167ad2146100cb578363c4d66de814610110578363d547741f146100d05750505063fe527dc8146100cb57600080fd5b610fa6565b3461010c578060031936011261010c57610109913561010460016100f2610ee9565b9383875260656020528620015461124b565b611356565b80f35b8280fd5b903461010c576020908160031936011261033c5761012c610f04565b84549060ff91828160081c161593848095610330575b801561031a575b156102c0575060ff19818116600117885590846102af575b5061017a83885460081c16610175816113cc565b6113cc565b868052606585528587206001600160a01b0390921680885291855285872054831615610268575b7f8d9233e8f9e0681d692bebdd2fd8c8863336d587e831d84b9bff9f403d549b5f9283885260658652868820838952865286882054161561021f575b5050506101e8578280f35b7f7f26b83ff96e1f2b6a682f133852f6798a09c465da95921460cefb38474024989161ff001984541684555160018152a181808280f35b82875260658552858720828852855260018688209182541617905533917f2f8788117e7eff1d82e926ec794901d17c78024a50270940304540a733656f0d8780a48480806101dd565b8680526065855285872082885285528587206001828254161790553382887f2f8788117e7eff1d82e926ec794901d17c78024a50270940304540a733656f0d8180a46101a1565b61ffff191661010117875587610161565b865162461bcd60e51b8152908101869052602e60248201527f496e697469616c697a61626c653a20636f6e747261637420697320616c72656160448201526d191e481a5b9a5d1a585b1a5e995960921b6064820152608490fd5b50303b1580156101495750600184831614610149565b50600184831610610142565b8380fd5b90503461035b578160031936011261035b5751908152602090f35b5080fd5b903461010c578160031936011261010c578160209360ff9261037f610ee9565b90358252606586528282206001600160a01b039091168252855220549151911615158152f35b82903461035b576020928360031936011261010c57836001600160a01b036103cb610f04565b169160248451809481936370a0823160e01b835230908301525afa9283156104315780936103fc575b505051908152f35b909192508382813d831161042a575b6104158183610f68565b810103126104275750519083806103f4565b80fd5b503d61040b565b8251903d90823e3d90fd5b9134610427578060031936011261042757507f00000000000000000000000000000000000000000000000000000000000000006001600160a01b0316300361049557602082516000805160206116f38339815191528152f35b6020608492519162461bcd60e51b8352820152603860248201527f555550535570677261646561626c653a206d757374206e6f742062652063616c60448201527f6c6564207468726f7567682064656c656761746563616c6c00000000000000006064820152fd5b8060031936011261010c57610510610f04565b906024359067ffffffffffffffff82116107d257366023830112156107d2578184013561053c81610f8a565b9061054983519283610f68565b8082528660209485840192366024828401011161010c578060248893018537840101526001600160a01b037f00000000000000000000000000000000000000000000000000000000000000008116906105a430831415610fc1565b6105c16000805160206116f3833981519152928284541614611022565b6105c9611083565b7f4910fdfa16fed3260ed0e7147f7cc6da11a60208b5b9406d12a635614ffd91435460ff161561060357505050505050610109915061147b565b8693949596169085516352d1902d60e01b815287818a81865afa8a918161079f575b5061068457865162461bcd60e51b8152808a01899052602e60248201527f45524331393637557067726164653a206e657720696d706c656d656e7461746960448201526d6f6e206973206e6f74205555505360901b6064820152608490fd5b979192939594970361074a57509086929161069e8561147b565b7fbc7cd75a20ee27fd9adebab32041f755214dbc6bffa90cc0225b39da2e5c2d3b8480a2855115801590610742575b6106db575b50505050505080f35b61073695660819985a5b195960ca1b837f416464726573733a206c6f772d6c6576656c2064656c65676174652063616c6c869551986107198a610f1a565b60278a528901528701525190845af4610730611631565b91611661565b508180808381806106d2565b5060016106cd565b835162461bcd60e51b8152908101869052602960248201527f45524331393637557067726164653a20756e737570706f727465642070726f786044820152681a58589b195555525160ba1b6064820152608490fd5b9091508881813d83116107cb575b6107b78183610f68565b810103126107c75751908b610625565b8a80fd5b503d6107ad565b8480fd5b3461010c57606036600319011261010c576107ef610f04565b6024916044356001600160a01b0381811691829003610b39577f8d9233e8f9e0681d692bebdd2fd8c8863336d587e831d84b9bff9f403d549b5f9384885260209460658652848920338a52865260ff858a205416156109765750168251918483019063a9059cbb60e01b8252868401528535604484015260448352608083019267ffffffffffffffff818510818611176109645760c08201908111858210176109645785528584527f5361666545524332303a206c6f772d6c6576656c2063616c6c206661696c656460a0820152516108d49392918991829182855af1610730611631565b8051838115918215610940575b50509050156108ee578480f35b5162461bcd60e51b815292830152602a908201527f5361666545524332303a204552433230206f7065726174696f6e20646964206e6044820152691bdd081cdd58d8d9595960b21b6064820152608490fd5b8380929350010312610960578201518015158103610960578083886108e1565b8580fd5b634e487b7160e01b8a5260418952878afd5b87868a89889461098533611532565b909186519261099384610f4c565b60428452858401946060368737845115610b27576030865384519060019160011015610b155790607860218701536041915b818311610aac57505050610a6b5750610a67938693610a5393610a44604894610a1b9a519a8576020b1b1b2b9b9a1b7b73a3937b61d1030b1b1b7bab73a1604d1b8d97880152825192839160378901910161142c565b8401917001034b99036b4b9b9b4b733903937b6329607d1b60378401525180938684019061142c565b01036028810187520185610f68565b5162461bcd60e51b8152928392830161144f565b0390fd5b9250505081606494519362461bcd60e51b85528401528201527f537472696e67733a20686578206c656e67746820696e73756666696369656e746044820152fd5b909192600f81166010811015610b03576f181899199a1a9b1b9c1cb0b131b232b360811b901a610adc858961150b565b53891c928015610af1576000190191906109c5565b634e487b7160e01b825260118a528482fd5b634e487b7160e01b835260328b528583fd5b634e487b7160e01b8152603289528390fd5b634e487b7160e01b8152603288529050fd5b8680fd5b3461010c5760208060031936011261033c57610b57610f04565b916001600160a01b037f0000000000000000000000000000000000000000000000000000000000000000811690610b9030831415610fc1565b610bad6000805160206116f3833981519152928284541614611022565b610bb5611083565b8251918483019183831067ffffffffffffffff841117610d1b578285528884527f4910fdfa16fed3260ed0e7147f7cc6da11a60208b5b9406d12a635614ffd91435460ff1615610c0f57505050505050610109915061147b565b8693949596169085516352d1902d60e01b815287818a81865afa8a9181610cec575b50610c9057865162461bcd60e51b8152808a01899052602e60248201527f45524331393637557067726164653a206e657720696d706c656d656e7461746960448201526d6f6e206973206e6f74205555505360901b6064820152608490fd5b979192939594970361074a575090869291610caa8561147b565b7fbc7cd75a20ee27fd9adebab32041f755214dbc6bffa90cc0225b39da2e5c2d3b8480a2855115801590610ce5576106db5750505050505080f35b50826106cd565b9091508881813d8311610d14575b610d048183610f68565b810103126107c75751908b610c31565b503d610cfa565b634e487b7160e01b895260418852602489fd5b92503461035b578260031936011261035b57610d48610ee9565b90336001600160a01b03831603610d6457906101099135611356565b608490602085519162461bcd60e51b8352820152602f60248201527f416363657373436f6e74726f6c3a2063616e206f6e6c792072656e6f756e636560448201526e103937b632b9903337b91039b2b63360891b6064820152fd5b903461010c578160031936011261010c573590610dda610ee9565b908284526065602052610df26001828620015461124b565b828452606560209081528185206001600160a01b039093168086529290528084205460ff1615610e20578380f35b82845260656020528084208285526020528320600160ff1982541617905533917f2f8788117e7eff1d82e926ec794901d17c78024a50270940304540a733656f0d8480a48180808380f35b903461010c57602036600319011261010c5781602093600192358152606585522001549051908152f35b9190503461010c57602036600319011261010c573563ffffffff60e01b811680910361010c5760209250637965db0b60e01b8114908115610ed8575b5015158152f35b6301ffc9a760e01b14905083610ed1565b602435906001600160a01b0382168203610eff57565b600080fd5b600435906001600160a01b0382168203610eff57565b6060810190811067ffffffffffffffff821117610f3657604052565b634e487b7160e01b600052604160045260246000fd5b6080810190811067ffffffffffffffff821117610f3657604052565b90601f8019910116810190811067ffffffffffffffff821117610f3657604052565b67ffffffffffffffff8111610f3657601f01601f191660200190565b34610eff576040366003190112610eff57610fbf610f04565b005b15610fc857565b60405162461bcd60e51b815260206004820152602c60248201527f46756e6374696f6e206d7573742062652063616c6c6564207468726f7567682060448201526b19195b1959d85d1958d85b1b60a21b6064820152608490fd5b1561102957565b60405162461bcd60e51b815260206004820152602c60248201527f46756e6374696f6e206d7573742062652063616c6c6564207468726f7567682060448201526b6163746976652070726f787960a01b6064820152608490fd5b3360009081527fffdfc1249c027f9191656349feb0761381bb32c9f557e01f419fd08754bf5a1b602090815260408083205490929060ff16156110c557505050565b6110ce33611532565b835190826110db83610f4c565b604283528483019360603686378351156112375760308553835190600191600110156112375790607860218601536041915b8183116111c95750505061118757610a1b93859361117193611162604894610a679951988576020b1b1b2b9b9a1b7b73a3937b61d1030b1b1b7bab73a1604d1b8b97880152825192839160378901910161142c565b01036028810185520183610f68565b5162461bcd60e51b81529182916004830161144f565b60648486519062461bcd60e51b825280600483015260248201527f537472696e67733a20686578206c656e67746820696e73756666696369656e746044820152fd5b909192600f81166010811015611223576f181899199a1a9b1b9c1cb0b131b232b360811b901a6111f9858861150b565b5360041c92801561120f5760001901919061110d565b634e487b7160e01b82526011600452602482fd5b634e487b7160e01b83526032600452602483fd5b634e487b7160e01b81526032600452602490fd5b600081815260209060658252604092838220338352835260ff8483205416156112745750505050565b61127d33611532565b84519161128983610f4c565b604283528483019360603686378351156112375760308553835190600191600110156112375790607860218601536041915b8183116113105750505061118757610a1b93859361117193611162604894610a679951988576020b1b1b2b9b9a1b7b73a3937b61d1030b1b1b7bab73a1604d1b8b97880152825192839160378901910161142c565b909192600f81166010811015611223576f181899199a1a9b1b9c1cb0b131b232b360811b901a611340858861150b565b5360041c92801561120f576000190191906112bb565b906000918083526065602052604083209160018060a01b03169182845260205260ff60408420541661138757505050565b8083526065602052604083208284526020526040832060ff1981541690557ff6391f5c32d9c69d2a47ea670b442974b53935d1edc7fd64eb21e047a839171b339380a4565b156113d357565b60405162461bcd60e51b815260206004820152602b60248201527f496e697469616c697a61626c653a20636f6e7472616374206973206e6f74206960448201526a6e697469616c697a696e6760a81b6064820152608490fd5b60005b83811061143f5750506000910152565b818101518382015260200161142f565b6040916020825261146f815180928160208601526020868601910161142c565b601f01601f1916010190565b803b156114b0576000805160206116f383398151915280546001600160a01b0319166001600160a01b03909216919091179055565b60405162461bcd60e51b815260206004820152602d60248201527f455243313936373a206e657720696d706c656d656e746174696f6e206973206e60448201526c1bdd08184818dbdb9d1c9858dd609a1b6064820152608490fd5b90815181101561151c570160200190565b634e487b7160e01b600052603260045260246000fd5b6040519061153f82610f1a565b602a825260208201604036823782511561151c576030905381516001906001101561151c57607860218401536029905b8082116115c357505061157f5790565b606460405162461bcd60e51b815260206004820152602060248201527f537472696e67733a20686578206c656e67746820696e73756666696369656e746044820152fd5b9091600f8116601081101561161c576f181899199a1a9b1b9c1cb0b131b232b360811b901a6115f2848661150b565b5360041c91801561160757600019019061156f565b60246000634e487b7160e01b81526011600452fd5b60246000634e487b7160e01b81526032600452fd5b3d1561165c573d9061164282610f8a565b916116506040519384610f68565b82523d6000602084013e565b606090565b919290156116c35750815115611675575090565b3b1561167e5790565b60405162461bcd60e51b815260206004820152601d60248201527f416464726573733a2063616c6c20746f206e6f6e2d636f6e74726163740000006044820152606490fd5b8251909150156116d65750805190602001fd5b60405162461bcd60e51b8152908190610a67906004830161144f56fe360894a13ba1a3210667c828492db98dca3e2076cc3735a920a3ca505d382bbca264697066735822122071a3ddea91e7f3a68eb55f7ee7af02b3d1e4810353cb81b27f551b98f54aaa3a64736f6c63430008180033",
  "linkReferences": {},
  "deployedLinkReferences": {}
}