{
  "_format": "hh-sol-artifact-1",
  "contractName": "SignedPriceOracle",
  "sourceName": "src/core/SignedPriceOracle.sol",
  "abi": [
    {
      "inputs": [],
      "stateMutability": "nonpayable",
      "type": "constructor"
    },
    {
      "anonymous": false,
      "inputs": [
        {
          "indexed": false,
          "internalType": "address",
          "name": "previousAdmin",
          "type": "address"
        },
        {
          "indexed": false,
          "internalType": "address",
          "name": "newAdmin",
          "type": "address"
        }
      ],
      "name": "AdminChanged",
      "type": "event"
    },
    {
      "anonymous": false,
      "inputs": [
        {
          "indexed": true,
          "internalType": "address",
          "name": "beacon",
          "type": "address"
        }
      ],
      "name": "BeaconUpgraded",
      "type": "event"
    },
    {
      "anonymous": false,
      "inputs": [
        {
          "indexed": false,
          "internalType": "uint8",
          "name": "version",
          "type": "uint8"
        }
      ],
      "name": "Initialized",
      "type": "event"
    },
    {
      "anonymous": false,
      "inputs": [
        {
          "indexed": false,
          "internalType": "uint64",
          "name": "maxStale",
          "type": "uint64"
        }
      ],
      "name": "MaxStaleSet",
      "type": "event"
    },
    {
      "anonymous": false,
      "inputs": [
        {
          "indexed": true,
          "internalType": "address",
          "name": "asset",
          "type": "address"
        },
        {
          "indexed": false,
          "internalType": "uint256",
          "name": "priceX1e18",
          "type": "uint256"
        },
        {
          "indexed": false,
          "internalType": "uint64",
          "name": "ts",
          "type": "uint64"
        },
        {
          "indexed": true,
          "internalType": "address",
          "name": "updater",
          "type": "address"
        }
      ],
      "name": "PriceUpdated",
      "type": "event"
    },
    {
      "anonymous": false,
      "inputs": [
        {
          "indexed": true,
          "internalType": "bytes32",
          "name": "role",
          "type": "bytes32"
        },
        {
          "indexed": true,
          "internalType": "bytes32",
          "name": "previousAdminRole",
          "type": "bytes32"
        },
        {
          "indexed": true,
          "internalType": "bytes32",
          "name": "newAdminRole",
          "type": "bytes32"
        }
      ],
      "name": "RoleAdminChanged",
      "type": "event"
    },
    {
      "anonymous": false,
      "inputs": [
        {
          "indexed": true,
          "internalType": "bytes32",
          "name": "role",
          "type": "bytes32"
        },
        {
          "indexed": true,
          "internalType": "address",
          "name": "account",
          "type": "address"
        },
        {
          "indexed": true,
          "internalType": "address",
          "name": "sender",
          "type": "address"
        }
      ],
      "name": "RoleGranted",
      "type": "event"
    },
    {
      "anonymous": false,
      "inputs": [
        {
          "indexed": true,
          "internalType": "bytes32",
          "name": "role",
          "type": "bytes32"
        },
        {
          "indexed": true,
          "internalType": "address",
          "name": "account",
          "type": "address"
        },
        {
          "indexed": true,
          "internalType": "address",
          "name": "sender",
          "type": "address"
        }
      ],
      "name": "RoleRevoked",
      "type": "event"
    },
    {
      "anonymous": false,
      "inputs": [
        {
          "indexed": true,
          "internalType": "address",
          "name": "signer",
          "type": "address"
        }
      ],
      "name": "SignerSet",
      "type": "event"
    },
    {
      "anonymous": false,
      "inputs": [
        {
          "indexed": true,
          "internalType": "address",
          "name": "implementation",
          "type": "address"
        }
      ],
      "name": "Upgraded",
      "type": "event"
    },
    {
      "inputs": [],
      "name": "DEFAULT_ADMIN_ROLE",
      "outputs": [
        {
          "internalType": "bytes32",
          "name": "",
          "type": "bytes32"
        }
      ],
      "stateMutability": "view",
      "type": "function"
    },
    {
      "inputs": [
        {
          "internalType": "address",
          "name": "asset",
          "type": "address"
        }
      ],
      "name": "getPrice",
      "outputs": [
        {
          "internalType": "uint256",
          "name": "priceX1e18",
          "type": "uint256"
        },
        {
          "internalType": "uint64",
          "name": "ts",
          "type": "uint64"
        },
        {
          "internalType": "bool",
          "name": "isStale",
          "type": "bool"
        }
      ],
      "stateMutability": "view",
      "type": "function"
    },
    {
      "inputs": [
        {
          "internalType": "bytes32",
          "name": "role",
          "type": "bytes32"
        }
      ],
      "name": "getRoleAdmin",
      "outputs": [
        {
          "internalType": "bytes32",
          "name": "",
          "type": "bytes32"
        }
      ],
      "stateMutability": "view",
      "type": "function"
    },
    {
      "inputs": [
        {
          "internalType": "bytes32",
          "name": "role",
          "type": "bytes32"
        },
        {
          "internalType": "address",
          "name": "account",
          "type": "address"
        }
      ],
      "name": "grantRole",
      "outputs": [],
      "stateMutability": "nonpayable",
      "type": "function"
    },
    {
      "inputs": [
        {
          "internalType": "bytes32",
          "name": "role",
          "type": "bytes32"
        },
        {
          "internalType": "address",
          "name": "account",
          "type": "address"
        }
      ],
      "name": "hasRole",
      "outputs": [
        {
          "internalType": "bool",
          "name": "",
          "type": "bool"
        }
      ],
      "stateMutability": "view",
      "type": "function"
    },
    {
      "inputs": [
        {
          "internalType": "address",
          "name": "admin",
          "type": "address"
        },
        {
          "internalType": "address",
          "name": "_signer",
          "type": "address"
        },
        {
          "internalType": "uint64",
          "name": "_maxStale",
          "type": "uint64"
        }
      ],
      "name": "initialize",
      "outputs": [],
      "stateMutability": "nonpayable",
      "type": "function"
    },
    {
      "inputs": [],
      "name": "maxStale",
      "outputs": [
        {
          "internalType": "uint64",
          "name": "",
          "type": "uint64"
        }
      ],
      "stateMutability": "view",
      "type": "function"
    },
    {
      "inputs": [
        {
          "internalType": "address",
          "name": "",
          "type": "address"
        }
      ],
      "name": "prices",
      "outputs": [
        {
          "internalType": "uint256",
          "name": "priceX1e18",
          "type": "uint256"
        },
        {
          "internalType": "uint64",
          "name": "ts",
          "type": "uint64"
        }
      ],
      "stateMutability": "view",
      "type": "function"
    },
    {
      "inputs": [],
      "name": "proxiableUUID",
      "outputs": [
        {
          "internalType": "bytes32",
          "name": "",
          "type": "bytes32"
        }
      ],
      "stateMutability": "view",
      "type": "function"
    },
    {
      "inputs": [
        {
          "internalType": "bytes32",
          "name": "role",
          "type": "bytes32"
        },
        {
          "internalType": "address",
          "name": "account",
          "type": "address"
        }
      ],
      "name": "renounceRole",
      "outputs": [],
      "stateMutability": "nonpayable",
      "type": "function"
    },
    {
      "inputs": [
        {
          "internalType": "bytes32",
          "name": "role",
          "type": "bytes32"
        },
        {
          "internalType": "address",
          "name": "account",
          "type": "address"
        }
      ],
      "name": "revokeRole",
      "outputs": [],
      "stateMutability": "nonpayable",
      "type": "function"
    },
    {
      "inputs": [
        {
          "internalType": "uint64",
          "name": "_max",
          "type": "uint64"
        }
      ],
      "name": "setMaxStale",
      "outputs": [],
      "stateMutability": "nonpayable",
      "type": "function"
    },
    {
      "inputs": [
        {
          "internalType": "address",
          "name": "asset",
          "type": "address"
        },
        {
          "internalType": "uint256",
          "name": "priceX1e18",
          "type": "uint256"
        },
        {
          "internalType": "uint64",
          "name": "ts",
          "type": "uint64"
        }
      ],
      "name": "setPrice",
      "outputs": [],
      "stateMutability": "nonpayable",
      "type": "function"
    },
    {
      "inputs": [
        {
          "internalType": "address",
          "name": "asset",
          "type": "address"
        },
        {
          "internalType": "uint256",
          "name": "priceX1e18",
          "type": "uint256"
        },
        {
          "internalType": "uint64",
          "name": "ts",
          "type": "uint64"
        },
        {
          "internalType": "bytes",
          "name": "signature",
          "type": "bytes"
        }
      ],
      "name": "setPriceSigned",
      "outputs": [],
      "stateMutability": "nonpayable",
      "type": "function"
    },
    {
      "inputs": [
        {
          "internalType": "address",
          "name": "_signer",
          "type": "address"
        }
      ],
      "name": "setSigner",
      "outputs": [],
      "stateMutability": "nonpayable",
      "type": "function"
    },
    {
      "inputs": [],
      "name": "signer",
      "outputs": [
        {
          "internalType": "address",
          "name": "",
          "type": "address"
        }
      ],
      "stateMutability": "view",
      "type": "function"
    },
    {
      "inputs": [
        {
          "internalType": "bytes4",
          "name": "interfaceId",
          "type": "bytes4"
        }
      ],
      "name": "supportsInterface",
      "outputs": [
        {
          "internalType": "bool",
          "name": "",
          "type": "bool"
        }
      ],
      "stateMutability": "view",
      "type": "function"
    },
    {
      "inputs": [
        {
          "internalType": "address",
          "name": "newImplementation",
          "type": "address"
        }
      ],
      "name": "upgradeTo",
      "outputs": [],
      "stateMutability": "nonpayable",
      "type": "function"
    },
    {
      "inputs": [
        {
          "internalType": "address",
          "name": "newImplementation",
          "type": "address"
        },
        {
          "internalType": "bytes",
          "name": "data",
          "type": "bytes"
        }
      ],
      "name": "upgradeToAndCall",
      "outputs": [],
      "stateMutability": "payable",
      "type": "function"
    }
  ],
  "bytecode": "0x60a080604052346100dc57306080526000549060ff8260081c1661008a575060ff8082160361004f575b604051611dbf90816100e28239608051818181610a6901528181610b640152610ec20152f35b60ff90811916176000557f7f26b83ff96e1f2b6a682f133852f6798a09c465da95921460cefb3847402498602060405160ff8152a138610029565b62461bcd60e51b815260206004820152602760248201527f496e697469616c697a61626c653a20636f6e747261637420697320696e697469604482015266616c697a696e6760c81b6064820152608490fd5b600080fdfe608060408181526004908136101561001657600080fd5b600092833560e01c90816301ffc9a71461131257508063238ac933146112e9578063248a9ca3146112be5780632f2ff15d1461121157806331dd6b06146111e657806336568abe146111545780633659cfe614610e9c57806341976e0914610deb5780634f1ef28614610b1657806352d1902d14610a545780636c19e783146109e95780637879ec311461070b57806391d14854146106c4578063a217fddf146106a9578063a278f6b5146104e0578063b758d9eb14610216578063b7a863831461018d578063cfed246b146101355763d547741f146100f557600080fd5b3461013157806003193601126101315761012e91356101296001610117611366565b93838752606560205286200154611711565b61181c565b80f35b8280fd5b838234610189576020366003190112610189579081906001600160a01b0361015b611381565b16815260fb6020908152919020805460019091015492519081526001600160401b0390921690820152604090f35b5080fd5b50903461013157602036600319011261013157356001600160401b038116808203610212577f2c31e23ee6f205d722bd891a6ce3261f31c29101f96f5383c7f4ee01001b0ba5926020926101df611549565b60fc805467ffffffffffffffff60a01b191660a09290921b67ffffffffffffffff60a01b1691909117905551908152a180f35b8380fd5b503461013157606036600319011261013157610230611381565b9160249182359361023f611471565b927ff0fcaef9f8ed10d22ffdcbc513b341e7ac8baa5f1d5771a318a3f439fda443f79485885260209560658752848920338a52875260ff858a2054161561031d5750505091817faae6ed5ad79b11be046faa83c4ee662b7cd61a178b8210146954c73d77c4fbe6936103179351906102b682611397565b87825260018783019260fb6001600160401b03938488168652838060a01b0316998a8d5252848b2090518155019151166001600160401b0319825416179055519182913396839092916001600160401b036020916040840195845216910152565b0390a380f35b88859392889261032c33611b4a565b909186519261033a846113e3565b604284528584019460603687378451156104ce5760308653845190600191600110156104bc5790607860218701536041915b81831161045357505050610412575061040e9386936103fa936103eb6048946103c29a519a8576020b1b1b2b9b9a1b7b73a3937b61d1030b1b1b7bab73a1604d1b8d9788015282519283916037890191016118f2565b8401917001034b99036b4b9b9b4b733903937b6329607d1b6037840152518093868401906118f2565b010360288101875201856113fe565b5162461bcd60e51b81529283928301611915565b0390fd5b9250505081606494519362461bcd60e51b85528401528201527f537472696e67733a20686578206c656e67746820696e73756666696369656e746044820152fd5b909192600f811660108110156104aa576f181899199a1a9b1b9c1cb0b131b232b360811b901a6104838589611b23565b53891c9280156104985760001901919061036c565b634e487b7160e01b825260118a528482fd5b634e487b7160e01b835260328b528583fd5b634e487b7160e01b8152603289528390fd5b634e487b7160e01b8152603288529050fd5b509034610131576080366003190112610131576104fb611381565b60243592610507611471565b91606435936001600160401b03908186116106a557366023870112156106a55785810135928284116106a15736602485890101116106a157845193602085019760018060a01b03809316988981528a88880152858916968760608201523060808201526080815260a081018181108882111761068e5789525190207f19457468657265756d205369676e6564204d6573736167653a0a3332000000008c52601c52603c8b206105d193926105c9926105c391369160240161143a565b906119d1565b929092611a09565b8060fc54169116036106615750917faae6ed5ad79b11be046faa83c4ee662b7cd61a178b8210146954c73d77c4fbe69391610317936001835161061381611397565b89815260208101938452888b5260fb602052848b2090518155019151166001600160401b0319825416179055519182913396839092916001600160401b036020916040840195845216910152565b606490602085519162461bcd60e51b835282015260076024820152666261642073696760c81b6044820152fd5b634e487b7160e01b8e526041875260248efd5b8880fd5b8780fd5b83823461018957816003193601126101895751908152602090f35b5090346101315781600319360112610131578160209360ff926106e5611366565b90358252606586528282206001600160a01b039091168252855220549151911615158152f35b50903461013157606036600319011261013157610726611381565b9061072f611366565b91610738611471565b85549160ff94858460081c1615948580966109dd575b80156109c7575b1561096d5750907f2c31e23ee6f205d722bd891a6ce3261f31c29101f96f5383c7f4ee01001b0ba593929160ff1993866001868316178b5561095c575b506107ab878a5460081c166107a681611892565b611892565b88805260656020908152888a206001600160a01b03938416808c52908252898b2054919889969092831615610915575b7ff0fcaef9f8ed10d22ffdcbc513b341e7ac8baa5f1d5771a318a3f439fda443f792838d52606588528c838d8220915288528b8d205416156108cc575b505050169060fc54826001600160401b0392838116156000146108c7575061012c5b6001600160401b0360a01b9060a01b169163ffffffff60e01b1617178060fc558751927f9eaa897564d022fb8c5efaf0acdb5d9d27b440b2aad44400b6e1c702e65b9ed38a80a260a01c168152a1610890578280f35b7f7f26b83ff96e1f2b6a682f133852f6798a09c465da95921460cefb38474024989161ff001984541684555160018152a138808280f35b61083a565b828c52606587528a8c20828d52875260018b8d209182541617905533917f2f8788117e7eff1d82e926ec794901d17c78024a50270940304540a733656f0d8c80a4388080610818565b8b8052606587528a8c20828d5287528a8c2060018282541617905533828d7f2f8788117e7eff1d82e926ec794901d17c78024a50270940304540a733656f0d8180a46107db565b61ffff191661010117895538610792565b608490602089519162461bcd60e51b8352820152602e60248201527f496e697469616c697a61626c653a20636f6e747261637420697320616c72656160448201526d191e481a5b9a5d1a585b1a5e995960921b6064820152fd5b50303b1580156107555750600187861614610755565b5060018786161061074e565b8334610a51576020366003190112610a5157610a03611381565b610a0b611549565b60fc80546001600160a01b0319166001600160a01b039290921691821790557f9eaa897564d022fb8c5efaf0acdb5d9d27b440b2aad44400b6e1c702e65b9ed38280a280f35b80fd5b509134610a515780600319360112610a5157507f00000000000000000000000000000000000000000000000000000000000000006001600160a01b03163003610aae5760208251600080516020611d6a8339815191528152f35b6020608492519162461bcd60e51b8352820152603860248201527f555550535570677261646561626c653a206d757374206e6f742062652063616c60448201527f6c6564207468726f7567682064656c656761746563616c6c00000000000000006064820152fd5b508060031936011261013157610b2a611381565b906024356001600160401b038111610de75736602382011215610de757610b5a903690602481870135910161143a565b6001600160a01b037f00000000000000000000000000000000000000000000000000000000000000008116929190610b9430851415611487565b610bb1600080516020611d6a8339815191529482865416146114e8565b610bb9611549565b7f4910fdfa16fed3260ed0e7147f7cc6da11a60208b5b9406d12a635614ffd91435460ff1615610bf1575050505061012e9150611941565b82516352d1902d60e01b81526020959394918416919086818981865afa899181610db4575b50610c7557855162461bcd60e51b8152808901889052602e60248201527f45524331393637557067726164653a206e657720696d706c656d656e7461746960448201526d6f6e206973206e6f74205555505360901b6064820152608490fd5b9691929594939603610d5f5750610c8b85611941565b7fbc7cd75a20ee27fd9adebab32041f755214dbc6bffa90cc0225b39da2e5c2d3b8680a2825115801590610d57575b610cc6575b5050505080f35b610d43938580835195610cd8876113c8565b602787527f416464726573733a206c6f772d6c6576656c2064656c65676174652063616c6c86880152660819985a5b195960ca1b858801528581519101845af4913d15610d4d573d610d35610d2c8261141f565b925192836113fe565b81528681943d92013e611cd8565b5038808080610cbf565b5060609250611cd8565b506001610cba565b825162461bcd60e51b8152908101849052602960248201527f45524331393637557067726164653a20756e737570706f727465642070726f786044820152681a58589b195555525160ba1b6064820152608490fd5b9091508781813d8311610de0575b610dcc81836113fe565b81010312610ddc57519038610c16565b8980fd5b503d610dc2565b8480fd5b50829034610189576020366003190112610189576001600160a01b03610e0f611381565b16825260fb60205260016020828420938351610e2a81611397565b8554958682526001600160401b0394859101541692839101528115928315610e65575b50506060945082519384526020840152151590820152f35b9091809350420391428311610e8957506060955060fc5460a01c1610908580610e4d565b634e487b7160e01b815260118752602490fd5b50346101315760208060031936011261021257610eb7611381565b916001600160a01b037f00000000000000000000000000000000000000000000000000000000000000008116610eef30821415611487565b610f0c600080516020611d6a8339815191529183835416146114e8565b610f14611549565b825190848201928284106001600160401b03851117611141578385528883527f4910fdfa16fed3260ed0e7147f7cc6da11a60208b5b9406d12a635614ffd91435460ff1615610f6d5750505050505061012e9150611941565b869293949596169085516352d1902d60e01b815287818a81865afa8a918161110e575b50610fef57865162461bcd60e51b8152808a01899052602e60248201527f45524331393637557067726164653a206e657720696d706c656d656e7461746960448201526d6f6e206973206e6f74205555505360901b6064820152608490fd5b9791929396959497036110b9575061100682611941565b7fbc7cd75a20ee27fd9adebab32041f755214dbc6bffa90cc0225b39da2e5c2d3b8780a2858451158015906110b2575b611044575b50505050505080f35b806110a696845196611055886113c8565b602788527f416464726573733a206c6f772d6c6576656c2064656c65676174652063616c6c87890152660819985a5b195960ca1b868901525190845af4913d15610d4d573d610d35610d2c8261141f565b5038808080808561103b565b5080611036565b835162461bcd60e51b8152908101859052602960248201527f45524331393637557067726164653a20756e737570706f727465642070726f786044820152681a58589b195555525160ba1b6064820152608490fd5b9091508881813d831161113a575b61112681836113fe565b8101031261113657519038610f90565b8a80fd5b503d61111c565b634e487b7160e01b895260418852602489fd5b5091903461018957826003193601126101895761116f611366565b90336001600160a01b0383160361118b579061012e913561181c565b608490602085519162461bcd60e51b8352820152602f60248201527f416363657373436f6e74726f6c3a2063616e206f6e6c792072656e6f756e636560448201526e103937b632b9903337b91039b2b63360891b6064820152fd5b8382346101895781600319360112610189576020906001600160401b0360fc5460a01c169051908152f35b509034610131578160031936011261013157359061122d611366565b90828452606560205261124560018286200154611711565b828452606560209081528185206001600160a01b039093168086529290528084205460ff1615611273578380f35b82845260656020528084208285526020528320600160ff1982541617905533917f2f8788117e7eff1d82e926ec794901d17c78024a50270940304540a733656f0d8480a43880808380f35b5090346101315760203660031901126101315781602093600192358152606585522001549051908152f35b83823461018957816003193601126101895760fc5490516001600160a01b039091168152602090f35b84908434610131576020366003190112610131573563ffffffff60e01b81168091036101315760209250637965db0b60e01b8114908115611355575b5015158152f35b6301ffc9a760e01b1490508361134e565b602435906001600160a01b038216820361137c57565b600080fd5b600435906001600160a01b038216820361137c57565b604081019081106001600160401b038211176113b257604052565b634e487b7160e01b600052604160045260246000fd5b606081019081106001600160401b038211176113b257604052565b608081019081106001600160401b038211176113b257604052565b90601f801991011681019081106001600160401b038211176113b257604052565b6001600160401b0381116113b257601f01601f191660200190565b9291926114468261141f565b9161145460405193846113fe565b82948184528183011161137c578281602093846000960137010152565b604435906001600160401b038216820361137c57565b1561148e57565b60405162461bcd60e51b815260206004820152602c60248201527f46756e6374696f6e206d7573742062652063616c6c6564207468726f7567682060448201526b19195b1959d85d1958d85b1b60a21b6064820152608490fd5b156114ef57565b60405162461bcd60e51b815260206004820152602c60248201527f46756e6374696f6e206d7573742062652063616c6c6564207468726f7567682060448201526b6163746976652070726f787960a01b6064820152608490fd5b3360009081527fffdfc1249c027f9191656349feb0761381bb32c9f557e01f419fd08754bf5a1b602090815260408083205490929060ff161561158b57505050565b61159433611b4a565b835190826115a1836113e3565b604283528483019360603686378351156116fd5760308553835190600191600110156116fd5790607860218601536041915b81831161168f5750505061164d576103c29385936116379361162860489461040e9951988576020b1b1b2b9b9a1b7b73a3937b61d1030b1b1b7bab73a1604d1b8b9788015282519283916037890191016118f2565b010360288101855201836113fe565b5162461bcd60e51b815291829160048301611915565b60648486519062461bcd60e51b825280600483015260248201527f537472696e67733a20686578206c656e67746820696e73756666696369656e746044820152fd5b909192600f811660108110156116e9576f181899199a1a9b1b9c1cb0b131b232b360811b901a6116bf8588611b23565b5360041c9280156116d5576000190191906115d3565b634e487b7160e01b82526011600452602482fd5b634e487b7160e01b83526032600452602483fd5b634e487b7160e01b81526032600452602490fd5b600081815260209060658252604092838220338352835260ff84832054161561173a5750505050565b61174333611b4a565b84519161174f836113e3565b604283528483019360603686378351156116fd5760308553835190600191600110156116fd5790607860218601536041915b8183116117d65750505061164d576103c29385936116379361162860489461040e9951988576020b1b1b2b9b9a1b7b73a3937b61d1030b1b1b7bab73a1604d1b8b9788015282519283916037890191016118f2565b909192600f811660108110156116e9576f181899199a1a9b1b9c1cb0b131b232b360811b901a6118068588611b23565b5360041c9280156116d557600019019190611781565b906000918083526065602052604083209160018060a01b03169182845260205260ff60408420541661184d57505050565b8083526065602052604083208284526020526040832060ff1981541690557ff6391f5c32d9c69d2a47ea670b442974b53935d1edc7fd64eb21e047a839171b339380a4565b1561189957565b60405162461bcd60e51b815260206004820152602b60248201527f496e697469616c697a61626c653a20636f6e7472616374206973206e6f74206960448201526a6e697469616c697a696e6760a81b6064820152608490fd5b60005b8381106119055750506000910152565b81810151838201526020016118f5565b6040916020825261193581518092816020860152602086860191016118f2565b601f01601f1916010190565b803b1561197657600080516020611d6a83398151915280546001600160a01b0319166001600160a01b03909216919091179055565b60405162461bcd60e51b815260206004820152602d60248201527f455243313936373a206e657720696d706c656d656e746174696f6e206973206e60448201526c1bdd08184818dbdb9d1c9858dd609a1b6064820152608490fd5b9060418151146000146119ff576119fb916020820151906060604084015193015160001a90611c49565b9091565b5050600090600290565b6005811015611b0d5780611a1a5750565b60018103611a675760405162461bcd60e51b815260206004820152601860248201527f45434453413a20696e76616c6964207369676e617475726500000000000000006044820152606490fd5b60028103611ab45760405162461bcd60e51b815260206004820152601f60248201527f45434453413a20696e76616c6964207369676e6174757265206c656e677468006044820152606490fd5b600314611abd57565b60405162461bcd60e51b815260206004820152602260248201527f45434453413a20696e76616c6964207369676e6174757265202773272076616c604482015261756560f01b6064820152608490fd5b634e487b7160e01b600052602160045260246000fd5b908151811015611b34570160200190565b634e487b7160e01b600052603260045260246000fd5b60405190611b57826113c8565b602a8252602082016040368237825115611b345760309053815160019060011015611b3457607860218401536029905b808211611bdb575050611b975790565b606460405162461bcd60e51b815260206004820152602060248201527f537472696e67733a20686578206c656e67746820696e73756666696369656e746044820152fd5b9091600f81166010811015611c34576f181899199a1a9b1b9c1cb0b131b232b360811b901a611c0a8486611b23565b5360041c918015611c1f576000190190611b87565b60246000634e487b7160e01b81526011600452fd5b60246000634e487b7160e01b81526032600452fd5b9291907f7fffffffffffffffffffffffffffffff5d576e7357a4501ddfe92f46681b20a08311611ccc5791608094939160ff602094604051948552168484015260408301526060820152600093849182805260015afa15611cbf5781516001600160a01b03811615611cb9579190565b50600190565b50604051903d90823e3d90fd5b50505050600090600390565b91929015611d3a5750815115611cec575090565b3b15611cf55790565b60405162461bcd60e51b815260206004820152601d60248201527f416464726573733a2063616c6c20746f206e6f6e2d636f6e74726163740000006044820152606490fd5b825190915015611d4d5750805190602001fd5b60405162461bcd60e51b815290819061040e906004830161191556fe360894a13ba1a3210667c828492db98dca3e2076cc3735a920a3ca505d382bbca264697066735822122052c4ee03c2ca61d28078e160a16a28a2a684ee1d559c88a41d0d5a58e26dbc4564736f6c63430008180033",
  "linkReferences": {},
  "deployedLinkReferences": {}
}