{
  "_format": "hh-sol-artifact-1",
  "contractName": "PerpEngine",
  "sourceName": "src/core/PerpEngine.sol",
  "abi": [
    {
      "inputs": [],
      "stateMutability": "nonpayable",
      "type": "constructor"
    },
    {
      "anonymous": false,
      "inputs": [
        {
          "indexed": false,
          "internalType": "address",
          "name": "previousAdmin",
          "type": "address"
        },
        {
          "indexed": false,
          "internalType": "address",
          "name": "newAdmin",
          "type": "address"
        }
      ],
      "name": "AdminChanged",
      "type": "event"
    },
    {
      "anonymous": false,
      "inputs": [
        {
          "indexed": true,
          "internalType": "address",
          "name": "beacon",
          "type": "address"
        }
      ],
      "name": "BeaconUpgraded",
      "type": "event"
    },
    {
      "anonymous": false,
      "inputs": [
        {
          "indexed": false,
          "internalType": "uint8",
          "name": "version",
          "type": "uint8"
        }
      ],
      "name": "Initialized",
      "type": "event"
    },
    {
      "anonymous": false,
      "inputs": [
        {
          "indexed": true,
          "internalType": "address",
          "name": "account",
          "type": "address"
        },
        {
          "indexed": false,
          "internalType": "bytes32",
          "name": "marketId",
          "type": "bytes32"
        },
        {
          "indexed": false,
          "internalType": "uint128",
          "name": "closedSize",
          "type": "uint128"
        },
        {
          "indexed": false,
          "internalType": "uint128",
          "name": "priceZ",
          "type": "uint128"
        },
        {
          "indexed": false,
          "internalType": "uint128",
          "name": "penaltyZ",
          "type": "uint128"
        }
      ],
      "name": "Liquidation",
      "type": "event"
    },
    {
      "anonymous": false,
      "inputs": [
        {
          "indexed": true,
          "internalType": "address",
          "name": "account",
          "type": "address"
        },
        {
          "indexed": true,
          "internalType": "bytes32",
          "name": "marketId",
          "type": "bytes32"
        },
        {
          "indexed": true,
          "internalType": "bytes32",
          "name": "fillId",
          "type": "bytes32"
        },
        {
          "indexed": false,
          "internalType": "bool",
          "name": "isBuy",
          "type": "bool"
        },
        {
          "indexed": false,
          "internalType": "uint128",
          "name": "size",
          "type": "uint128"
        },
        {
          "indexed": false,
          "internalType": "uint128",
          "name": "priceZ",
          "type": "uint128"
        },
        {
          "indexed": false,
          "internalType": "uint128",
          "name": "feeZ",
          "type": "uint128"
        },
        {
          "indexed": false,
          "internalType": "int128",
          "name": "fundingZ",
          "type": "int128"
        },
        {
          "indexed": false,
          "internalType": "int256",
          "name": "positionAfter",
          "type": "int256"
        }
      ],
      "name": "OrderFilled",
      "type": "event"
    },
    {
      "anonymous": false,
      "inputs": [
        {
          "indexed": true,
          "internalType": "address",
          "name": "user",
          "type": "address"
        },
        {
          "indexed": true,
          "internalType": "bytes32",
          "name": "marketId",
          "type": "bytes32"
        },
        {
          "indexed": false,
          "internalType": "uint256",
          "name": "positionSizeClosed",
          "type": "uint256"
        },
        {
          "indexed": false,
          "internalType": "uint256",
          "name": "collateralLostZ",
          "type": "uint256"
        },
        {
          "indexed": false,
          "internalType": "uint256",
          "name": "liquidationFeeZ",
          "type": "uint256"
        },
        {
          "indexed": false,
          "internalType": "uint256",
          "name": "timestamp",
          "type": "uint256"
        }
      ],
      "name": "PositionLiquidated",
      "type": "event"
    },
    {
      "anonymous": false,
      "inputs": [
        {
          "indexed": true,
          "internalType": "address",
          "name": "account",
          "type": "address"
        },
        {
          "indexed": false,
          "internalType": "bytes32",
          "name": "marketId",
          "type": "bytes32"
        },
        {
          "indexed": false,
          "internalType": "int256",
          "name": "newSize",
          "type": "int256"
        },
        {
          "indexed": false,
          "internalType": "uint128",
          "name": "entryPriceZ",
          "type": "uint128"
        },
        {
          "indexed": false,
          "internalType": "int256",
          "name": "unrealizedPnlZ",
          "type": "int256"
        }
      ],
      "name": "PositionUpdated",
      "type": "event"
    },
    {
      "anonymous": false,
      "inputs": [
        {
          "indexed": true,
          "internalType": "bytes32",
          "name": "role",
          "type": "bytes32"
        },
        {
          "indexed": true,
          "internalType": "bytes32",
          "name": "previousAdminRole",
          "type": "bytes32"
        },
        {
          "indexed": true,
          "internalType": "bytes32",
          "name": "newAdminRole",
          "type": "bytes32"
        }
      ],
      "name": "RoleAdminChanged",
      "type": "event"
    },
    {
      "anonymous": false,
      "inputs": [
        {
          "indexed": true,
          "internalType": "bytes32",
          "name": "role",
          "type": "bytes32"
        },
        {
          "indexed": true,
          "internalType": "address",
          "name": "account",
          "type": "address"
        },
        {
          "indexed": true,
          "internalType": "address",
          "name": "sender",
          "type": "address"
        }
      ],
      "name": "RoleGranted",
      "type": "event"
    },
    {
      "anonymous": false,
      "inputs": [
        {
          "indexed": true,
          "internalType": "bytes32",
          "name": "role",
          "type": "bytes32"
        },
        {
          "indexed": true,
          "internalType": "address",
          "name": "account",
          "type": "address"
        },
        {
          "indexed": true,
          "internalType": "address",
          "name": "sender",
          "type": "address"
        }
      ],
      "name": "RoleRevoked",
      "type": "event"
    },
    {
      "anonymous": false,
      "inputs": [
        {
          "indexed": true,
          "internalType": "address",
          "name": "user",
          "type": "address"
        },
        {
          "indexed": true,
          "internalType": "bytes32",
          "name": "marketId",
          "type": "bytes32"
        },
        {
          "indexed": false,
          "internalType": "string",
          "name": "symbol",
          "type": "string"
        },
        {
          "indexed": false,
          "internalType": "bool",
          "name": "isLong",
          "type": "bool"
        },
        {
          "indexed": false,
          "internalType": "uint256",
          "name": "amountBase",
          "type": "uint256"
        },
        {
          "indexed": false,
          "internalType": "uint256",
          "name": "leverageX",
          "type": "uint256"
        },
        {
          "indexed": false,
          "internalType": "uint256",
          "name": "entryPriceZ",
          "type": "uint256"
        },
        {
          "indexed": false,
          "internalType": "uint256",
          "name": "exitPriceZ",
          "type": "uint256"
        },
        {
          "indexed": false,
          "internalType": "uint256",
          "name": "collateralUsedToken",
          "type": "uint256"
        },
        {
          "indexed": false,
          "internalType": "uint256",
          "name": "timestamp",
          "type": "uint256"
        }
      ],
      "name": "TradeExecuted",
      "type": "event"
    },
    {
      "anonymous": false,
      "inputs": [
        {
          "indexed": true,
          "internalType": "address",
          "name": "implementation",
          "type": "address"
        }
      ],
      "name": "Upgraded",
      "type": "event"
    },
    {
      "inputs": [],
      "name": "DEFAULT_ADMIN_ROLE",
      "outputs": [
        {
          "internalType": "bytes32",
          "name": "",
          "type": "bytes32"
        }
      ],
      "stateMutability": "view",
      "type": "function"
    },
    {
      "inputs": [
        {
          "internalType": "bytes32",
          "name": "marketId",
          "type": "bytes32"
        }
      ],
      "name": "closePosition",
      "outputs": [],
      "stateMutability": "nonpayable",
      "type": "function"
    },
    {
      "inputs": [],
      "name": "collateralManager",
      "outputs": [
        {
          "internalType": "contract ICollateralManager",
          "name": "",
          "type": "address"
        }
      ],
      "stateMutability": "view",
      "type": "function"
    },
    {
      "inputs": [
        {
          "internalType": "address",
          "name": "account",
          "type": "address"
        }
      ],
      "name": "computeAccountMMRZ",
      "outputs": [
        {
          "internalType": "uint256",
          "name": "mmrZ",
          "type": "uint256"
        }
      ],
      "stateMutability": "view",
      "type": "function"
    },
    {
      "inputs": [
        {
          "internalType": "address",
          "name": "",
          "type": "address"
        },
        {
          "internalType": "bytes32",
          "name": "",
          "type": "bytes32"
        }
      ],
      "name": "entryPriceZ",
      "outputs": [
        {
          "internalType": "uint128",
          "name": "",
          "type": "uint128"
        }
      ],
      "stateMutability": "view",
      "type": "function"
    },
    {
      "inputs": [],
      "name": "feeSplitter",
      "outputs": [
        {
          "internalType": "contract IFeeSplitterSpoke",
          "name": "",
          "type": "address"
        }
      ],
      "stateMutability": "view",
      "type": "function"
    },
    {
      "inputs": [
        {
          "internalType": "address",
          "name": "account",
          "type": "address"
        }
      ],
      "name": "getOpenMarketsForAccount",
      "outputs": [
        {
          "internalType": "bytes32[]",
          "name": "",
          "type": "bytes32[]"
        }
      ],
      "stateMutability": "view",
      "type": "function"
    },
    {
      "inputs": [
        {
          "internalType": "address",
          "name": "account",
          "type": "address"
        },
        {
          "internalType": "bytes32",
          "name": "marketId",
          "type": "bytes32"
        }
      ],
      "name": "getPosition",
      "outputs": [
        {
          "internalType": "int256",
          "name": "",
          "type": "int256"
        }
      ],
      "stateMutability": "view",
      "type": "function"
    },
    {
      "inputs": [
        {
          "internalType": "address",
          "name": "account",
          "type": "address"
        },
        {
          "internalType": "bytes32",
          "name": "marketId",
          "type": "bytes32"
        }
      ],
      "name": "getPositionMarginRatioBps",
      "outputs": [
        {
          "internalType": "uint256",
          "name": "",
          "type": "uint256"
        }
      ],
      "stateMutability": "view",
      "type": "function"
    },
    {
      "inputs": [
        {
          "internalType": "bytes32",
          "name": "role",
          "type": "bytes32"
        }
      ],
      "name": "getRoleAdmin",
      "outputs": [
        {
          "internalType": "bytes32",
          "name": "",
          "type": "bytes32"
        }
      ],
      "stateMutability": "view",
      "type": "function"
    },
    {
      "inputs": [
        {
          "internalType": "address",
          "name": "account",
          "type": "address"
        }
      ],
      "name": "getUnrealizedPnlZ",
      "outputs": [
        {
          "internalType": "int256",
          "name": "",
          "type": "int256"
        }
      ],
      "stateMutability": "view",
      "type": "function"
    },
    {
      "inputs": [
        {
          "internalType": "bytes32",
          "name": "role",
          "type": "bytes32"
        },
        {
          "internalType": "address",
          "name": "account",
          "type": "address"
        }
      ],
      "name": "grantRole",
      "outputs": [],
      "stateMutability": "nonpayable",
      "type": "function"
    },
    {
      "inputs": [
        {
          "internalType": "bytes32",
          "name": "role",
          "type": "bytes32"
        },
        {
          "internalType": "address",
          "name": "account",
          "type": "address"
        }
      ],
      "name": "hasRole",
      "outputs": [
        {
          "internalType": "bool",
          "name": "",
          "type": "bool"
        }
      ],
      "stateMutability": "view",
      "type": "function"
    },
    {
      "inputs": [
        {
          "internalType": "address",
          "name": "admin",
          "type": "address"
        },
        {
          "internalType": "address",
          "name": "_vault",
          "type": "address"
        }
      ],
      "name": "initialize",
      "outputs": [],
      "stateMutability": "nonpayable",
      "type": "function"
    },
    {
      "inputs": [
        {
          "internalType": "address",
          "name": "account",
          "type": "address"
        },
        {
          "internalType": "bytes32",
          "name": "marketId",
          "type": "bytes32"
        }
      ],
      "name": "liquidate",
      "outputs": [],
      "stateMutability": "nonpayable",
      "type": "function"
    },
    {
      "inputs": [
        {
          "internalType": "bytes32",
          "name": "",
          "type": "bytes32"
        }
      ],
      "name": "markets",
      "outputs": [
        {
          "internalType": "address",
          "name": "base",
          "type": "address"
        },
        {
          "internalType": "uint8",
          "name": "baseDecimals",
          "type": "uint8"
        },
        {
          "internalType": "string",
          "name": "symbol",
          "type": "string"
        }
      ],
      "stateMutability": "view",
      "type": "function"
    },
    {
      "inputs": [
        {
          "internalType": "bytes32",
          "name": "marketId",
          "type": "bytes32"
        },
        {
          "internalType": "bool",
          "name": "isLong",
          "type": "bool"
        },
        {
          "internalType": "uint256",
          "name": "collateralZToken",
          "type": "uint256"
        },
        {
          "internalType": "uint256",
          "name": "leverageX",
          "type": "uint256"
        }
      ],
      "name": "openPosition",
      "outputs": [],
      "stateMutability": "nonpayable",
      "type": "function"
    },
    {
      "inputs": [],
      "name": "oracleRouter",
      "outputs": [
        {
          "internalType": "contract IOracleRouter",
          "name": "",
          "type": "address"
        }
      ],
      "stateMutability": "view",
      "type": "function"
    },
    {
      "inputs": [
        {
          "internalType": "address",
          "name": "",
          "type": "address"
        },
        {
          "internalType": "bytes32",
          "name": "",
          "type": "bytes32"
        }
      ],
      "name": "positions",
      "outputs": [
        {
          "internalType": "int256",
          "name": "",
          "type": "int256"
        }
      ],
      "stateMutability": "view",
      "type": "function"
    },
    {
      "inputs": [],
      "name": "proxiableUUID",
      "outputs": [
        {
          "internalType": "bytes32",
          "name": "",
          "type": "bytes32"
        }
      ],
      "stateMutability": "view",
      "type": "function"
    },
    {
      "inputs": [
        {
          "components": [
            {
              "internalType": "bytes32",
              "name": "fillId",
              "type": "bytes32"
            },
            {
              "internalType": "address",
              "name": "account",
              "type": "address"
            },
            {
              "internalType": "bytes32",
              "name": "marketId",
              "type": "bytes32"
            },
            {
              "internalType": "bool",
              "name": "isBuy",
              "type": "bool"
            },
            {
              "internalType": "uint128",
              "name": "size",
              "type": "uint128"
            },
            {
              "internalType": "uint128",
              "name": "priceZ",
              "type": "uint128"
            },
            {
              "internalType": "uint128",
              "name": "feeZ",
              "type": "uint128"
            },
            {
              "internalType": "int128",
              "name": "fundingZ",
              "type": "int128"
            },
            {
              "internalType": "uint64",
              "name": "ts",
              "type": "uint64"
            }
          ],
          "internalType": "struct IPerpEngine.Fill",
          "name": "f",
          "type": "tuple"
        }
      ],
      "name": "recordFill",
      "outputs": [],
      "stateMutability": "nonpayable",
      "type": "function"
    },
    {
      "inputs": [
        {
          "internalType": "bytes32",
          "name": "marketId",
          "type": "bytes32"
        },
        {
          "internalType": "address",
          "name": "base",
          "type": "address"
        },
        {
          "internalType": "uint8",
          "name": "baseDecimals",
          "type": "uint8"
        },
        {
          "internalType": "string",
          "name": "symbol",
          "type": "string"
        }
      ],
      "name": "registerMarket",
      "outputs": [],
      "stateMutability": "nonpayable",
      "type": "function"
    },
    {
      "inputs": [
        {
          "internalType": "bytes32",
          "name": "marketId",
          "type": "bytes32"
        },
        {
          "internalType": "address",
          "name": "base",
          "type": "address"
        },
        {
          "internalType": "uint8",
          "name": "baseDecimals",
          "type": "uint8"
        }
      ],
      "name": "registerMarket",
      "outputs": [],
      "stateMutability": "nonpayable",
      "type": "function"
    },
    {
      "inputs": [
        {
          "internalType": "bytes32",
          "name": "role",
          "type": "bytes32"
        },
        {
          "internalType": "address",
          "name": "account",
          "type": "address"
        }
      ],
      "name": "renounceRole",
      "outputs": [],
      "stateMutability": "nonpayable",
      "type": "function"
    },
    {
      "inputs": [
        {
          "internalType": "bytes32",
          "name": "role",
          "type": "bytes32"
        },
        {
          "internalType": "address",
          "name": "account",
          "type": "address"
        }
      ],
      "name": "revokeRole",
      "outputs": [],
      "stateMutability": "nonpayable",
      "type": "function"
    },
    {
      "inputs": [],
      "name": "riskConfig",
      "outputs": [
        {
          "internalType": "contract IRiskConfig",
          "name": "",
          "type": "address"
        }
      ],
      "stateMutability": "view",
      "type": "function"
    },
    {
      "inputs": [
        {
          "internalType": "bytes32",
          "name": "",
          "type": "bytes32"
        }
      ],
      "name": "seenFill",
      "outputs": [
        {
          "internalType": "bool",
          "name": "",
          "type": "bool"
        }
      ],
      "stateMutability": "view",
      "type": "function"
    },
    {
      "inputs": [
        {
          "internalType": "address",
          "name": "_risk",
          "type": "address"
        },
        {
          "internalType": "address",
          "name": "_oracleRouter",
          "type": "address"
        },
        {
          "internalType": "address",
          "name": "_collateralManager",
          "type": "address"
        },
        {
          "internalType": "address",
          "name": "_treasury",
          "type": "address"
        },
        {
          "internalType": "address",
          "name": "_feeSplitter",
          "type": "address"
        },
        {
          "internalType": "address",
          "name": "_zUsd",
          "type": "address"
        }
      ],
      "name": "setDeps",
      "outputs": [],
      "stateMutability": "nonpayable",
      "type": "function"
    },
    {
      "inputs": [
        {
          "internalType": "bytes4",
          "name": "interfaceId",
          "type": "bytes4"
        }
      ],
      "name": "supportsInterface",
      "outputs": [
        {
          "internalType": "bool",
          "name": "",
          "type": "bool"
        }
      ],
      "stateMutability": "view",
      "type": "function"
    },
    {
      "inputs": [],
      "name": "treasury",
      "outputs": [
        {
          "internalType": "contract ITreasurySpoke",
          "name": "",
          "type": "address"
        }
      ],
      "stateMutability": "view",
      "type": "function"
    },
    {
      "inputs": [
        {
          "internalType": "bytes32",
          "name": "",
          "type": "bytes32"
        },
        {
          "internalType": "uint256",
          "name": "",
          "type": "uint256"
        }
      ],
      "name": "updatePositionMargin",
      "outputs": [],
      "stateMutability": "nonpayable",
      "type": "function"
    },
    {
      "inputs": [
        {
          "internalType": "address",
          "name": "newImplementation",
          "type": "address"
        }
      ],
      "name": "upgradeTo",
      "outputs": [],
      "stateMutability": "nonpayable",
      "type": "function"
    },
    {
      "inputs": [
        {
          "internalType": "address",
          "name": "newImplementation",
          "type": "address"
        },
        {
          "internalType": "bytes",
          "name": "data",
          "type": "bytes"
        }
      ],
      "name": "upgradeToAndCall",
      "outputs": [],
      "stateMutability": "payable",
      "type": "function"
    },
    {
      "inputs": [],
      "name": "vault",
      "outputs": [
        {
          "internalType": "contract IMarginVault",
          "name": "",
          "type": "address"
        }
      ],
      "stateMutability": "view",
      "type": "function"
    },
    {
      "inputs": [],
      "name": "zUsd",
      "outputs": [
        {
          "internalType": "contract IERC20",
          "name": "",
          "type": "address"
        }
      ],
      "stateMutability": "view",
      "type": "function"
    }
  ],
  "bytecode": "0x60a08060405234620000e157306080526000549060ff8260081c166200008f575060ff8082160362000053575b6040516145039081620000e782396080518181816117ec015281816118ec01526124940152f35b60ff90811916176000557f7f26b83ff96e1f2b6a682f133852f6798a09c465da95921460cefb3847402498602060405160ff8152a1386200002c565b62461bcd60e51b815260206004820152602760248201527f496e697469616c697a61626c653a20636f6e747261637420697320696e697469604482015266616c697a696e6760c81b6064820152608490fd5b600080fdfe608080604052600436101561001357600080fd5b600090813560e01c90816301ffc9a714613049575080630fa8f516146126c457806323be345c1461301f578063248a9ca314612ff25780632f2ff15d14612f555780632f998c2b1461270857806334176a6d146126c457806336568abe146126315780633659cfe61461246f5780633af8c7a614611eb95780633b2f654114611e895780633ee8606814611e61578063485cc95514611b6c5780634f1ef2861461189d57806352d1902d146117d957806355a29e91146117af5780636052970c1461178557806361d027b31461175b578063678ab5e9146115ac5780636b20566f146115825780637564912b1461151f5780637c90a6ca146114f5578063885a586a1461143257806390f1f83214610d9757806391d1485414610d4b57806392900d8914610d1f578063a217fddf14610d03578063bb77781614610c50578063cd4f617a14610c02578063d547741f14610bc1578063e54a2ad5146105ef578063ed231bb2146105da578063f9d021681461041b578063fbfa77cf146103f15763fc703ef5146101a257600080fd5b346103ee57602090816003193601126103ee576101bd61309e565b819060018060a01b038091169182845261013585526040842093604051808688829854938481520190845288842092845b8a8282106103d85750505061020592500386613160565b8091836101325416905b86518410156103ce57610222848861389b565b5190868452610137895260408420828552895260408420549182156103c3576101348a5260408520908a88604051610259816130ca565b6102796001865496848816845260ff809685019860a01c1688520161321d565b604082015251169160405192632021fa9960e11b845260048401526040836024818a5afa80156103b8578b8e918a958b91610383575b5061037357879561031461030e61033c99978d976103319760019d9761032b978b52610138815260408b20918b525261031a6001600160801b0360408b2054169261031461030e8c8b139a8b60001461036457925b858a511693613409565b91613432565b90613443565b9615610355578a945b511693613409565b90613aeb565b9212610345576134ad565b935b019261020f565b9061034f9061349c565b906134ad565b61035e8b61349c565b94610323565b61036d9061349c565b92610304565b505050505050936001915061033e565b90506103a891955060403d6040116103b1575b6103a08183613160565b810190613356565b949094386102af565b503d610396565b6040513d8a823e3d90fd5b50936001915061033e565b8790604051908152f35b855484526001958601958b9550930192016101ee565b80fd5b50346103ee57806003193601126103ee5761012d546040516001600160a01b039091168152602090f35b50346103ee5760603660031901126103ee576104356130b4565b61043d6131d3565b610445613e45565b60405190610452826130ca565b6001600160a01b03928316825260ff1660208083019182526040519390919061047a8561312a565b85855260408401948552600435865261013483526040862093511683549160ff60a01b905160a01b16916affffffffffffffffffffff60a81b161717825560018092019251908151916001600160401b0383116105c6576104db85546131e3565b601f811161057f575b5081601f841160011461051e57509282939183928794610513575b50501b916000199060031b1c191617905580f35b0151925038806104ff565b919083601f1981168789528489209489905b88838310610565575050501061054c575b505050811b01905580f35b015160001960f88460031b161c19169055388080610541565b858701518855909601959485019487935090810190610530565b858752828720601f850160051c8101918486106105bc575b601f0160051c019085905b8281106105b05750506104e4565b600081550185906105a2565b9091508190610597565b634e487b7160e01b86526041600452602486fd5b50346103ee5760403660031901126103ee5780f35b50346103ee5760203660031901126103ee57610609614097565b338152610137602052604081206004358252602052604081205461062e811515613649565b6004358252610134602052604082209061066d600160405193610650856130ca565b60ff8154838060a01b038116875260a01c1660208601520161321d565b6040838101919091526101325483518251632021fa9960e11b81526001600160a01b039182166004820152929183916024918391165afa8015610b1d5784918591610b9c575b506106be9015613373565b83821315610b8e57815b60405133602082015260043560408201524360608201528160808201528584131560a082015260c080820152600560e082015264636c6f736560d81b6101008201526101008152610718816130fb565b60208151910120936040519461072d866130fb565b80865233602087015260043560408701528685131560608701526001600160801b03831660808701526001600160801b03841660a08701528660c08701528660e08701526001600160401b03421661010087015286526101368060205261079b60ff60408920541615613463565b8551875260209081526040808820805460ff1916600117905581870180516001600160a01b039081168a526101378452828a20838a0180518c52908552838b208b9055825182168b52610138808652848c2082518d528652848c205493519092168b52908452828a2090518a52835290882080546001600160801b0319169055908201516001600160801b03919091169287916108639161085d916103149061030e9061084e9060ff1683838c87613409565b9760ff60208901511693613409565b84613aeb565b9281861315610b7e575b610130546001600160a01b0316806109d8575b50506080916001600160801b039360409260018060a01b0360208a015116848a0151907ffcbbc206b8b5ae4c0e041e9feb6d2d96311d0c43b618bf39522dfb4bd576abf160c08c80519560608201511515918c8c82015116908d60a08201511660e08f8784015116920151600f0b928d5195865260208601528c85015260608401528b83015260a0820152a47fd42465fdf83c2caae0b312084baf414a8c41f2dfb17d9d20c5378aee4d9eb2938460018060a01b0360208b01511692858b0151908860a08d01511687519283528d6020840152878301526060820152a20151940151168461097b6040519561010087526101008701906132e5565b9313156020850152604084015283606084015283608084015260a08301528260c08301524260e08301527ff082079338fc47f94a0fe2984a208a2812cd868cfe3617b8943ff1e737dbc79d600435928033930390a3600160fb5580f35b60206024916040519283809263309dcb2160e11b825260043560048301525afa908115610b73578391610b28575b506127109161ffff610a19921690613409565b6101335461013154604051630e68ec9560e01b81526001600160a01b0391821660048201819052949093049160809184916024918391165afa908115610b1d57610a6a928592610ae8575b5061414d565b61012d5460208901516001600160a01b03908116929116803b15610ae457610aac93858094604051968795869485936375c844c960e01b85526004850161351a565b03925af18015610ad957610ac1575b80610880565b610aca90613117565b610ad5578538610abb565b8580fd5b6040513d84823e3d90fd5b8480fd5b610b0b91925060803d608011610b16575b610b038183613160565b8101906133bc565b925050509038610a64565b503d610af9565b6040513d86823e3d90fd5b90506020813d602011610b6b575b81610b4360209383613160565b81010312610b67576127109161ffff610b5e610a19936133ad565b92505091610a06565b8280fd5b3d9150610b36565b6040513d85823e3d90fd5b92610b889061349c565b9261086d565b610b978261349c565b6106c8565b6106be9250610bba915060403d6040116103b1576103a08183613160565b90916106b3565b50346103ee5760403660031901126103ee57610bff600435610be16130b4565b908084526065602052610bfa6001604086200154613f8b565b61417e565b80f35b50346103ee5760403660031901126103ee576020906001600160801b03906040906001600160a01b03610c3361309e565b168152610138845281812060243582528452205416604051908152f35b50346103ee57602080600319360112610cff576001600160a01b03610c7361309e565b16825261013581526040822060405192838383549182815201908193835284832090835b818110610ceb5750505084610cad910385613160565b60405193838594850191818652518092526040850193925b828110610cd457505050500390f35b835185528695509381019392810192600101610cc5565b825484529286019260019283019201610c97565b5080fd5b50346103ee57806003193601126103ee57602090604051908152f35b50346103ee5760203660031901126103ee576020610d43610d3e61309e565b6138af565b604051908152f35b50346103ee5760403660031901126103ee576040610d676130b4565b9160043581526065602052209060018060a01b0316600052602052602060ff604060002054166040519015158152f35b50346103ee576101203660031901126103ee57610db2613cff565b610dba614097565b600435808252610136602090808252610dda60ff60408620541615613463565b828452815260408320805460ff1916600117905561012e546001600160a01b039290831680151580611424575b61136a575b5082610e16613876565b1684526101379283835260408520936044359485875284526040862054610e3b61388c565b1561134a57866001600160801b03610e5161384a565b16915b610e5e83826134ad565b9385610e68613876565b168352875260408220888352875283604083205584610e85613876565b168252868561013894858352604085208b865283526001600160801b03958686816040822054169361013487526040822097610ee260016040519a610ec98c6130ca565b8054998a168c5260ff8b8d019a60a01c168a520161321d565b60408a0152610ef58d8a5116151561330a565b801595868015611337575b8015611324575b15611247575050505050610f19613860565b9089610f23613876565b1687528452604086208c87528452866040872091166001600160801b03198254161790555b8061123e575b61121b575b86806101305416938415158061120d575b6110b4575b509250505061012f54168061104b575b5050610f83613876565b94610f8c61388c565b94610f9561384a565b610f9d613860565b96610fa6613834565b60e4359081600f0b8203611047577fd42465fdf83c2caae0b312084baf414a8c41f2dfb17d9d20c5378aee4d9eb2939a611012897ffcbbc206b8b5ae4c0e041e9feb6d2d96311d0c43b618bf39522dfb4bd576abf1948f979460809e8e9660405197889716998761354a565b0390a461101d613876565b92611026613860565b916040519889528801521660408601528560608601521692a2600160fb5580f35b8c80fd5b606090602484611059613834565b1660405194859384926397046d9960e01b845260048401525af180156103b857611085575b8790610f79565b606090813d83116110ad575b61109b8183613160565b810103126110a9573861107e565b8680fd5b503d611091565b51169260ff866110c261384a565b16925116938b61111b886110d4613860565b16604051978896879586956317850a8160e01b875260048701919360809360ff9297969560a0850198855260018060a01b0316602085015260408401521660608201520152565b03915afa908115610ad95782916111d7575b5060248561013354169160808761013154169360405193848092630e68ec9560e01b82528760048301525afa908115610b1d57611170928592610ae8575061414d565b8561012d54169061117f613876565b91803b15610ae4576111ab938580946040519687958694859363269efa1560e01b85526004850161351a565b03925af18015610ad9576111c3575b86818681610f69565b6111cc90613117565b6110a95786386111ba565b809250878092503d8311611206575b6111f08183613160565b81010312611201578790513861112d565b600080fd5b503d6111e6565b508161013154161515610f64565b86611224613876565b16845261013582526112398a604086206134d6565b610f53565b50851515610f4e565b838213808061131b575b8015611308575b156112fc576112906112a7936112a1926112ac97506000146112ed57945b8d8113156112de57925b61128a84876134c9565b95613409565b918661129a613860565b1690613409565b906134c9565b613443565b1690896112b7613876565b1687528452604086208c8752845260408620906001600160801b0319825416179055610f48565b6112e79061349c565b92611280565b6112f69061349c565b94611276565b50505050505050610f48565b5084831280156112585750848412611258565b50848413611251565b508382128015610f075750838d13610f07565b508382138015610f005750838d12610f00565b866113646001600160801b0361135e61384a565b1661349c565b91610e54565b828461013154166024604051809481936370a0823160e01b835260048301525afa9081156114195785916113ec575b506001600160801b036113aa613834565b16116113b65738610e0c565b60405162461bcd60e51b815260048101839052600e60248201526d199959481b9bdd08199d5b99195960921b6044820152606490fd5b90508281813d8311611412575b6114038183613160565b81010312611201575138611399565b503d6113f9565b6040513d87823e3d90fd5b508361013154161515610e07565b50346103ee5760c03660031901126103ee5761144c61309e565b6114546130b4565b6001600160a01b039060443582811690819003611201576064359083821680920361120157608435928484168094036112015760a435948086168096036112015761149d613e45565b6bffffffffffffffffffffffff60a01b9681610130911688825416179055610132911686825416179055610133908582541617905561012e908482541617905561012f90838254161790556101319182541617905580f35b50346103ee57806003193601126103ee57610130546040516001600160a01b039091168152602090f35b50346103ee5760203660031901126103ee57604060ff9160043581526101346020522061157e61155360018354930161321d565b60405193849360018060a01b038116855260a01c1660208401526060604084015260608301906132e5565b0390f35b50346103ee57806003193601126103ee57610131546040516001600160a01b039091168152602090f35b50346103ee5760803660031901126103ee576115c66130b4565b6115ce6131d3565b606435906001600160401b0390818311610ae45736602384011215610ae457826004013590828211610ad5573660248386010111610ad55761160e613e45565b6116406040519461161e866130ca565b60018060a01b03809716865260209360ff85880194168452602436920161319c565b9460408501958652600435875261013483526040872094511684549160ff60a01b905160a01b16916affffffffffffffffffffff60a81b16171783556001809301935180519283116105c65761169685546131e3565b601f8111611714575b5081601f84116001146116cd575092829391839287946105135750501b916000199060031b1c191617905580f35b919083601f1981168789528489209489905b888383106116fa575050501061054c57505050811b01905580f35b8587015188559096019594850194879350908101906116df565b858752828720601f850160051c810191848610611751575b601f0160051c019085905b82811061174557505061169f565b60008155018590611737565b909150819061172c565b50346103ee57806003193601126103ee5761012e546040516001600160a01b039091168152602090f35b50346103ee57806003193601126103ee5761012f546040516001600160a01b039091168152602090f35b50346103ee57806003193601126103ee57610132546040516001600160a01b039091168152602090f35b50346103ee57806003193601126103ee577f00000000000000000000000000000000000000000000000000000000000000006001600160a01b031630036118325760206040516000805160206144ae8339815191528152f35b60405162461bcd60e51b815260206004820152603860248201527f555550535570677261646561626c653a206d757374206e6f742062652063616c60448201527f6c6564207468726f7567682064656c656761746563616c6c00000000000000006064820152608490fd5b5060403660031901126103ee576118b261309e565b6024356001600160401b038111610b675736602382011215610b67576118e290369060248160040135910161319c565b6001600160a01b037f0000000000000000000000000000000000000000000000000000000000000000811692919061191c30851415613587565b6119396000805160206144ae8339815191529482865416146135e8565b611941613b04565b7f4910fdfa16fed3260ed0e7147f7cc6da11a60208b5b9406d12a635614ffd91435460ff1615611977575050610bff9150614254565b8216604051936352d1902d60e01b85526020948581600481865afa60009181611b3d575b506119fc5760405162461bcd60e51b815260048101879052602e60248201527f45524331393637557067726164653a206e657720696d706c656d656e7461746960448201526d6f6e206973206e6f74205555505360901b6064820152608490fd5b9492939403611ae657611a0e84614254565b7fbc7cd75a20ee27fd9adebab32041f755214dbc6bffa90cc0225b39da2e5c2d3b600080a2815115801590611ade575b611a49575b50505080f35b611acc9260008060405194611a5d866130ca565b602786527f416464726573733a206c6f772d6c6576656c2064656c65676174652063616c6c85870152660819985a5b195960ca1b60408701528481519101845af4903d15611ad5573d611aaf81613181565b90611abd6040519283613160565b8152600081943d92013e6143f4565b50388080611a43565b606092506143f4565b506001611a3e565b60405162461bcd60e51b815260048101839052602960248201527f45524331393637557067726164653a20756e737570706f727465642070726f786044820152681a58589b195555525160ba1b6064820152608490fd5b9091508681813d8311611b65575b611b558183613160565b810103126112015751903861199b565b503d611b4b565b50346103ee5760403660031901126103ee57611b8661309e565b611b8e6130b4565b9082549060ff92838360081c161591828093611e55575b8015611e3f575b15611de35760019460ff19948487878316178955611dd2575b50611bf081885460081c16611bd9816141f4565b611be2816141f4565b611beb816141f4565b6141f4565b60fb8690556001600160a01b0391821660008181527fffdfc1249c027f9191656349feb0761381bb32c9f557e01f419fd08754bf5a1b6020908152604090912054909690606590841615611d98575b7f71a9859d7dd21b24504a6f306077ffc2d510b4d4b61128e931fe937441ad1836806000528189526040600020846000528952846040600020541615611d5d575b507f151ff8b4d0da3f5c5fabf30466470e82bc2019e5d78c902a7dc3f2aa4c0bdbcc938460005281895260406000208460005289526040600020541615611d21575b5050505061012d91166bffffffffffffffffffffffff60a01b825416179055611ce9578280f35b825461ff00191683556040519182527f7f26b83ff96e1f2b6a682f133852f6798a09c465da95921460cefb384740249891a138808280f35b836000528752604060002082600052875287604060002091825416179055339160008051602061448e833981519152600080a438808080611cc2565b80600052818952604060002084600052895260406000208a8482541617905583339160008051602061448e833981519152600080a438611c80565b600080528088526040600020836000528852604060002089838254161790553383600060008051602061448e8339815191528180a4611c3f565b61ffff191661010117875538611bc5565b60405162461bcd60e51b815260206004820152602e60248201527f496e697469616c697a61626c653a20636f6e747261637420697320616c72656160448201526d191e481a5b9a5d1a585b1a5e995960921b6064820152608490fd5b50303b158015611bac5750600185851614611bac565b50600185851610611ba5565b50346103ee5760403660031901126103ee576020610d43611e8061309e565b6024359061367e565b50346103ee5760203660031901126103ee5760ff6040602092600435815261013684522054166040519015158152f35b50346103ee5760403660031901126103ee57611ed361309e565b611edb613cff565b6001600160a01b0381168252610137602081815260408085206024358652909152832054611f0a811515613649565b610130546001600160a01b03166123b8575b838113156123a957905b6001600160a01b03831680855260209182526040808620602435808852908452818720879055918652610138835280862091865290825280852080546001600160801b0319169055610134909152808420905190611f83826130ca565b80546001600160a01b038116835260a01c60ff166020830190815290611fab9060010161321d565b6040838101919091526101325492518151632021fa9960e11b81526001600160a01b0391821660048201529384916024918391165afa80156114195785928691612378575b506120109161200160ff9215613373565b511661031461030e8486613409565b61013054604051630a50b30b60e01b81526024803560048301529293929091602091839182906001600160a01b03165afa90811561236d578691612328575b5061206161ffff612710921684613409565b04918560018060a01b03610131541680151580612313575b612298575b50506101305460405163309dcb2160e11b81526024803560048301529091602091839182906001600160a01b03165afa90811561228d578791612246575b506127109161ffff6120cf921690613409565b04908560018060a01b0361013354166024608060018060a01b0361013154169260405192838092630e68ec9560e01b82528660048301525afa8015610b7357612120918491612223575b508561414d565b61012d546001600160a01b03169190823b1561221f5761215b928492838b604051968795869485936375c844c960e01b85526004850161351a565b03925af18015610ad95761220b575b50506001600160801b03806040519260243584528187166020850152166040830152831660608201527f64082c64074241df665a0fd63bf8c6cce7d81950e3ce820493a3e9e0978b63f5608060018060a01b03871692a2604051928352602083015260408201524260608201527f2a9e669679210c137a9c649ae599916a0a931e3c2a73218f5c24d5ec1e64c41060806024359360018060a01b031692a380f35b61221490613117565b610ad557853861216a565b8380fd5b61223c915060803d608011610b1657610b038183613160565b9250505038612119565b90506020813d602011612285575b8161226160209383613160565b810103126110a9576127109161ffff61227c6120cf936133ad565b925050916120bc565b3d9150612254565b6040513d89823e3d90fd5b602090604460018060a01b0361012e5416604051948593849263a9059cbb60e01b845260048401528960248401525af1801561228d576122da575b869061207e565b6020813d60201161230b575b816122f360209383613160565b810103126110a95761230490613349565b50386122d3565b3d91506122e6565b5061012e546001600160a01b03161515612079565b90506020813d602011612365575b8161234360209383613160565b81010312610ad55761206161ffff61235d612710936133ad565b92505061204f565b3d9150612336565b6040513d88823e3d90fd5b612001935060ff91509161239d6120109360403d6040116103b1576103a08183613160565b94909492505091611ff0565b6123b29061349c565b90611f26565b61012d54604051630395f85d60e41b81526001600160a01b038581166004830152909160209183916024918391165afa90811561141957859161243d575b50612400846138af565b13611f1c5760405162461bcd60e51b815260206004820152601060248201526f6e6f74206c6971756964617461626c6560801b6044820152606490fd5b90506020813d602011612467575b8161245860209383613160565b810103126112015751386123f6565b3d915061244b565b50346103ee57602080600319360112610cff5761248a61309e565b6001600160a01b037f000000000000000000000000000000000000000000000000000000000000000081166124c130821415613587565b6124de6000805160206144ae8339815191529183835416146135e8565b6124e6613b04565b604051916124f38361312a565b8583527f4910fdfa16fed3260ed0e7147f7cc6da11a60208b5b9406d12a635614ffd91435460ff161561252d57505050610bff9150614254565b8316906040516352d1902d60e01b81528581600481865afa60009181612602575b506125af5760405162461bcd60e51b815260048101879052602e60248201527f45524331393637557067726164653a206e657720696d706c656d656e7461746960448201526d6f6e206973206e6f74205555505360901b6064820152608490fd5b9492939403611ae6576125c184614254565b7fbc7cd75a20ee27fd9adebab32041f755214dbc6bffa90cc0225b39da2e5c2d3b600080a28151158015906125fa57611a495750505080f35b506000611a3e565b9091508681813d831161262a575b61261a8183613160565b810103126112015751903861254e565b503d612610565b50346103ee5760403660031901126103ee5761264b6130b4565b336001600160a01b0382160361266757610bff9060043561417e565b60405162461bcd60e51b815260206004820152602f60248201527f416363657373436f6e74726f6c3a2063616e206f6e6c792072656e6f756e636560448201526e103937b632b9903337b91039b2b63360891b6064820152608490fd5b50346103ee5760403660031901126103ee576020906040906001600160a01b036126ec61309e565b1681526101378352818120602435825283522054604051908152f35b50346103ee5760803660031901126103ee576024358015158103610cff5761272e614097565b60043582526101346020526040822090612750600160405193610650856130ca565b6040830152815161276b906001600160a01b0316151561330a565b61013254825160408051632021fa9960e11b81526001600160a01b03928316600482015292909183916024918391165afa8015610b1d5784918591612f30575b506127b69015613373565b60643515612f03576101335461013154604051630e68ec9560e01b81526001600160a01b0391821660048201529160809183916024918391165afa908115611419576112a76128206128369385938991612ee0575b5061281b60643591604435614111565b613409565b61283060ff602089015116613432565b90613409565b928315612eb25760405193336020860152600435604086015243606086015280608086015283151560a086015260443560c086015260c085528460e08101106001600160401b0360e0870111176105c65760e085016040526001600160801b0385516020870120916128aa60e088016130fb565b8260e088015233610100880152600435610120880152851515610140880152166101608601526001600160801b038316610180860152856101a0860152856101c08601526001600160401b0342166101e086015285526101368060205261291860ff60408820541615613463565b60e0850151865260209081526040808720805460ff191660011790556101008601516001600160a01b031687526101378252808720610120870151885290915285205461014085015115612e95576001600160801b0361016086015116905b61298182826134ad565b9160018060a01b0361010088015116885261013760205260408820610120880151895260205282604089205560018060a01b036101008801511688526101389081602052604089206101208901518a526020526001600160801b0360408a2054169089841594858015612e82575b8015612e6f575b15612d8657505050506001600160801b03610180880151169060018060a01b0361010089015116895260205260408820610120880151895260205260408820906001600160801b03198254161790555b80612d7d575b612d4e575b610130546001600160a01b031680151580612d39575b612bc9575b5060406001600160801b03926101609260018060a01b036101008901511661012089015160e08a0151917ffcbbc206b8b5ae4c0e041e9feb6d2d96311d0c43b618bf39522dfb4bd576abf18b6101408101511515612af1878c8c85015116938d61018082015116906101c08f6101a083015116910151600f0b918d519687968761354a565b0390a47fd42465fdf83c2caae0b312084baf414a8c41f2dfb17d9d20c5378aee4d9eb293608060018060a01b036101008b015116926101208b015190886101808d0151169087519283526020830152868201528b6060820152a2015194015116612b686040519461010086526101008601906132e5565b92151560208501526040840152606435606084015260808301528260a083015260443560c08301524260e08301527ff082079338fc47f94a0fe2984a208a2812cd868cfe3617b8943ff1e737dbc79d600435928033930390a3600160fb5580f35b61012086015183516101608801516020808701516101808b01516040516317850a8160e01b815260048101969096526001600160a01b0390941660248601526001600160801b03928316604486015260ff166064850152911660848301529091829060a49082905afa90811561228d578791612d07575b506101335461013154604051630e68ec9560e01b81526001600160a01b0391821660048201819052938a939192909160809184916024918391165afa908115610b7357612c93928492610ae8575061414d565b61012d546101008901516001600160a01b0390811694911690813b1561221f5783612cd5956040519687958694859363269efa1560e01b85526004850161351a565b03925af1801561228d5715612a6c576001600160801b03926101609297612cfd604093613117565b9792509250612a6c565b90506020813d602011612d31575b81612d2260209383613160565b810103126110a9575138612c40565b3d9150612d15565b50610131546001600160a01b03161515612a67565b6101008501516001600160a01b0316865261013560205260408620610120860151612d78916134d6565b612a51565b50801515612a4c565b8a8282138080612e66575b8015612e53575b612da9575b50505050505050612a46565b6001600160801b039586610180612de7612df1986112a7976112a196600014612e4457985b811315612e3557935b612de1858a6134c9565b98613409565b9401511690613409565b169060018060a01b0361010089015116895260205260408820610120880151895260205260408820906001600160801b031982541617905538808089818a81612d9d565b612e3e9061349c565b93612dd7565b612e4d9061349c565b98612dce565b508383128015612d985750838512612d98565b50838513612d91565b5081811280156129f657508187136129f6565b5081811380156129ef57508187126129ef565b612eac6001600160801b036101608701511661349c565b90612977565b60405162461bcd60e51b8152602060048201526006602482015265073697a653d360d41b6044820152606490fd5b612ef9915060803d608011610b1657610b038183613160565b925050503861280b565b60405162461bcd60e51b815260206004820152600560248201526406c65763d360dc1b6044820152606490fd5b6127b69250612f4e915060403d6040116103b1576103a08183613160565b90916127ab565b50346103ee5760403660031901126103ee57600435612f726130b4565b8183526065602052612f8a6001604085200154613f8b565b8183526065602052604083209060018060a01b03169081845260205260ff60408420541615612fb7578280f35b81835260656020526040832081845260205260408320600160ff19825416179055339160008051602061448e8339815191528480a438808280f35b50346103ee5760203660031901126103ee5760016040602092600435815260658452200154604051908152f35b50346103ee57806003193601126103ee57610133546040516001600160a01b039091168152602090f35b905034610cff576020366003190112610cff5760043563ffffffff60e01b8116809103610b675760209250637965db0b60e01b811490811561308d575b5015158152f35b6301ffc9a760e01b14905038613086565b600435906001600160a01b038216820361120157565b602435906001600160a01b038216820361120157565b606081019081106001600160401b038211176130e557604052565b634e487b7160e01b600052604160045260246000fd5b61012081019081106001600160401b038211176130e557604052565b6001600160401b0381116130e557604052565b602081019081106001600160401b038211176130e557604052565b608081019081106001600160401b038211176130e557604052565b90601f801991011681019081106001600160401b038211176130e557604052565b6001600160401b0381116130e557601f01601f191660200190565b9291926131a882613181565b916131b66040519384613160565b829481845281830111611201578281602093846000960137010152565b6044359060ff8216820361120157565b90600182811c92168015613213575b60208310146131fd57565b634e487b7160e01b600052602260045260246000fd5b91607f16916131f2565b90604051918260008254613230816131e3565b908184526020946001916001811690816000146132a05750600114613261575b50505061325f92500383613160565b565b600090815285812095935091905b81831061328857505061325f9350820101388080613250565b8554888401850152948501948794509183019161326f565b9250505061325f94925060ff191682840152151560051b820101388080613250565b60005b8381106132d55750506000910152565b81810151838201526020016132c5565b906020916132fe815180928185528580860191016132c2565b601f01601f1916010190565b1561331157565b60405162461bcd60e51b815260206004820152601060248201526f1b585c9ad95d081b9bdd08199bdd5b9960821b6044820152606490fd5b5190811515820361120157565b919082604091031261120157613370602083519301613349565b90565b1561337a57565b60405162461bcd60e51b815260206004820152600b60248201526a7374616c6520707269636560a81b6044820152606490fd5b519061ffff8216820361120157565b9190826080910312611201576133d182613349565b916133de602082016133ad565b60408201519092906001600160a01b03811681036112015760609092015160ff811681036112015790565b8181029291811591840414171561341c57565b634e487b7160e01b600052601160045260246000fd5b60ff16604d811161341c57600a0a90565b811561344d570490565b634e487b7160e01b600052601260045260246000fd5b1561346a57565b60405162461bcd60e51b815260206004820152600a602482015269191d5c08199a5b1b125960b21b6044820152606490fd5b600160ff1b811461341c5760000390565b9190916000838201938412911290801582169115161761341c57565b9190820180921161341c57565b805490680100000000000000008210156130e557600182018082558210156135045760005260206000200155565b634e487b7160e01b600052603260045260246000fd5b6001600160a01b039182168152911660208201526040810191909152600060608201819052608082015260a00190565b9290969594919360a09460c0850198151585526001600160801b0392838092166020870152166040850152166060830152600f0b60808201520152565b1561358e57565b60405162461bcd60e51b815260206004820152602c60248201527f46756e6374696f6e206d7573742062652063616c6c6564207468726f7567682060448201526b19195b1959d85d1958d85b1b60a21b6064820152608490fd5b156135ef57565b60405162461bcd60e51b815260206004820152602c60248201527f46756e6374696f6e206d7573742062652063616c6c6564207468726f7567682060448201526b6163746976652070726f787960a01b6064820152608490fd5b1561365057565b60405162461bcd60e51b81526020600482015260066024820152656e6f20706f7360d01b6044820152606490fd5b6001600160a01b039081166000818152610137602090815260408083209583529481528482205491959492918015613828576101348252838720908451906136c5826130ca565b6136e46001845494898616855260ff8786019660a01c1686520161321d565b8683015285878061013254169351166024825180958193632021fa9960e11b835260048301525afa801561381e5789928a916137fb575b506137f2579161031461030e6137429360ff87968d81136000146137e95794511693613409565b9461012d5416926024855180958193630395f85d60e41b835260048301525afa9283156137e0575085926137b2575b5050838113156137ae576127109081810291818304149015171561379a57613370929350613443565b634e487b7160e01b84526011600452602484fd5b5050565b90809250813d83116137d9575b6137c98183613160565b8101031261221f57513880613771565b503d6137bf565b513d87823e3d90fd5b61035e9061349c565b50505050505050565b9050613815919250863d88116103b1576103a08183613160565b9190913861371b565b86513d8b823e3d90fd5b50600019955050505050565b60c4356001600160801b03811681036112015790565b6084356001600160801b03811681036112015790565b60a4356001600160801b03811681036112015790565b6024356001600160a01b03811681036112015790565b60643580151581036112015790565b80518210156135045760209160051b010190565b9060008060018060a01b038094169182825260209161013583526040928382209484519586838254918281520191855283852090855b818110613ad757505050866138fb910387613160565b829780610132541696816101305416955b81518b1015613acb5761391f8b8361389b565b5184875261013786528887208188528652888720548015613ac057908a8a92610134895288848b2091888651613954816130ca565b6139746001865496848816845260ff809785019860a01c1688520161321d565b88820152511693865196878092632021fa9960e11b8252600497888301526024998a915afa908115613ab557908f918e9493928592613a90575b5050613a805761030e6139d9938d9695938f9384610314955081136000146137e95794511693613409565b938c51938492632b713c6160e11b8452830152818c5afa908115613a76578891613a27575b5091612710613a17613a1e9361ffff6001961690613409565b04906134c9565b9a5b019961390c565b90508681813d8311613a6f575b613a3e8183613160565b81010312613a6b5791612710613a17613a1e9361ffff613a5f6001976133ad565b949650509350506139fe565b8780fd5b503d613a34565b8a513d8a823e3d90fd5b5050505050505099600190613a20565b613aab93955080919250903d106103b1576103a08183613160565b9290928f806139ae565b508e513d8e823e3d90fd5b505099600190613a20565b99505050505050505050565b8254845292850192600192830192016138e5565b8181039291600013801582851316918412161761341c57565b3360009081527fffdfc1249c027f9191656349feb0761381bb32c9f557e01f419fd08754bf5a1b602090815260408083205490929060ff1615613b4657505050565b613b4f336142f5565b9080845190613b5d82613145565b60428252848201926060368537825115613ceb576030845382519060019160011015613ceb5790607860218501536041915b818311613c7d57505050613c3b576048613c37938693613c1b93613c0c985198899376020b1b1b2b9b9a1b7b73a3937b61d1030b1b1b7bab73a1604d1b8a860152613be3815180928c6037890191016132c2565b8401917001034b99036b4b9b9b4b733903937b6329607d1b6037840152518093868401906132c2565b01036028810187520185613160565b5192839262461bcd60e51b8452600484015260248301906132e5565b0390fd5b60648486519062461bcd60e51b825280600483015260248201527f537472696e67733a20686578206c656e67746820696e73756666696369656e746044820152fd5b909192600f81166010811015613cd7576f181899199a1a9b1b9c1cb0b131b232b360811b901a613cad85876142e4565b5360041c928015613cc357600019019190613b8f565b634e487b7160e01b82526011600452602482fd5b634e487b7160e01b83526032600452602483fd5b634e487b7160e01b81526032600452602490fd5b3360009081527f9980e504e0a106c63f2c820261a1cd72ba69a568746977baf4144a327ce9f505602090815260408083205490927f71a9859d7dd21b24504a6f306077ffc2d510b4d4b61128e931fe937441ad18369160ff1615613d635750505050565b613d6c336142f5565b91845190613d7982613145565b60428252848201926060368537825115613ceb576030845382519060019160011015613ceb5790607860218501536041915b818311613dff57505050613c3b576048613c37938693613c1b93613c0c985198899376020b1b1b2b9b9a1b7b73a3937b61d1030b1b1b7bab73a1604d1b8a860152613be3815180928c6037890191016132c2565b909192600f81166010811015613cd7576f181899199a1a9b1b9c1cb0b131b232b360811b901a613e2f85876142e4565b5360041c928015613cc357600019019190613dab565b3360009081527f8e9a582c05399a4f33165d6c7d885c7f43669af6fd870f63065c498f3c627bb9602090815260408083205490927f151ff8b4d0da3f5c5fabf30466470e82bc2019e5d78c902a7dc3f2aa4c0bdbcc9160ff1615613ea95750505050565b613eb2336142f5565b91845190613ebf82613145565b60428252848201926060368537825115613ceb576030845382519060019160011015613ceb5790607860218501536041915b818311613f4557505050613c3b576048613c37938693613c1b93613c0c985198899376020b1b1b2b9b9a1b7b73a3937b61d1030b1b1b7bab73a1604d1b8a860152613be3815180928c6037890191016132c2565b909192600f81166010811015613cd7576f181899199a1a9b1b9c1cb0b131b232b360811b901a613f7585876142e4565b5360041c928015613cc357600019019190613ef1565b60009080825260209060658252604092838120338252835260ff848220541615613fb55750505050565b613fbe336142f5565b91845190613fcb82613145565b60428252848201926060368537825115613ceb576030845382519060019160011015613ceb5790607860218501536041915b81831161405157505050613c3b576048613c37938693613c1b93613c0c985198899376020b1b1b2b9b9a1b7b73a3937b61d1030b1b1b7bab73a1604d1b8a860152613be3815180928c6037890191016132c2565b909192600f81166010811015613cd7576f181899199a1a9b1b9c1cb0b131b232b360811b901a61408185876142e4565b5360041c928015613cc357600019019190613ffd565b600260fb54146140a857600260fb55565b60405162461bcd60e51b815260206004820152601f60248201527f5265656e7472616e637947756172643a207265656e7472616e742063616c6c006044820152606490fd5b60ff166012039060ff821161341c57565b60ff6011199116019060ff821161341c57565b60ff8216601281146141475760121161413857610314614133613370936140fe565b613432565b612830614133613370936140ed565b50905090565b60ff8216601281146141475760121161416f57612830614133613370936140fe565b610314614133613370936140ed565b906000918083526065602052604083209160018060a01b03169182845260205260ff6040842054166141af57505050565b8083526065602052604083208284526020526040832060ff1981541690557ff6391f5c32d9c69d2a47ea670b442974b53935d1edc7fd64eb21e047a839171b339380a4565b156141fb57565b60405162461bcd60e51b815260206004820152602b60248201527f496e697469616c697a61626c653a20636f6e7472616374206973206e6f74206960448201526a6e697469616c697a696e6760a81b6064820152608490fd5b803b15614289576000805160206144ae83398151915280546001600160a01b0319166001600160a01b03909216919091179055565b60405162461bcd60e51b815260206004820152602d60248201527f455243313936373a206e657720696d706c656d656e746174696f6e206973206e60448201526c1bdd08184818dbdb9d1c9858dd609a1b6064820152608490fd5b908151811015613504570160200190565b60405190614302826130ca565b602a8252602082016040368237825115613504576030905381516001906001101561350457607860218401536029905b8082116143865750506143425790565b606460405162461bcd60e51b815260206004820152602060248201527f537472696e67733a20686578206c656e67746820696e73756666696369656e746044820152fd5b9091600f811660108110156143df576f181899199a1a9b1b9c1cb0b131b232b360811b901a6143b584866142e4565b5360041c9180156143ca576000190190614332565b60246000634e487b7160e01b81526011600452fd5b60246000634e487b7160e01b81526032600452fd5b919290156144565750815115614408575090565b3b156144115790565b60405162461bcd60e51b815260206004820152601d60248201527f416464726573733a2063616c6c20746f206e6f6e2d636f6e74726163740000006044820152606490fd5b8251909150156144695750805190602001fd5b60405162461bcd60e51b815260206004820152908190613c379060248301906132e556fe2f8788117e7eff1d82e926ec794901d17c78024a50270940304540a733656f0d360894a13ba1a3210667c828492db98dca3e2076cc3735a920a3ca505d382bbca2646970667358221220403312be956f2877e5661f1b478ee517f861c1a3a58ee9aca604c911de1a84e064736f6c63430008180033",
  "linkReferences": {},
  "deployedLinkReferences": {}
}