{
  "_format": "hh-sol-artifact-1",
  "contractName": "MarginVaultV2",
  "sourceName": "src/core/MarginVaultV2.sol",
  "abi": [
    {
      "inputs": [],
      "stateMutability": "nonpayable",
      "type": "constructor"
    },
    {
      "anonymous": false,
      "inputs": [
        {
          "indexed": false,
          "internalType": "address",
          "name": "previousAdmin",
          "type": "address"
        },
        {
          "indexed": false,
          "internalType": "address",
          "name": "newAdmin",
          "type": "address"
        }
      ],
      "name": "AdminChanged",
      "type": "event"
    },
    {
      "anonymous": false,
      "inputs": [
        {
          "indexed": true,
          "internalType": "address",
          "name": "beacon",
          "type": "address"
        }
      ],
      "name": "BeaconUpgraded",
      "type": "event"
    },
    {
      "anonymous": false,
      "inputs": [
        {
          "indexed": true,
          "internalType": "address",
          "name": "user",
          "type": "address"
        },
        {
          "indexed": true,
          "internalType": "address",
          "name": "asset",
          "type": "address"
        },
        {
          "indexed": false,
          "internalType": "uint256",
          "name": "amount",
          "type": "uint256"
        },
        {
          "indexed": false,
          "internalType": "bool",
          "name": "isolated",
          "type": "bool"
        },
        {
          "indexed": false,
          "internalType": "bytes32",
          "name": "marketId",
          "type": "bytes32"
        }
      ],
      "name": "Deposit",
      "type": "event"
    },
    {
      "anonymous": false,
      "inputs": [
        {
          "indexed": false,
          "internalType": "uint8",
          "name": "version",
          "type": "uint8"
        }
      ],
      "name": "Initialized",
      "type": "event"
    },
    {
      "anonymous": false,
      "inputs": [
        {
          "indexed": true,
          "internalType": "bytes32",
          "name": "role",
          "type": "bytes32"
        },
        {
          "indexed": true,
          "internalType": "bytes32",
          "name": "previousAdminRole",
          "type": "bytes32"
        },
        {
          "indexed": true,
          "internalType": "bytes32",
          "name": "newAdminRole",
          "type": "bytes32"
        }
      ],
      "name": "RoleAdminChanged",
      "type": "event"
    },
    {
      "anonymous": false,
      "inputs": [
        {
          "indexed": true,
          "internalType": "bytes32",
          "name": "role",
          "type": "bytes32"
        },
        {
          "indexed": true,
          "internalType": "address",
          "name": "account",
          "type": "address"
        },
        {
          "indexed": true,
          "internalType": "address",
          "name": "sender",
          "type": "address"
        }
      ],
      "name": "RoleGranted",
      "type": "event"
    },
    {
      "anonymous": false,
      "inputs": [
        {
          "indexed": true,
          "internalType": "bytes32",
          "name": "role",
          "type": "bytes32"
        },
        {
          "indexed": true,
          "internalType": "address",
          "name": "account",
          "type": "address"
        },
        {
          "indexed": true,
          "internalType": "address",
          "name": "sender",
          "type": "address"
        }
      ],
      "name": "RoleRevoked",
      "type": "event"
    },
    {
      "anonymous": false,
      "inputs": [
        {
          "indexed": true,
          "internalType": "address",
          "name": "implementation",
          "type": "address"
        }
      ],
      "name": "Upgraded",
      "type": "event"
    },
    {
      "anonymous": false,
      "inputs": [
        {
          "indexed": true,
          "internalType": "address",
          "name": "user",
          "type": "address"
        },
        {
          "indexed": true,
          "internalType": "address",
          "name": "asset",
          "type": "address"
        },
        {
          "indexed": false,
          "internalType": "uint256",
          "name": "amount",
          "type": "uint256"
        },
        {
          "indexed": false,
          "internalType": "bool",
          "name": "isolated",
          "type": "bool"
        },
        {
          "indexed": false,
          "internalType": "bytes32",
          "name": "marketId",
          "type": "bytes32"
        }
      ],
      "name": "Withdraw",
      "type": "event"
    },
    {
      "inputs": [],
      "name": "DEFAULT_ADMIN_ROLE",
      "outputs": [
        {
          "internalType": "bytes32",
          "name": "",
          "type": "bytes32"
        }
      ],
      "stateMutability": "view",
      "type": "function"
    },
    {
      "inputs": [
        {
          "internalType": "address",
          "name": "user",
          "type": "address"
        }
      ],
      "name": "accountEquityZUSD",
      "outputs": [
        {
          "internalType": "int256",
          "name": "",
          "type": "int256"
        }
      ],
      "stateMutability": "view",
      "type": "function"
    },
    {
      "inputs": [],
      "name": "collateralManager",
      "outputs": [
        {
          "internalType": "contract ICollateralManager",
          "name": "",
          "type": "address"
        }
      ],
      "stateMutability": "view",
      "type": "function"
    },
    {
      "inputs": [
        {
          "internalType": "address",
          "name": "",
          "type": "address"
        },
        {
          "internalType": "address",
          "name": "",
          "type": "address"
        }
      ],
      "name": "crossBalances",
      "outputs": [
        {
          "internalType": "uint128",
          "name": "",
          "type": "uint128"
        }
      ],
      "stateMutability": "view",
      "type": "function"
    },
    {
      "inputs": [
        {
          "internalType": "address",
          "name": "asset",
          "type": "address"
        },
        {
          "internalType": "uint256",
          "name": "amount",
          "type": "uint256"
        },
        {
          "internalType": "bool",
          "name": "isolated",
          "type": "bool"
        },
        {
          "internalType": "bytes32",
          "name": "marketId",
          "type": "bytes32"
        }
      ],
      "name": "deposit",
      "outputs": [],
      "stateMutability": "nonpayable",
      "type": "function"
    },
    {
      "inputs": [
        {
          "internalType": "bytes32",
          "name": "role",
          "type": "bytes32"
        }
      ],
      "name": "getRoleAdmin",
      "outputs": [
        {
          "internalType": "bytes32",
          "name": "",
          "type": "bytes32"
        }
      ],
      "stateMutability": "view",
      "type": "function"
    },
    {
      "inputs": [
        {
          "internalType": "bytes32",
          "name": "role",
          "type": "bytes32"
        },
        {
          "internalType": "address",
          "name": "account",
          "type": "address"
        }
      ],
      "name": "grantRole",
      "outputs": [],
      "stateMutability": "nonpayable",
      "type": "function"
    },
    {
      "inputs": [
        {
          "internalType": "address",
          "name": "user",
          "type": "address"
        },
        {
          "internalType": "uint256",
          "name": "releaseZ",
          "type": "uint256"
        }
      ],
      "name": "handlePostLiquidation",
      "outputs": [],
      "stateMutability": "nonpayable",
      "type": "function"
    },
    {
      "inputs": [
        {
          "internalType": "bytes32",
          "name": "role",
          "type": "bytes32"
        },
        {
          "internalType": "address",
          "name": "account",
          "type": "address"
        }
      ],
      "name": "hasRole",
      "outputs": [
        {
          "internalType": "bool",
          "name": "",
          "type": "bool"
        }
      ],
      "stateMutability": "view",
      "type": "function"
    },
    {
      "inputs": [
        {
          "internalType": "address",
          "name": "admin",
          "type": "address"
        },
        {
          "internalType": "address",
          "name": "_collateralManager",
          "type": "address"
        }
      ],
      "name": "initialize",
      "outputs": [],
      "stateMutability": "nonpayable",
      "type": "function"
    },
    {
      "inputs": [
        {
          "internalType": "address",
          "name": "",
          "type": "address"
        },
        {
          "internalType": "bytes32",
          "name": "",
          "type": "bytes32"
        },
        {
          "internalType": "address",
          "name": "",
          "type": "address"
        }
      ],
      "name": "isolatedBalances",
      "outputs": [
        {
          "internalType": "uint128",
          "name": "",
          "type": "uint128"
        }
      ],
      "stateMutability": "view",
      "type": "function"
    },
    {
      "inputs": [],
      "name": "oracleRouter",
      "outputs": [
        {
          "internalType": "contract IOracleRouter",
          "name": "",
          "type": "address"
        }
      ],
      "stateMutability": "view",
      "type": "function"
    },
    {
      "inputs": [],
      "name": "perpEngine",
      "outputs": [
        {
          "internalType": "contract IPerpEngine",
          "name": "",
          "type": "address"
        }
      ],
      "stateMutability": "view",
      "type": "function"
    },
    {
      "inputs": [],
      "name": "proxiableUUID",
      "outputs": [
        {
          "internalType": "bytes32",
          "name": "",
          "type": "bytes32"
        }
      ],
      "stateMutability": "view",
      "type": "function"
    },
    {
      "inputs": [
        {
          "internalType": "address",
          "name": "user",
          "type": "address"
        },
        {
          "internalType": "address",
          "name": "asset",
          "type": "address"
        },
        {
          "internalType": "uint256",
          "name": "amount",
          "type": "uint256"
        },
        {
          "internalType": "bool",
          "name": "isolated",
          "type": "bool"
        },
        {
          "internalType": "bytes32",
          "name": "marketId",
          "type": "bytes32"
        }
      ],
      "name": "release",
      "outputs": [],
      "stateMutability": "nonpayable",
      "type": "function"
    },
    {
      "inputs": [
        {
          "internalType": "bytes32",
          "name": "role",
          "type": "bytes32"
        },
        {
          "internalType": "address",
          "name": "account",
          "type": "address"
        }
      ],
      "name": "renounceRole",
      "outputs": [],
      "stateMutability": "nonpayable",
      "type": "function"
    },
    {
      "inputs": [
        {
          "internalType": "address",
          "name": "user",
          "type": "address"
        },
        {
          "internalType": "address",
          "name": "asset",
          "type": "address"
        },
        {
          "internalType": "uint256",
          "name": "amount",
          "type": "uint256"
        },
        {
          "internalType": "bool",
          "name": "isolated",
          "type": "bool"
        },
        {
          "internalType": "bytes32",
          "name": "marketId",
          "type": "bytes32"
        }
      ],
      "name": "reserve",
      "outputs": [],
      "stateMutability": "nonpayable",
      "type": "function"
    },
    {
      "inputs": [
        {
          "internalType": "address",
          "name": "",
          "type": "address"
        }
      ],
      "name": "reservedZ",
      "outputs": [
        {
          "internalType": "uint256",
          "name": "",
          "type": "uint256"
        }
      ],
      "stateMutability": "view",
      "type": "function"
    },
    {
      "inputs": [
        {
          "internalType": "bytes32",
          "name": "role",
          "type": "bytes32"
        },
        {
          "internalType": "address",
          "name": "account",
          "type": "address"
        }
      ],
      "name": "revokeRole",
      "outputs": [],
      "stateMutability": "nonpayable",
      "type": "function"
    },
    {
      "inputs": [],
      "name": "riskConfig",
      "outputs": [
        {
          "internalType": "contract IRiskConfig",
          "name": "",
          "type": "address"
        }
      ],
      "stateMutability": "view",
      "type": "function"
    },
    {
      "inputs": [
        {
          "internalType": "address",
          "name": "_riskConfig",
          "type": "address"
        },
        {
          "internalType": "address",
          "name": "_oracleRouter",
          "type": "address"
        },
        {
          "internalType": "address",
          "name": "_perpEngine",
          "type": "address"
        }
      ],
      "name": "setDeps",
      "outputs": [],
      "stateMutability": "nonpayable",
      "type": "function"
    },
    {
      "inputs": [
        {
          "internalType": "bytes4",
          "name": "interfaceId",
          "type": "bytes4"
        }
      ],
      "name": "supportsInterface",
      "outputs": [
        {
          "internalType": "bool",
          "name": "",
          "type": "bool"
        }
      ],
      "stateMutability": "view",
      "type": "function"
    },
    {
      "inputs": [
        {
          "internalType": "address",
          "name": "newImplementation",
          "type": "address"
        }
      ],
      "name": "upgradeTo",
      "outputs": [],
      "stateMutability": "nonpayable",
      "type": "function"
    },
    {
      "inputs": [
        {
          "internalType": "address",
          "name": "newImplementation",
          "type": "address"
        },
        {
          "internalType": "bytes",
          "name": "data",
          "type": "bytes"
        }
      ],
      "name": "upgradeToAndCall",
      "outputs": [],
      "stateMutability": "payable",
      "type": "function"
    },
    {
      "inputs": [
        {
          "internalType": "address",
          "name": "asset",
          "type": "address"
        },
        {
          "internalType": "uint256",
          "name": "amount",
          "type": "uint256"
        },
        {
          "internalType": "bool",
          "name": "isolated",
          "type": "bool"
        },
        {
          "internalType": "bytes32",
          "name": "marketId",
          "type": "bytes32"
        }
      ],
      "name": "withdraw",
      "outputs": [],
      "stateMutability": "nonpayable",
      "type": "function"
    }
  ],
  "bytecode": "0x60a080604052346100dc57306080526000549060ff8260081c1661008a575060ff8082160361004f575b6040516124c890816100e28239608051818181610887015281816109b00152610f4b0152f35b60ff90811916176000557f7f26b83ff96e1f2b6a682f133852f6798a09c465da95921460cefb3847402498602060405160ff8152a138610029565b62461bcd60e51b815260206004820152602760248201527f496e697469616c697a61626c653a20636f6e747261637420697320696e697469604482015266616c697a696e6760c81b6064820152608490fd5b600080fdfe608060408181526004918236101561001657600080fd5b600092833560e01c91826301ffc9a71461146d5750816323be345c14611443578163248a9ca314611418578163269efa151461125a5781632f2ff15d146111ad57816336568abe1461111b5781633659cfe614610f23578382633801733614610ece57508163395f85d014610ea1578163485cc95514610c3657816348ba4d2b14610c0c5781634f1ef2861461093457816352d1902d1461087157816355a29e9114610847578163699061541461065e5783826375c844c9146104d5575081637c90a6ca146104ab57816391d14854146104645781639cc69def146102fe578163a217fddf146102e3578163b7a8461c14610290578163d547741f1461024d57508063e3d29ee9146101d4578063efb7c9561461019c5763fc29312a1461013c57600080fd5b34610198576060366003190112610198576001600160801b03816020936101616114db565b6101696114f1565b6001600160a01b03918216835261012e8752838320602435845287528383209116825285522054915191168152f35b5080fd5b50346101985760203660031901126101985760209181906001600160a01b036101c36114db565b168152610133845220549051908152f35b823461024a57606036600319011261024a576101ee6114db565b6101f66114c0565b906101ff6114f1565b91610208611cd9565b60018060a01b03906bffffffffffffffffffffffff60a01b92826101309116848254161790558161013191168382541617905561013292169082541617905580f35b80fd5b9190503461028c578060031936011261028c57610289913561028460016102726114c0565b93838752606560205286200154611dfe565b611f09565b80f35b8280fd5b5050346101985780600319360112610198576001600160801b03816020936102b66114db565b6102be6114c0565b6001600160a01b03918216835261012d87528383209116825285522054915191168152f35b50503461019857816003193601126101985751908152602090f35b8383346101985761030e366115f5565b9192610318611fdf565b610323841515611a70565b60018060a01b03169380516020906323b872dd60e01b828201523360248201523060448201528560648201526064815260a0810181811067ffffffffffffffff821117610451579161039f8492610407947f9ef9cb94ad0d2c032c56beb6988cf2b1e6b1934e08a14cc112aa5098c9c1fd9298979652896121cc565b83156104125733895261012e8152818920858a528152818920888a52905280882080546001600160801b036103d8898216838316611aa7565b16906001600160801b0319161790555b5192839233968460409194939260608201958252151560208201520152565b0390a3600160fb5580f35b33895261012d8152818920888a52905280882080546001600160801b0361043d898216838316611aa7565b16906001600160801b0319161790556103e8565b634e487b7160e01b895260418a52602489fd5b90503461028c578160031936011261028c578160209360ff926104856114c0565b90358252606586528282206001600160a01b039091168252855220549151911615158152f35b5050346101985781600319360112610198576101305490516001600160a01b039091168152602090f35b8091843461065a57602061058a926104ec36611507565b906104fb969495929396611ac2565b1561060e576001600160a01b038581168a5261012e8552878a20918a529084528689209086168952835285882080546001600160801b03610540858216838316611aa7565b16906001600160801b0319161790555b61012f54865163343fe18760e11b81526001600160a01b039687169281019283526020830193909352919687928616918391829160400190565b03915afa9384156106045785946105cc575b5016835261013360205282209080825410156000146105c757816105c292935054611765565b905580f35b505580f35b9093506020813d6020116105fc575b816105e8602093836115b7565b810103126105f85751928661059c565b8480fd5b3d91506105db565b83513d87823e3d90fd5b506001600160a01b03848116895261012d84528689209086168952835285882080546001600160801b03610646858216838316611aa7565b16906001600160801b031916179055610550565b5050fd5b90503461028c5761066e366115f5565b9290919361067a611fdf565b610685851515611a70565b82156107d85733875261012e6020818152878920868a5281528789206001600160a01b038516808b52908252888a20546001600160801b0392906106da9084166106d18b82101561162c565b848b1690611667565b93338c528152898b20888c528152898b20918b525287892091166001600160801b03198254161790555b61070d33612035565b1561077d5750845163a9059cbb60e01b6020820152336024820152604480820186905281526001600160a01b0391909116947fbbee77249e3b1b806731759d73df5290ba4af2466e8bcd44693af61e7032507393929161040791906103e8906107776064826115b7565b886121cc565b608490602087519162461bcd60e51b8352820152602f60248201527f4d617267696e5661756c743a20696e73756666696369656e742065717569747960448201526e20616674657220776974686472617760881b6064820152fd5b33875261012d60208181528789206001600160a01b038516808b529152878920546001600160801b03919061081e9083166108158a82101561162c565b838a1690611667565b92338b52602052888a20908a5260205287892091166001600160801b0319825416179055610704565b5050346101985781600319360112610198576101315490516001600160a01b039091168152602090f35b9050823461024a578060031936011261024a57507f00000000000000000000000000000000000000000000000000000000000000006001600160a01b031630036108cc57602082516000805160206124738339815191528152f35b6020608492519162461bcd60e51b8352820152603860248201527f555550535570677261646561626c653a206d757374206e6f742062652063616c60448201527f6c6564207468726f7567682064656c656761746563616c6c00000000000000006064820152fd5b9180915060031936011261028c5761094a6114db565b906024359067ffffffffffffffff82116105f857366023830112156105f85781840135610976816115d9565b90610983835192836115b7565b8082528660209485840192366024828401011161028c578060248893018537840101526001600160a01b037f00000000000000000000000000000000000000000000000000000000000000008116906109de308314156116a3565b6109fb600080516020612473833981519152928284541614611704565b610a03611cd9565b7f4910fdfa16fed3260ed0e7147f7cc6da11a60208b5b9406d12a635614ffd91435460ff1615610a3d57505050505050610289915061213c565b8693949596169085516352d1902d60e01b815287818a81865afa8a9181610bd9575b50610abe57865162461bcd60e51b8152808a01899052602e60248201527f45524331393637557067726164653a206e657720696d706c656d656e7461746960448201526d6f6e206973206e6f74205555505360901b6064820152608490fd5b9791929395949703610b84575090869291610ad88561213c565b7fbc7cd75a20ee27fd9adebab32041f755214dbc6bffa90cc0225b39da2e5c2d3b8480a2855115801590610b7c575b610b15575b50505050505080f35b610b7095660819985a5b195960ca1b837f416464726573733a206c6f772d6c6576656c2064656c65676174652063616c6c86955198610b538a61154d565b60278a528901528701525190845af4610b6a611772565b916123e1565b50388080838180610b0c565b506001610b07565b835162461bcd60e51b8152908101869052602960248201527f45524331393637557067726164653a20756e737570706f727465642070726f786044820152681a58589b195555525160ba1b6064820152608490fd5b9091508881813d8311610c05575b610bf181836115b7565b81010312610c0157519038610a5f565b8a80fd5b503d610be7565b5050346101985781600319360112610198576101325490516001600160a01b039091168152602090f35b90503461028c578160031936011261028c57610c506114db565b90610c596114c0565b84549260ff808560081c161593848095610e95575b8015610e7f575b15610e25575060ff1985811660011788559484610e14575b50610cb881885460081c16610ca181611f7f565b610caa81611f7f565b610cb381611f7f565b611f7f565b600160fb55868052606560209081528688206001600160a01b03938416808a529082528789205491969091831615610dcd575b7fbc7594c22daadcbde6fe7c5e4e2f2d5966e1ecafeeeb82209b62000d005d6c3192838a5260658852888a20838b528852888a20541615610d84575b50505061012f91166bffffffffffffffffffffffff60a01b825416179055610d4d578280f35b7f7f26b83ff96e1f2b6a682f133852f6798a09c465da95921460cefb38474024989161ff001984541684555160018152a138808280f35b82895260658752878920828a5287526001888a209182541617905533917f2f8788117e7eff1d82e926ec794901d17c78024a50270940304540a733656f0d8980a4388080610d27565b88805260658752878920828a52875287892060018282541617905533828a7f2f8788117e7eff1d82e926ec794901d17c78024a50270940304540a733656f0d8180a4610ceb565b61ffff191661010117875538610c8d565b608490602088519162461bcd60e51b8352820152602e60248201527f496e697469616c697a61626c653a20636f6e747261637420697320616c72656160448201526d191e481a5b9a5d1a585b1a5e995960921b6064820152fd5b50303b158015610c755750600182871614610c75565b50600182871610610c6e565b50503461019857602036600319011261019857602090610ec7610ec26114db565b6117a2565b9051908152f35b808434610f205780600319360112610f2057610ee86114db565b9060243591610ef5611ac2565b6001600160a01b031683526101336020528220805490919081116105c757816105c292935054611765565b50fd5b9190503461028c5760208060031936011261111757610f406114db565b916001600160a01b037f0000000000000000000000000000000000000000000000000000000000000000811690610f79308314156116a3565b610f96600080516020612473833981519152928284541614611704565b610f9e611cd9565b8251918483019183831067ffffffffffffffff841117611104578285528884527f4910fdfa16fed3260ed0e7147f7cc6da11a60208b5b9406d12a635614ffd91435460ff1615610ff857505050505050610289915061213c565b8693949596169085516352d1902d60e01b815287818a81865afa8a91816110d5575b5061107957865162461bcd60e51b8152808a01899052602e60248201527f45524331393637557067726164653a206e657720696d706c656d656e7461746960448201526d6f6e206973206e6f74205555505360901b6064820152608490fd5b9791929395949703610b845750908692916110938561213c565b7fbc7cd75a20ee27fd9adebab32041f755214dbc6bffa90cc0225b39da2e5c2d3b8480a28551158015906110ce57610b155750505050505080f35b5082610b07565b9091508881813d83116110fd575b6110ed81836115b7565b81010312610c015751903861101a565b503d6110e3565b634e487b7160e01b895260418852602489fd5b8380fd5b839150346101985782600319360112610198576111366114c0565b90336001600160a01b0383160361115257906102899135611f09565b608490602085519162461bcd60e51b8352820152602f60248201527f416363657373436f6e74726f6c3a2063616e206f6e6c792072656e6f756e636560448201526e103937b632b9903337b91039b2b63360891b6064820152fd5b90503461028c578160031936011261028c5735906111c96114c0565b9082845260656020526111e160018286200154611dfe565b828452606560209081528185206001600160a01b039093168086529290528084205460ff161561120f578380f35b82845260656020528084208285526020528320600160ff1982541617905533917f2f8788117e7eff1d82e926ec794901d17c78024a50270940304540a733656f0d8480a43880808380f35b9190503461028c5761133d9083602061127236611507565b90611281999396929499611ac2565b156113a8576001600160a01b0389811680845261012e8088528985208486528852898520928916808652928852898520546001600160801b039489939092916112db9087166112d28b82101561162c565b878b1690611667565b96528252898d20908d528152888c20918c5252868a2091166001600160801b03198254161790555b61012f54855163343fe18760e11b81526001600160a01b039586169281019283526020830193909352919586928516918391829160400190565b03915afa92831561139e578593611368575b506105c292931684526101336020528320918254611696565b92506020833d602011611396575b81611383602093836115b7565b810103126105f8576105c292519261134f565b3d9150611376565b82513d87823e3d90fd5b505060018060a01b038581891691828b5261012d808752828c2091881691828d5287526113f28c6001600160801b039485912054166113e98882101561162c565b84881690611667565b938c528652878b20908b528552868a2091166001600160801b0319825416179055611303565b90503461028c57602036600319011261028c5781602093600192358152606585522001549051908152f35b50503461019857816003193601126101985761012f5490516001600160a01b039091168152602090f35b84913461028c57602036600319011261028c573563ffffffff60e01b811680910361028c5760209250637965db0b60e01b81149081156114af575b5015158152f35b6301ffc9a760e01b149050836114a8565b602435906001600160a01b03821682036114d657565b600080fd5b600435906001600160a01b03821682036114d657565b604435906001600160a01b03821682036114d657565b60a09060031901126114d6576001600160a01b039060043582811681036114d6579160243590811681036114d657906044359060643580151581036114d6579060843590565b6060810190811067ffffffffffffffff82111761156957604052565b634e487b7160e01b600052604160045260246000fd5b6040810190811067ffffffffffffffff82111761156957604052565b6080810190811067ffffffffffffffff82111761156957604052565b90601f8019910116810190811067ffffffffffffffff82111761156957604052565b67ffffffffffffffff811161156957601f01601f191660200190565b60809060031901126114d6576004356001600160a01b03811681036114d657906024359060443580151581036114d6579060643590565b1561163357565b60405162461bcd60e51b815260206004820152600c60248201526b1a5b9cdd59999a58da595b9d60a21b6044820152606490fd5b6001600160801b03918216908216039190821161168057565b634e487b7160e01b600052601160045260246000fd5b9190820180921161168057565b156116aa57565b60405162461bcd60e51b815260206004820152602c60248201527f46756e6374696f6e206d7573742062652063616c6c6564207468726f7567682060448201526b19195b1959d85d1958d85b1b60a21b6064820152608490fd5b1561170b57565b60405162461bcd60e51b815260206004820152602c60248201527f46756e6374696f6e206d7573742062652063616c6c6564207468726f7567682060448201526b6163746976652070726f787960a01b6064820152608490fd5b9190820391821161168057565b3d1561179d573d90611783826115d9565b9161179160405193846115b7565b82523d6000602084013e565b606090565b600060018060a01b038061012f541660409182519160209285808583016319f92b0b60e21b8152600493600481526117d98161157f565b5190855afa6117e6611772565b906118c8575b5050610132546000915082168061185157505090610133916000955b16600052526000205480611832575b50600082820192831291129080158216911516176116805790565b8082106118485761184291611765565b38611817565b50506000611842565b8360249186519283809263fc703ef560e01b8252878c1660048301525afa9182156118bd57809261188b575b505090610133929195611808565b9091508382813d83116118b6575b6118a381836115b7565b8101031261024a5750516101333861187d565b503d611899565b8551903d90823e3d90fd5b8098979391929495985181018682818301920312611a6c578682015167ffffffffffffffff92838211611a6857019080603f83011215611a645787820151928311611a50576005918360051b908c51946119248b8401876115b7565b85528c8a860192820101928311610c01578c01905b828210611a3457505050875b8251811015611a2257808885818e94861b870101511686891660005261012d8252836000208160005282526001600160801b03846000205416908115611a1657935163228245fd60e01b81526001600160a01b0390941688850190815260208101919091529192918290819060400103818b5afa600091816119e7575b506119d3575b506001905b01611945565b6119e0906001929a611696565b98906119c8565b90918a82813d8311611a0f575b6119fe81836115b7565b8101031261024a57505190386119c2565b503d6119f4565b505050600191506119cd565b505050919596939250503880806117ec565b81518681168103611a4c578152908901908901611939565b8b80fd5b634e487b7160e01b89526041600452602489fd5b8880fd5b8980fd5b8780fd5b15611a7757565b60405162461bcd60e51b81526020600482015260086024820152670616d6f756e743d360c41b6044820152606490fd5b9190916001600160801b038080941691160191821161168057565b3360009081527faf5212d61d81974133ccf8ed4f66765a1bd1a2123b83dcfc62ff1ca8882c58a360209081526040808320549092907fbc7594c22daadcbde6fe7c5e4e2f2d5966e1ecafeeeb82209b62000d005d6c319060ff1615611b275750505050565b611b30336122e2565b845191611b3c8361159b565b60428352848301936060368637835115611cc5576030855383519060019160011015611cc55790607860218601536041915b818311611c5757505050611c1557611bc3938593611bfb93611bec604894611c119951988576020b1b1b2b9b9a1b7b73a3937b61d1030b1b1b7bab73a1604d1b8b9788015282519283916037890191016120ed565b8401917001034b99036b4b9b9b4b733903937b6329607d1b6037840152518093868401906120ed565b010360288101855201836115b7565b5162461bcd60e51b815291829160048301612110565b0390fd5b60648486519062461bcd60e51b825280600483015260248201527f537472696e67733a20686578206c656e67746820696e73756666696369656e746044820152fd5b909192600f81166010811015611cb1576f181899199a1a9b1b9c1cb0b131b232b360811b901a611c8785886122bb565b5360041c928015611c9d57600019019190611b6e565b634e487b7160e01b82526011600452602482fd5b634e487b7160e01b83526032600452602483fd5b634e487b7160e01b81526032600452602490fd5b3360009081527fffdfc1249c027f9191656349feb0761381bb32c9f557e01f419fd08754bf5a1b602090815260408083205490929060ff1615611d1b57505050565b611d24336122e2565b83519082611d318361159b565b60428352848301936060368637835115611cc5576030855383519060019160011015611cc55790607860218601536041915b818311611db857505050611c1557611bc3938593611bfb93611bec604894611c119951988576020b1b1b2b9b9a1b7b73a3937b61d1030b1b1b7bab73a1604d1b8b9788015282519283916037890191016120ed565b909192600f81166010811015611cb1576f181899199a1a9b1b9c1cb0b131b232b360811b901a611de885886122bb565b5360041c928015611c9d57600019019190611d63565b600081815260209060658252604092838220338352835260ff848320541615611e275750505050565b611e30336122e2565b845191611e3c8361159b565b60428352848301936060368637835115611cc5576030855383519060019160011015611cc55790607860218601536041915b818311611ec357505050611c1557611bc3938593611bfb93611bec604894611c119951988576020b1b1b2b9b9a1b7b73a3937b61d1030b1b1b7bab73a1604d1b8b9788015282519283916037890191016120ed565b909192600f81166010811015611cb1576f181899199a1a9b1b9c1cb0b131b232b360811b901a611ef385886122bb565b5360041c928015611c9d57600019019190611e6e565b906000918083526065602052604083209160018060a01b03169182845260205260ff604084205416611f3a57505050565b8083526065602052604083208284526020526040832060ff1981541690557ff6391f5c32d9c69d2a47ea670b442974b53935d1edc7fd64eb21e047a839171b339380a4565b15611f8657565b60405162461bcd60e51b815260206004820152602b60248201527f496e697469616c697a61626c653a20636f6e7472616374206973206e6f74206960448201526a6e697469616c697a696e6760a81b6064820152608490fd5b600260fb5414611ff057600260fb55565b60405162461bcd60e51b815260206004820152601f60248201527f5265656e7472616e637947756172643a207265656e7472616e742063616c6c006044820152606490fd5b610130546001600160a01b03908116156120e657612052826117a2565b9181610132541690600092821560001461207157505050506000131590565b602460209260405194859384926392900d8960e01b84521660048301525afa9182156120da5780926120a5575b5050131590565b9091506020823d6020116120d2575b816120c1602093836115b7565b8101031261024a575051388061209e565b3d91506120b4565b604051903d90823e3d90fd5b5050600190565b60005b8381106121005750506000910152565b81810151838201526020016120f0565b6040916020825261213081518092816020860152602086860191016120ed565b601f01601f1916010190565b803b156121715760008051602061247383398151915280546001600160a01b0319166001600160a01b03909216919091179055565b60405162461bcd60e51b815260206004820152602d60248201527f455243313936373a206e657720696d706c656d656e746174696f6e206973206e60448201526c1bdd08184818dbdb9d1c9858dd609a1b6064820152608490fd5b60018060a01b0316906122256040516121e48161157f565b6020938482527f5361666545524332303a206c6f772d6c6576656c2063616c6c206661696c6564858301526000808587829751910182855af1610b6a611772565b805191821591848315612297575b5050509050156122405750565b6084906040519062461bcd60e51b82526004820152602a60248201527f5361666545524332303a204552433230206f7065726174696f6e20646964206e6044820152691bdd081cdd58d8d9595960b21b6064820152fd5b9193818094500103126101985782015190811515820361024a575080388084612233565b9081518110156122cc570160200190565b634e487b7160e01b600052603260045260246000fd5b604051906122ef8261154d565b602a82526020820160403682378251156122cc57603090538151600190600110156122cc57607860218401536029905b80821161237357505061232f5790565b606460405162461bcd60e51b815260206004820152602060248201527f537472696e67733a20686578206c656e67746820696e73756666696369656e746044820152fd5b9091600f811660108110156123cc576f181899199a1a9b1b9c1cb0b131b232b360811b901a6123a284866122bb565b5360041c9180156123b757600019019061231f565b60246000634e487b7160e01b81526011600452fd5b60246000634e487b7160e01b81526032600452fd5b9192901561244357508151156123f5575090565b3b156123fe5790565b60405162461bcd60e51b815260206004820152601d60248201527f416464726573733a2063616c6c20746f206e6f6e2d636f6e74726163740000006044820152606490fd5b8251909150156124565750805190602001fd5b60405162461bcd60e51b8152908190611c11906004830161211056fe360894a13ba1a3210667c828492db98dca3e2076cc3735a920a3ca505d382bbca2646970667358221220d7ff94d2e55776f4dac7b126a1144124948defdd495f4994b042b5cc56bfd8ac64736f6c63430008180033",
  "linkReferences": {},
  "deployedLinkReferences": {}
}